{
	"data": {
		"bytecode": {
			"linkReferences": {},
			"object": "6080604052348015600e575f80fd5b506103988061001c5f395ff3fe608060405234801561000f575f80fd5b506004361061003f575f3560e01c80632ebfada2146100435780635502affb1461008357806380a003ff146100a4575b5f80fd5b7fa9059cbb2ab09eb219583f4a59a5d0623ade346d962bcd4e46b11da047c9049b5b6040516001600160e01b031990911681526020015b60405180910390f35b610096610091366004610224565b6100bd565b60405161007a9291906102e6565b6100656100b2366004610308565b805160209091012090565b5f60605f848051906020012090505f80876001600160a01b031683876040516024016100e9919061033a565b60408051601f198184030181529181526020820180516001600160e01b03166001600160e01b0319909416939093179092529051610127919061034c565b5f60405180830381855afa9150503d805f811461015f576040519150601f19603f3d011682016040523d82523d5f602084013e610164565b606091505b5090999098509650505050505050565b634e487b7160e01b5f52604160045260245ffd5b5f8067ffffffffffffffff8411156101a2576101a2610174565b50604051601f19601f85018116603f0116810181811067ffffffffffffffff821117156101d1576101d1610174565b6040528381529050808284018510156101e8575f80fd5b838360208301375f60208583010152509392505050565b5f82601f83011261020e575f80fd5b61021d83833560208501610188565b9392505050565b5f805f60608486031215610236575f80fd5b83356001600160a01b038116811461024c575f80fd5b9250602084013567ffffffffffffffff811115610267575f80fd5b610273868287016101ff565b925050604084013567ffffffffffffffff81111561028f575f80fd5b8401601f8101861361029f575f80fd5b6102ae86823560208401610188565b9150509250925092565b5f81518084528060208401602086015e5f602082860101526020601f19601f83011685010191505092915050565b8215158152604060208201525f61030060408301846102b8565b949350505050565b5f60208284031215610318575f80fd5b813567ffffffffffffffff81111561032e575f80fd5b610300848285016101ff565b602081525f61021d60208301846102b8565b5f82518060208501845e5f92019182525091905056fea2646970667358221220fae0f30021aeaec9f34c266320017ef81e803e42b0c937a691226bb6ab478fb864736f6c634300081a0033",
			"opcodes": "PUSH1 0x80 PUSH1 0x40 MSTORE CALLVALUE DUP1 ISZERO PUSH1 0xE JUMPI PUSH0 DUP1 REVERT JUMPDEST POP PUSH2 0x398 DUP1 PUSH2 0x1C PUSH0 CODECOPY PUSH0 RETURN INVALID PUSH1 0x80 PUSH1 0x40 MSTORE CALLVALUE DUP1 ISZERO PUSH2 0xF JUMPI PUSH0 DUP1 REVERT JUMPDEST POP PUSH1 0x4 CALLDATASIZE LT PUSH2 0x3F JUMPI PUSH0 CALLDATALOAD PUSH1 0xE0 SHR DUP1 PUSH4 0x2EBFADA2 EQ PUSH2 0x43 JUMPI DUP1 PUSH4 0x5502AFFB EQ PUSH2 0x83 JUMPI DUP1 PUSH4 0x80A003FF EQ PUSH2 0xA4 JUMPI JUMPDEST PUSH0 DUP1 REVERT JUMPDEST PUSH32 0xA9059CBB2AB09EB219583F4A59A5D0623ADE346D962BCD4E46B11DA047C9049B JUMPDEST PUSH1 0x40 MLOAD PUSH1 0x1 PUSH1 0x1 PUSH1 0xE0 SHL SUB NOT SWAP1 SWAP2 AND DUP2 MSTORE PUSH1 0x20 ADD JUMPDEST PUSH1 0x40 MLOAD DUP1 SWAP2 SUB SWAP1 RETURN JUMPDEST PUSH2 0x96 PUSH2 0x91 CALLDATASIZE PUSH1 0x4 PUSH2 0x224 JUMP JUMPDEST PUSH2 0xBD JUMP JUMPDEST PUSH1 0x40 MLOAD PUSH2 0x7A SWAP3 SWAP2 SWAP1 PUSH2 0x2E6 JUMP JUMPDEST PUSH2 0x65 PUSH2 0xB2 CALLDATASIZE PUSH1 0x4 PUSH2 0x308 JUMP JUMPDEST DUP1 MLOAD PUSH1 0x20 SWAP1 SWAP2 ADD KECCAK256 SWAP1 JUMP JUMPDEST PUSH0 PUSH1 0x60 PUSH0 DUP5 DUP1 MLOAD SWAP1 PUSH1 0x20 ADD KECCAK256 SWAP1 POP PUSH0 DUP1 DUP8 PUSH1 0x1 PUSH1 0x1 PUSH1 0xA0 SHL SUB AND DUP4 DUP8 PUSH1 0x40 MLOAD PUSH1 0x24 ADD PUSH2 0xE9 SWAP2 SWAP1 PUSH2 0x33A JUMP JUMPDEST PUSH1 0x40 DUP1 MLOAD PUSH1 0x1F NOT DUP2 DUP5 SUB ADD DUP2 MSTORE SWAP2 DUP2 MSTORE PUSH1 0x20 DUP3 ADD DUP1 MLOAD PUSH1 0x1 PUSH1 0x1 PUSH1 0xE0 SHL SUB AND PUSH1 0x1 PUSH1 0x1 PUSH1 0xE0 SHL SUB NOT SWAP1 SWAP5 AND SWAP4 SWAP1 SWAP4 OR SWAP1 SWAP3 MSTORE SWAP1 MLOAD PUSH2 0x127 SWAP2 SWAP1 PUSH2 0x34C JUMP JUMPDEST PUSH0 PUSH1 0x40 MLOAD DUP1 DUP4 SUB DUP2 DUP6 GAS STATICCALL SWAP2 POP POP RETURNDATASIZE DUP1 PUSH0 DUP2 EQ PUSH2 0x15F JUMPI PUSH1 0x40 MLOAD SWAP2 POP PUSH1 0x1F NOT PUSH1 0x3F RETURNDATASIZE ADD AND DUP3 ADD PUSH1 0x40 MSTORE RETURNDATASIZE DUP3 MSTORE RETURNDATASIZE PUSH0 PUSH1 0x20 DUP5 ADD RETURNDATACOPY PUSH2 0x164 JUMP JUMPDEST PUSH1 0x60 SWAP2 POP JUMPDEST POP SWAP1 SWAP10 SWAP1 SWAP9 POP SWAP7 POP POP POP POP POP POP POP JUMP JUMPDEST PUSH4 0x4E487B71 PUSH1 0xE0 SHL PUSH0 MSTORE PUSH1 0x41 PUSH1 0x4 MSTORE PUSH1 0x24 PUSH0 REVERT JUMPDEST PUSH0 DUP1 PUSH8 0xFFFFFFFFFFFFFFFF DUP5 GT ISZERO PUSH2 0x1A2 JUMPI PUSH2 0x1A2 PUSH2 0x174 JUMP JUMPDEST POP PUSH1 0x40 MLOAD PUSH1 0x1F NOT PUSH1 0x1F DUP6 ADD DUP2 AND PUSH1 0x3F ADD AND DUP2 ADD DUP2 DUP2 LT PUSH8 0xFFFFFFFFFFFFFFFF DUP3 GT OR ISZERO PUSH2 0x1D1 JUMPI PUSH2 0x1D1 PUSH2 0x174 JUMP JUMPDEST PUSH1 0x40 MSTORE DUP4 DUP2 MSTORE SWAP1 POP DUP1 DUP3 DUP5 ADD DUP6 LT ISZERO PUSH2 0x1E8 JUMPI PUSH0 DUP1 REVERT JUMPDEST DUP4 DUP4 PUSH1 0x20 DUP4 ADD CALLDATACOPY PUSH0 PUSH1 0x20 DUP6 DUP4 ADD ADD MSTORE POP SWAP4 SWAP3 POP POP POP JUMP JUMPDEST PUSH0 DUP3 PUSH1 0x1F DUP4 ADD SLT PUSH2 0x20E JUMPI PUSH0 DUP1 REVERT JUMPDEST PUSH2 0x21D DUP4 DUP4 CALLDATALOAD PUSH1 0x20 DUP6 ADD PUSH2 0x188 JUMP JUMPDEST SWAP4 SWAP3 POP POP POP JUMP JUMPDEST PUSH0 DUP1 PUSH0 PUSH1 0x60 DUP5 DUP7 SUB SLT ISZERO PUSH2 0x236 JUMPI PUSH0 DUP1 REVERT JUMPDEST DUP4 CALLDATALOAD PUSH1 0x1 PUSH1 0x1 PUSH1 0xA0 SHL SUB DUP2 AND DUP2 EQ PUSH2 0x24C JUMPI PUSH0 DUP1 REVERT JUMPDEST SWAP3 POP PUSH1 0x20 DUP5 ADD CALLDATALOAD PUSH8 0xFFFFFFFFFFFFFFFF DUP2 GT ISZERO PUSH2 0x267 JUMPI PUSH0 DUP1 REVERT JUMPDEST PUSH2 0x273 DUP7 DUP3 DUP8 ADD PUSH2 0x1FF JUMP JUMPDEST SWAP3 POP POP PUSH1 0x40 DUP5 ADD CALLDATALOAD PUSH8 0xFFFFFFFFFFFFFFFF DUP2 GT ISZERO PUSH2 0x28F JUMPI PUSH0 DUP1 REVERT JUMPDEST DUP5 ADD PUSH1 0x1F DUP2 ADD DUP7 SGT PUSH2 0x29F JUMPI PUSH0 DUP1 REVERT JUMPDEST PUSH2 0x2AE DUP7 DUP3 CALLDATALOAD PUSH1 0x20 DUP5 ADD PUSH2 0x188 JUMP JUMPDEST SWAP2 POP POP SWAP3 POP SWAP3 POP SWAP3 JUMP JUMPDEST PUSH0 DUP2 MLOAD DUP1 DUP5 MSTORE DUP1 PUSH1 0x20 DUP5 ADD PUSH1 0x20 DUP7 ADD MCOPY PUSH0 PUSH1 0x20 DUP3 DUP7 ADD ADD MSTORE PUSH1 0x20 PUSH1 0x1F NOT PUSH1 0x1F DUP4 ADD AND DUP6 ADD ADD SWAP2 POP POP SWAP3 SWAP2 POP POP JUMP JUMPDEST DUP3 ISZERO ISZERO DUP2 MSTORE PUSH1 0x40 PUSH1 0x20 DUP3 ADD MSTORE PUSH0 PUSH2 0x300 PUSH1 0x40 DUP4 ADD DUP5 PUSH2 0x2B8 JUMP JUMPDEST SWAP5 SWAP4 POP POP POP POP JUMP JUMPDEST PUSH0 PUSH1 0x20 DUP3 DUP5 SUB SLT ISZERO PUSH2 0x318 JUMPI PUSH0 DUP1 REVERT JUMPDEST DUP2 CALLDATALOAD PUSH8 0xFFFFFFFFFFFFFFFF DUP2 GT ISZERO PUSH2 0x32E JUMPI PUSH0 DUP1 REVERT JUMPDEST PUSH2 0x300 DUP5 DUP3 DUP6 ADD PUSH2 0x1FF JUMP JUMPDEST PUSH1 0x20 DUP2 MSTORE PUSH0 PUSH2 0x21D PUSH1 0x20 DUP4 ADD DUP5 PUSH2 0x2B8 JUMP JUMPDEST PUSH0 DUP3 MLOAD DUP1 PUSH1 0x20 DUP6 ADD DUP5 MCOPY PUSH0 SWAP3 ADD SWAP2 DUP3 MSTORE POP SWAP2 SWAP1 POP JUMP INVALID LOG2 PUSH5 0x6970667358 0x22 SLT KECCAK256 STATICCALL 0xE0 RETURN STOP 0x21 0xAE 0xAE 0xC9 RETURN 0x4C 0x26 PUSH4 0x20017EF8 0x1E DUP1 RETURNDATACOPY TIMESTAMP 0xB0 0xC9 CALLDATACOPY 0xA6 SWAP2 0x22 PUSH12 0xB6AB478FB864736F6C634300 ADDMOD BYTE STOP CALLER "
		},
		"gasEstimates": {
			"creation": {
				"codeDepositCost": "184000",
				"executionCost": "224",
				"totalCost": "184224"
			},
			"external": {
				"getSelector(string)": "infinite",
				"getTransferSelector()": "171",
				"staticCallFunction(address,string,bytes)": "infinite"
			}
		},
		"methodIdentifiers": {
			"getSelector(string)": "80a003ff",
			"getTransferSelector()": "2ebfada2",
			"staticCallFunction(address,string,bytes)": "5502affb"
		}
	},
	"abi": [
		{
			"inputs": [
				{
					"internalType": "string",
					"name": "functionSignature",
					"type": "string"
				}
			],
			"name": "getSelector",
			"outputs": [
				{
					"internalType": "bytes4",
					"name": "",
					"type": "bytes4"
				}
			],
			"stateMutability": "pure",
			"type": "function"
		},
		{
			"inputs": [],
			"name": "getTransferSelector",
			"outputs": [
				{
					"internalType": "bytes4",
					"name": "",
					"type": "bytes4"
				}
			],
			"stateMutability": "pure",
			"type": "function"
		},
		{
			"inputs": [
				{
					"internalType": "address",
					"name": "target",
					"type": "address"
				},
				{
					"internalType": "string",
					"name": "functionSignature",
					"type": "string"
				},
				{
					"internalType": "bytes",
					"name": "data",
					"type": "bytes"
				}
			],
			"name": "staticCallFunction",
			"outputs": [
				{
					"internalType": "bool",
					"name": "",
					"type": "bool"
				},
				{
					"internalType": "bytes",
					"name": "",
					"type": "bytes"
				}
			],
			"stateMutability": "view",
			"type": "function"
		}
	]
}