{
	"solidity07/EncodeExample.sol": {
		"EncodeExample": {
			"abi": [
				{
					"inputs": [
						{
							"internalType": "uint256",
							"name": "a",
							"type": "uint256"
						},
						{
							"internalType": "string",
							"name": "b",
							"type": "string"
						}
					],
					"name": "encodeData",
					"outputs": [
						{
							"internalType": "bytes",
							"name": "",
							"type": "bytes"
						}
					],
					"stateMutability": "pure",
					"type": "function"
				}
			],
			"devdoc": {
				"kind": "dev",
				"methods": {},
				"version": 1
			},
			"evm": {
				"assembly": "    /* \"solidity07/EncodeExample.sol\":25:176  contract EncodeExample {... */\n  mstore(0x40, 0x80)\n  callvalue\n  dup1\n  iszero\n  tag_1\n  jumpi\n  0x00\n  dup1\n  revert\ntag_1:\n  pop\n  dataSize(sub_0)\n  dup1\n  dataOffset(sub_0)\n  0x00\n  codecopy\n  0x00\n  return\nstop\n\nsub_0: assembly {\n        /* \"solidity07/EncodeExample.sol\":25:176  contract EncodeExample {... */\n      mstore(0x40, 0x80)\n      callvalue\n      dup1\n      iszero\n      tag_1\n      jumpi\n      0x00\n      dup1\n      revert\n    tag_1:\n      pop\n      jumpi(tag_2, lt(calldatasize, 0x04))\n      shr(0xe0, calldataload(0x00))\n      dup1\n      0x42a6e672\n      eq\n      tag_3\n      jumpi\n    tag_2:\n      0x00\n      dup1\n      revert\n        /* \"solidity07/EncodeExample.sol\":54:174  function encodeData(uint a, string memory b) public pure returns (bytes memory) {... */\n    tag_3:\n      tag_4\n      tag_5\n      calldatasize\n      0x04\n      tag_6\n      jump\t// in\n    tag_5:\n      tag_7\n      jump\t// in\n    tag_4:\n      mload(0x40)\n      tag_8\n      swap2\n      swap1\n      tag_9\n      jump\t// in\n    tag_8:\n      mload(0x40)\n      dup1\n      swap2\n      sub\n      swap1\n      return\n    tag_7:\n        /* \"solidity07/EncodeExample.sol\":120:132  bytes memory */\n      0x60\n        /* \"solidity07/EncodeExample.sol\":162:163  a */\n      dup3\n        /* \"solidity07/EncodeExample.sol\":165:166  b */\n      dup3\n        /* \"solidity07/EncodeExample.sol\":151:167  abi.encode(a, b) */\n      add(0x20, mload(0x40))\n      tag_11\n      swap3\n      swap2\n      swap1\n      tag_12\n      jump\t// in\n    tag_11:\n      mload(0x40)\n      0x20\n      dup2\n      dup4\n      sub\n      sub\n      dup2\n      mstore\n      swap1\n      0x40\n      mstore\n        /* \"solidity07/EncodeExample.sol\":144:167  return abi.encode(a, b) */\n      swap1\n      pop\n        /* \"solidity07/EncodeExample.sol\":54:174  function encodeData(uint a, string memory b) public pure returns (bytes memory) {... */\n      swap3\n      swap2\n      pop\n      pop\n      jump\t// out\n        /* \"#utility.yul\":14:141   */\n    tag_13:\n        /* \"#utility.yul\":75:85   */\n      0x4e487b71\n        /* \"#utility.yul\":70:73   */\n      0xe0\n        /* \"#utility.yul\":66:86   */\n      shl\n        /* \"#utility.yul\":63:64   */\n      0x00\n        /* \"#utility.yul\":56:87   */\n      mstore\n        /* \"#utility.yul\":106:110   */\n      0x41\n        /* \"#utility.yul\":103:104   */\n      0x04\n        /* \"#utility.yul\":96:111   */\n      mstore\n        /* \"#utility.yul\":130:134   */\n      0x24\n        /* \"#utility.yul\":127:128   */\n      0x00\n        /* \"#utility.yul\":120:135   */\n      revert\n        /* \"#utility.yul\":146:1159   */\n    tag_6:\n        /* \"#utility.yul\":224:230   */\n      0x00\n        /* \"#utility.yul\":232:238   */\n      dup1\n        /* \"#utility.yul\":285:287   */\n      0x40\n        /* \"#utility.yul\":273:282   */\n      dup4\n        /* \"#utility.yul\":264:271   */\n      dup6\n        /* \"#utility.yul\":260:283   */\n      sub\n        /* \"#utility.yul\":256:288   */\n      slt\n        /* \"#utility.yul\":253:305   */\n      iszero\n      tag_18\n      jumpi\n        /* \"#utility.yul\":301:302   */\n      0x00\n        /* \"#utility.yul\":298:299   */\n      dup1\n        /* \"#utility.yul\":291:303   */\n      revert\n        /* \"#utility.yul\":253:305   */\n    tag_18:\n        /* \"#utility.yul\":337:346   */\n      dup3\n        /* \"#utility.yul\":324:347   */\n      calldataload\n        /* \"#utility.yul\":314:347   */\n      swap2\n      pop\n        /* \"#utility.yul\":398:400   */\n      0x20\n        /* \"#utility.yul\":387:396   */\n      dup4\n        /* \"#utility.yul\":383:401   */\n      add\n        /* \"#utility.yul\":370:402   */\n      calldataload\n        /* \"#utility.yul\":425:443   */\n      0xffffffffffffffff\n        /* \"#utility.yul\":417:423   */\n      dup2\n        /* \"#utility.yul\":414:444   */\n      gt\n        /* \"#utility.yul\":411:461   */\n      iszero\n      tag_19\n      jumpi\n        /* \"#utility.yul\":457:458   */\n      0x00\n        /* \"#utility.yul\":454:455   */\n      dup1\n        /* \"#utility.yul\":447:459   */\n      revert\n        /* \"#utility.yul\":411:461   */\n    tag_19:\n        /* \"#utility.yul\":480:502   */\n      dup4\n      add\n        /* \"#utility.yul\":533:537   */\n      0x1f\n        /* \"#utility.yul\":525:538   */\n      dup2\n      add\n        /* \"#utility.yul\":521:548   */\n      dup6\n      sgt\n        /* \"#utility.yul\":511:566   */\n      tag_20\n      jumpi\n        /* \"#utility.yul\":562:563   */\n      0x00\n        /* \"#utility.yul\":559:560   */\n      dup1\n        /* \"#utility.yul\":552:564   */\n      revert\n        /* \"#utility.yul\":511:566   */\n    tag_20:\n        /* \"#utility.yul\":602:604   */\n      dup1\n        /* \"#utility.yul\":589:605   */\n      calldataload\n        /* \"#utility.yul\":628:646   */\n      0xffffffffffffffff\n        /* \"#utility.yul\":620:626   */\n      dup2\n        /* \"#utility.yul\":617:647   */\n      gt\n        /* \"#utility.yul\":614:670   */\n      iszero\n      tag_22\n      jumpi\n        /* \"#utility.yul\":650:668   */\n      tag_22\n      tag_13\n      jump\t// in\n    tag_22:\n        /* \"#utility.yul\":699:701   */\n      0x40\n        /* \"#utility.yul\":693:702   */\n      mload\n        /* \"#utility.yul\":791:793   */\n      0x1f\n        /* \"#utility.yul\":753:770   */\n      dup3\n      add\n      not(0x1f)\n        /* \"#utility.yul\":749:780   */\n      swap1\n      dup2\n      and\n        /* \"#utility.yul\":782:784   */\n      0x3f\n        /* \"#utility.yul\":745:785   */\n      add\n        /* \"#utility.yul\":741:795   */\n      and\n        /* \"#utility.yul\":729:796   */\n      dup2\n      add\n        /* \"#utility.yul\":826:844   */\n      0xffffffffffffffff\n        /* \"#utility.yul\":811:845   */\n      dup2\n      gt\n        /* \"#utility.yul\":847:869   */\n      dup3\n      dup3\n      lt\n        /* \"#utility.yul\":808:870   */\n      or\n        /* \"#utility.yul\":805:893   */\n      iszero\n      tag_24\n      jumpi\n        /* \"#utility.yul\":873:891   */\n      tag_24\n      tag_13\n      jump\t// in\n    tag_24:\n        /* \"#utility.yul\":909:911   */\n      0x40\n        /* \"#utility.yul\":902:924   */\n      mstore\n        /* \"#utility.yul\":933:955   */\n      dup2\n      dup2\n      mstore\n        /* \"#utility.yul\":974:989   */\n      dup3\n      dup3\n      add\n        /* \"#utility.yul\":991:993   */\n      0x20\n        /* \"#utility.yul\":970:994   */\n      add\n        /* \"#utility.yul\":967:1004   */\n      dup8\n      lt\n        /* \"#utility.yul\":964:1021   */\n      iszero\n      tag_25\n      jumpi\n        /* \"#utility.yul\":1017:1018   */\n      0x00\n        /* \"#utility.yul\":1014:1015   */\n      dup1\n        /* \"#utility.yul\":1007:1019   */\n      revert\n        /* \"#utility.yul\":964:1021   */\n    tag_25:\n        /* \"#utility.yul\":1073:1079   */\n      dup2\n        /* \"#utility.yul\":1068:1070   */\n      0x20\n        /* \"#utility.yul\":1064:1066   */\n      dup5\n        /* \"#utility.yul\":1060:1071   */\n      add\n        /* \"#utility.yul\":1055:1057   */\n      0x20\n        /* \"#utility.yul\":1047:1053   */\n      dup4\n        /* \"#utility.yul\":1043:1058   */\n      add\n        /* \"#utility.yul\":1030:1080   */\n      calldatacopy\n        /* \"#utility.yul\":1126:1127   */\n      0x00\n        /* \"#utility.yul\":1121:1123   */\n      0x20\n        /* \"#utility.yul\":1112:1118   */\n      dup4\n        /* \"#utility.yul\":1104:1110   */\n      dup4\n        /* \"#utility.yul\":1100:1119   */\n      add\n        /* \"#utility.yul\":1096:1124   */\n      add\n        /* \"#utility.yul\":1089:1128   */\n      mstore\n        /* \"#utility.yul\":1147:1153   */\n      dup1\n        /* \"#utility.yul\":1137:1153   */\n      swap4\n      pop\n      pop\n      pop\n      pop\n        /* \"#utility.yul\":146:1159   */\n      swap3\n      pop\n      swap3\n      swap1\n      pop\n      jump\t// out\n        /* \"#utility.yul\":1164:1452   */\n    tag_14:\n        /* \"#utility.yul\":1205:1208   */\n      0x00\n        /* \"#utility.yul\":1243:1248   */\n      dup2\n        /* \"#utility.yul\":1237:1249   */\n      mload\n        /* \"#utility.yul\":1270:1276   */\n      dup1\n        /* \"#utility.yul\":1265:1268   */\n      dup5\n        /* \"#utility.yul\":1258:1277   */\n      mstore\n        /* \"#utility.yul\":1326:1332   */\n      dup1\n        /* \"#utility.yul\":1319:1323   */\n      0x20\n        /* \"#utility.yul\":1312:1317   */\n      dup5\n        /* \"#utility.yul\":1308:1324   */\n      add\n        /* \"#utility.yul\":1301:1305   */\n      0x20\n        /* \"#utility.yul\":1296:1299   */\n      dup7\n        /* \"#utility.yul\":1292:1306   */\n      add\n        /* \"#utility.yul\":1286:1333   */\n      mcopy\n        /* \"#utility.yul\":1378:1379   */\n      0x00\n        /* \"#utility.yul\":1371:1375   */\n      0x20\n        /* \"#utility.yul\":1362:1368   */\n      dup3\n        /* \"#utility.yul\":1357:1360   */\n      dup7\n        /* \"#utility.yul\":1353:1369   */\n      add\n        /* \"#utility.yul\":1349:1376   */\n      add\n        /* \"#utility.yul\":1342:1380   */\n      mstore\n        /* \"#utility.yul\":1441:1445   */\n      0x20\n        /* \"#utility.yul\":1434:1436   */\n      0x1f\n        /* \"#utility.yul\":1430:1437   */\n      not\n        /* \"#utility.yul\":1425:1427   */\n      0x1f\n        /* \"#utility.yul\":1417:1423   */\n      dup4\n        /* \"#utility.yul\":1413:1428   */\n      add\n        /* \"#utility.yul\":1409:1438   */\n      and\n        /* \"#utility.yul\":1404:1407   */\n      dup6\n        /* \"#utility.yul\":1400:1439   */\n      add\n        /* \"#utility.yul\":1396:1446   */\n      add\n        /* \"#utility.yul\":1389:1446   */\n      swap2\n      pop\n      pop\n        /* \"#utility.yul\":1164:1452   */\n      swap3\n      swap2\n      pop\n      pop\n      jump\t// out\n        /* \"#utility.yul\":1457:1674   */\n    tag_9:\n        /* \"#utility.yul\":1604:1606   */\n      0x20\n        /* \"#utility.yul\":1593:1602   */\n      dup2\n        /* \"#utility.yul\":1586:1607   */\n      mstore\n        /* \"#utility.yul\":1567:1571   */\n      0x00\n        /* \"#utility.yul\":1624:1668   */\n      tag_28\n        /* \"#utility.yul\":1664:1666   */\n      0x20\n        /* \"#utility.yul\":1653:1662   */\n      dup4\n        /* \"#utility.yul\":1649:1667   */\n      add\n        /* \"#utility.yul\":1641:1647   */\n      dup5\n        /* \"#utility.yul\":1624:1668   */\n      tag_14\n      jump\t// in\n    tag_28:\n        /* \"#utility.yul\":1616:1668   */\n      swap4\n        /* \"#utility.yul\":1457:1674   */\n      swap3\n      pop\n      pop\n      pop\n      jump\t// out\n        /* \"#utility.yul\":1679:1969   */\n    tag_12:\n        /* \"#utility.yul\":1856:1862   */\n      dup3\n        /* \"#utility.yul\":1845:1854   */\n      dup2\n        /* \"#utility.yul\":1838:1863   */\n      mstore\n        /* \"#utility.yul\":1899:1901   */\n      0x40\n        /* \"#utility.yul\":1894:1896   */\n      0x20\n        /* \"#utility.yul\":1883:1892   */\n      dup3\n        /* \"#utility.yul\":1879:1897   */\n      add\n        /* \"#utility.yul\":1872:1902   */\n      mstore\n        /* \"#utility.yul\":1819:1823   */\n      0x00\n        /* \"#utility.yul\":1919:1963   */\n      tag_30\n        /* \"#utility.yul\":1959:1961   */\n      0x40\n        /* \"#utility.yul\":1948:1957   */\n      dup4\n        /* \"#utility.yul\":1944:1962   */\n      add\n        /* \"#utility.yul\":1936:1942   */\n      dup5\n        /* \"#utility.yul\":1919:1963   */\n      tag_14\n      jump\t// in\n    tag_30:\n        /* \"#utility.yul\":1911:1963   */\n      swap5\n        /* \"#utility.yul\":1679:1969   */\n      swap4\n      pop\n      pop\n      pop\n      pop\n      jump\t// out\n\n    auxdata: 0xa26469706673582212203cff072f40606345ae83a02f2a56e364db49f89096689f74141855e93df3bab064736f6c634300081a0033\n}\n",
				"bytecode": {
					"linkReferences": {},
					"object": "6080604052348015600e575f80fd5b506101f08061001c5f395ff3fe608060405234801561000f575f80fd5b5060043610610029575f3560e01c806342a6e6721461002d575b5f80fd5b61004061003b366004610096565b610056565b60405161004d9190610181565b60405180910390f35b6060828260405160200161006b92919061019a565b604051602081830303815290604052905092915050565b634e487b7160e01b5f52604160045260245ffd5b5f80604083850312156100a7575f80fd5b82359150602083013567ffffffffffffffff8111156100c4575f80fd5b8301601f810185136100d4575f80fd5b803567ffffffffffffffff8111156100ee576100ee610082565b604051601f8201601f19908116603f0116810167ffffffffffffffff8111828210171561011d5761011d610082565b604052818152828201602001871015610134575f80fd5b816020840160208301375f602083830101528093505050509250929050565b5f81518084528060208401602086015e5f602082860101526020601f19601f83011685010191505092915050565b602081525f6101936020830184610153565b9392505050565b828152604060208201525f6101b26040830184610153565b94935050505056fea26469706673582212203cff072f40606345ae83a02f2a56e364db49f89096689f74141855e93df3bab064736f6c634300081a0033",
					"opcodes": "PUSH1 0x80 PUSH1 0x40 MSTORE CALLVALUE DUP1 ISZERO PUSH1 0xE JUMPI PUSH0 DUP1 REVERT JUMPDEST POP PUSH2 0x1F0 DUP1 PUSH2 0x1C PUSH0 CODECOPY PUSH0 RETURN INVALID PUSH1 0x80 PUSH1 0x40 MSTORE CALLVALUE DUP1 ISZERO PUSH2 0xF JUMPI PUSH0 DUP1 REVERT JUMPDEST POP PUSH1 0x4 CALLDATASIZE LT PUSH2 0x29 JUMPI PUSH0 CALLDATALOAD PUSH1 0xE0 SHR DUP1 PUSH4 0x42A6E672 EQ PUSH2 0x2D JUMPI JUMPDEST PUSH0 DUP1 REVERT JUMPDEST PUSH2 0x40 PUSH2 0x3B CALLDATASIZE PUSH1 0x4 PUSH2 0x96 JUMP JUMPDEST PUSH2 0x56 JUMP JUMPDEST PUSH1 0x40 MLOAD PUSH2 0x4D SWAP2 SWAP1 PUSH2 0x181 JUMP JUMPDEST PUSH1 0x40 MLOAD DUP1 SWAP2 SUB SWAP1 RETURN JUMPDEST PUSH1 0x60 DUP3 DUP3 PUSH1 0x40 MLOAD PUSH1 0x20 ADD PUSH2 0x6B SWAP3 SWAP2 SWAP1 PUSH2 0x19A JUMP JUMPDEST PUSH1 0x40 MLOAD PUSH1 0x20 DUP2 DUP4 SUB SUB DUP2 MSTORE SWAP1 PUSH1 0x40 MSTORE SWAP1 POP SWAP3 SWAP2 POP POP JUMP JUMPDEST PUSH4 0x4E487B71 PUSH1 0xE0 SHL PUSH0 MSTORE PUSH1 0x41 PUSH1 0x4 MSTORE PUSH1 0x24 PUSH0 REVERT JUMPDEST PUSH0 DUP1 PUSH1 0x40 DUP4 DUP6 SUB SLT ISZERO PUSH2 0xA7 JUMPI PUSH0 DUP1 REVERT JUMPDEST DUP3 CALLDATALOAD SWAP2 POP PUSH1 0x20 DUP4 ADD CALLDATALOAD PUSH8 0xFFFFFFFFFFFFFFFF DUP2 GT ISZERO PUSH2 0xC4 JUMPI PUSH0 DUP1 REVERT JUMPDEST DUP4 ADD PUSH1 0x1F DUP2 ADD DUP6 SGT PUSH2 0xD4 JUMPI PUSH0 DUP1 REVERT JUMPDEST DUP1 CALLDATALOAD PUSH8 0xFFFFFFFFFFFFFFFF DUP2 GT ISZERO PUSH2 0xEE JUMPI PUSH2 0xEE PUSH2 0x82 JUMP JUMPDEST PUSH1 0x40 MLOAD PUSH1 0x1F DUP3 ADD PUSH1 0x1F NOT SWAP1 DUP2 AND PUSH1 0x3F ADD AND DUP2 ADD PUSH8 0xFFFFFFFFFFFFFFFF DUP2 GT DUP3 DUP3 LT OR ISZERO PUSH2 0x11D JUMPI PUSH2 0x11D PUSH2 0x82 JUMP JUMPDEST PUSH1 0x40 MSTORE DUP2 DUP2 MSTORE DUP3 DUP3 ADD PUSH1 0x20 ADD DUP8 LT ISZERO PUSH2 0x134 JUMPI PUSH0 DUP1 REVERT JUMPDEST DUP2 PUSH1 0x20 DUP5 ADD PUSH1 0x20 DUP4 ADD CALLDATACOPY PUSH0 PUSH1 0x20 DUP4 DUP4 ADD ADD MSTORE DUP1 SWAP4 POP POP POP POP SWAP3 POP SWAP3 SWAP1 POP JUMP JUMPDEST PUSH0 DUP2 MLOAD DUP1 DUP5 MSTORE DUP1 PUSH1 0x20 DUP5 ADD PUSH1 0x20 DUP7 ADD MCOPY PUSH0 PUSH1 0x20 DUP3 DUP7 ADD ADD MSTORE PUSH1 0x20 PUSH1 0x1F NOT PUSH1 0x1F DUP4 ADD AND DUP6 ADD ADD SWAP2 POP POP SWAP3 SWAP2 POP POP JUMP JUMPDEST PUSH1 0x20 DUP2 MSTORE PUSH0 PUSH2 0x193 PUSH1 0x20 DUP4 ADD DUP5 PUSH2 0x153 JUMP JUMPDEST SWAP4 SWAP3 POP POP POP JUMP JUMPDEST DUP3 DUP2 MSTORE PUSH1 0x40 PUSH1 0x20 DUP3 ADD MSTORE PUSH0 PUSH2 0x1B2 PUSH1 0x40 DUP4 ADD DUP5 PUSH2 0x153 JUMP JUMPDEST SWAP5 SWAP4 POP POP POP POP JUMP INVALID LOG2 PUSH5 0x6970667358 0x22 SLT KECCAK256 EXTCODECOPY SELFDESTRUCT SMOD 0x2F BLOCKHASH PUSH1 0x63 GASLIMIT 0xAE DUP4 LOG0 0x2F 0x2A JUMP 0xE3 PUSH5 0xDB49F89096 PUSH9 0x9F74141855E93DF3BA 0xB0 PUSH5 0x736F6C6343 STOP ADDMOD BYTE STOP CALLER "
				},
				"gasEstimates": {
					"creation": {
						"codeDepositCost": "99200",
						"executionCost": "145",
						"totalCost": "99345"
					},
					"external": {
						"encodeData(uint256,string)": "infinite"
					}
				},
				"methodIdentifiers": {
					"encodeData(uint256,string)": "42a6e672"
				}
			},
			"storageLayout": {
				"storage": [],
				"types": null
			},
			"userdoc": {
				"kind": "user",
				"methods": {},
				"version": 1
			}
		}
	}
}