{
	"contracts/10IfAndElse.sol": {
		"IfElse": {
			"abi": [
				{
					"inputs": [
						{
							"internalType": "uint256",
							"name": "x",
							"type": "uint256"
						}
					],
					"name": "foo",
					"outputs": [
						{
							"internalType": "uint256",
							"name": "",
							"type": "uint256"
						}
					],
					"stateMutability": "pure",
					"type": "function"
				},
				{
					"inputs": [
						{
							"internalType": "uint256",
							"name": "_x",
							"type": "uint256"
						}
					],
					"name": "ternary",
					"outputs": [
						{
							"internalType": "uint256",
							"name": "",
							"type": "uint256"
						}
					],
					"stateMutability": "pure",
					"type": "function"
				}
			],
			"devdoc": {
				"kind": "dev",
				"methods": {},
				"version": 1
			},
			"evm": {
				"assembly": "    /* \"contracts/10IfAndElse.sol\":58:590  contract IfElse {... */\n  mstore(0x40, 0x80)\n  callvalue\n  dup1\n  iszero\n  tag_1\n  jumpi\n  0x00\n  dup1\n  revert\ntag_1:\n  pop\n  dataSize(sub_0)\n  dup1\n  dataOffset(sub_0)\n  0x00\n  codecopy\n  0x00\n  return\nstop\n\nsub_0: assembly {\n        /* \"contracts/10IfAndElse.sol\":58:590  contract IfElse {... */\n      mstore(0x40, 0x80)\n      callvalue\n      dup1\n      iszero\n      tag_1\n      jumpi\n      0x00\n      dup1\n      revert\n    tag_1:\n      pop\n      jumpi(tag_2, lt(calldatasize, 0x04))\n      shr(0xe0, calldataload(0x00))\n      dup1\n      0x2fbebd38\n      eq\n      tag_3\n      jumpi\n      dup1\n      0x55278c5b\n      eq\n      tag_4\n      jumpi\n    tag_2:\n      0x00\n      dup1\n      revert\n        /* \"contracts/10IfAndElse.sol\":80:285  function foo(uint256 x) public pure returns (uint256) {... */\n    tag_3:\n      tag_5\n      tag_6\n      calldatasize\n      0x04\n      tag_7\n      jump\t// in\n    tag_6:\n      tag_8\n      jump\t// in\n    tag_5:\n      mload(0x40)\n        /* \"#utility.yul\":345:370   */\n      swap1\n      dup2\n      mstore\n        /* \"#utility.yul\":333:335   */\n      0x20\n        /* \"#utility.yul\":318:336   */\n      add\n        /* \"contracts/10IfAndElse.sol\":80:285  function foo(uint256 x) public pure returns (uint256) {... */\n      mload(0x40)\n      dup1\n      swap2\n      sub\n      swap1\n      return\n        /* \"contracts/10IfAndElse.sol\":291:588  function ternary(uint256 _x) public pure returns (uint256) {... */\n    tag_4:\n      tag_5\n      tag_12\n      calldatasize\n      0x04\n      tag_7\n      jump\t// in\n    tag_12:\n      tag_13\n      jump\t// in\n        /* \"contracts/10IfAndElse.sol\":80:285  function foo(uint256 x) public pure returns (uint256) {... */\n    tag_8:\n        /* \"contracts/10IfAndElse.sol\":125:132  uint256 */\n      0x00\n        /* \"contracts/10IfAndElse.sol\":152:154  10 */\n      0x0a\n        /* \"contracts/10IfAndElse.sol\":148:149  x */\n      dup3\n        /* \"contracts/10IfAndElse.sol\":148:154  x < 10 */\n      lt\n        /* \"contracts/10IfAndElse.sol\":144:279  if (x < 10) {... */\n      iszero\n      tag_16\n      jumpi\n      pop\n        /* \"contracts/10IfAndElse.sol\":177:178  0 */\n      0x00\n      swap2\n        /* \"contracts/10IfAndElse.sol\":80:285  function foo(uint256 x) public pure returns (uint256) {... */\n      swap1\n      pop\n      jump\t// out\n        /* \"contracts/10IfAndElse.sol\":144:279  if (x < 10) {... */\n    tag_16:\n        /* \"contracts/10IfAndElse.sol\":203:205  20 */\n      0x14\n        /* \"contracts/10IfAndElse.sol\":199:200  x */\n      dup3\n        /* \"contracts/10IfAndElse.sol\":199:205  x < 20 */\n      lt\n        /* \"contracts/10IfAndElse.sol\":195:279  if (x < 20) {... */\n      iszero\n      tag_18\n      jumpi\n      pop\n        /* \"contracts/10IfAndElse.sol\":228:229  1 */\n      0x01\n      swap2\n        /* \"contracts/10IfAndElse.sol\":80:285  function foo(uint256 x) public pure returns (uint256) {... */\n      swap1\n      pop\n      jump\t// out\n        /* \"contracts/10IfAndElse.sol\":195:279  if (x < 20) {... */\n    tag_18:\n      pop\n        /* \"contracts/10IfAndElse.sol\":267:268  2 */\n      0x02\n      swap2\n        /* \"contracts/10IfAndElse.sol\":80:285  function foo(uint256 x) public pure returns (uint256) {... */\n      swap1\n      pop\n      jump\t// out\n        /* \"contracts/10IfAndElse.sol\":291:588  function ternary(uint256 _x) public pure returns (uint256) {... */\n    tag_13:\n        /* \"contracts/10IfAndElse.sol\":341:348  uint256 */\n      0x00\n        /* \"contracts/10IfAndElse.sol\":571:573  10 */\n      0x0a\n        /* \"contracts/10IfAndElse.sol\":566:568  _x */\n      dup3\n        /* \"contracts/10IfAndElse.sol\":566:573  _x < 10 */\n      lt\n        /* \"contracts/10IfAndElse.sol\":566:581  _x < 10 ? 1 : 2 */\n      tag_21\n      jumpi\n        /* \"contracts/10IfAndElse.sol\":580:581  2 */\n      0x02\n        /* \"contracts/10IfAndElse.sol\":566:581  _x < 10 ? 1 : 2 */\n      jump(tag_22)\n    tag_21:\n        /* \"contracts/10IfAndElse.sol\":576:577  1 */\n      0x01\n        /* \"contracts/10IfAndElse.sol\":566:581  _x < 10 ? 1 : 2 */\n    tag_22:\n        /* \"contracts/10IfAndElse.sol\":559:581  return _x < 10 ? 1 : 2 */\n      0xff\n      and\n      swap3\n        /* \"contracts/10IfAndElse.sol\":291:588  function ternary(uint256 _x) public pure returns (uint256) {... */\n      swap2\n      pop\n      pop\n      jump\t// out\n        /* \"#utility.yul\":14:194   */\n    tag_7:\n        /* \"#utility.yul\":73:79   */\n      0x00\n        /* \"#utility.yul\":126:128   */\n      0x20\n        /* \"#utility.yul\":114:123   */\n      dup3\n        /* \"#utility.yul\":105:112   */\n      dup5\n        /* \"#utility.yul\":101:124   */\n      sub\n        /* \"#utility.yul\":97:129   */\n      slt\n        /* \"#utility.yul\":94:146   */\n      iszero\n      tag_25\n      jumpi\n        /* \"#utility.yul\":142:143   */\n      0x00\n        /* \"#utility.yul\":139:140   */\n      dup1\n        /* \"#utility.yul\":132:144   */\n      revert\n        /* \"#utility.yul\":94:146   */\n    tag_25:\n      pop\n        /* \"#utility.yul\":165:188   */\n      calldataload\n      swap2\n        /* \"#utility.yul\":14:194   */\n      swap1\n      pop\n      jump\t// out\n\n    auxdata: 0xa2646970667358221220f294a1e69d4a2e2154ac448d04db981ccda6267ab7b0c77e280325787f82117764736f6c634300081a0033\n}\n",
				"bytecode": {
					"linkReferences": {},
					"object": "6080604052348015600e575f80fd5b5060f28061001b5f395ff3fe6080604052348015600e575f80fd5b50600436106030575f3560e01c80632fbebd3814603457806355278c5b146055575b5f80fd5b6043603f36600460a6565b6064565b60405190815260200160405180910390f35b6043606036600460a6565b608c565b5f600a821015607457505f919050565b6014821015608457506001919050565b506002919050565b5f600a8210609a576002609d565b60015b60ff1692915050565b5f6020828403121560b5575f80fd5b503591905056fea2646970667358221220f294a1e69d4a2e2154ac448d04db981ccda6267ab7b0c77e280325787f82117764736f6c634300081a0033",
					"opcodes": "PUSH1 0x80 PUSH1 0x40 MSTORE CALLVALUE DUP1 ISZERO PUSH1 0xE JUMPI PUSH0 DUP1 REVERT JUMPDEST POP PUSH1 0xF2 DUP1 PUSH2 0x1B PUSH0 CODECOPY PUSH0 RETURN INVALID PUSH1 0x80 PUSH1 0x40 MSTORE CALLVALUE DUP1 ISZERO PUSH1 0xE JUMPI PUSH0 DUP1 REVERT JUMPDEST POP PUSH1 0x4 CALLDATASIZE LT PUSH1 0x30 JUMPI PUSH0 CALLDATALOAD PUSH1 0xE0 SHR DUP1 PUSH4 0x2FBEBD38 EQ PUSH1 0x34 JUMPI DUP1 PUSH4 0x55278C5B EQ PUSH1 0x55 JUMPI JUMPDEST PUSH0 DUP1 REVERT JUMPDEST PUSH1 0x43 PUSH1 0x3F CALLDATASIZE PUSH1 0x4 PUSH1 0xA6 JUMP JUMPDEST PUSH1 0x64 JUMP JUMPDEST PUSH1 0x40 MLOAD SWAP1 DUP2 MSTORE PUSH1 0x20 ADD PUSH1 0x40 MLOAD DUP1 SWAP2 SUB SWAP1 RETURN JUMPDEST PUSH1 0x43 PUSH1 0x60 CALLDATASIZE PUSH1 0x4 PUSH1 0xA6 JUMP JUMPDEST PUSH1 0x8C JUMP JUMPDEST PUSH0 PUSH1 0xA DUP3 LT ISZERO PUSH1 0x74 JUMPI POP PUSH0 SWAP2 SWAP1 POP JUMP JUMPDEST PUSH1 0x14 DUP3 LT ISZERO PUSH1 0x84 JUMPI POP PUSH1 0x1 SWAP2 SWAP1 POP JUMP JUMPDEST POP PUSH1 0x2 SWAP2 SWAP1 POP JUMP JUMPDEST PUSH0 PUSH1 0xA DUP3 LT PUSH1 0x9A JUMPI PUSH1 0x2 PUSH1 0x9D JUMP JUMPDEST PUSH1 0x1 JUMPDEST PUSH1 0xFF AND SWAP3 SWAP2 POP POP JUMP JUMPDEST PUSH0 PUSH1 0x20 DUP3 DUP5 SUB SLT ISZERO PUSH1 0xB5 JUMPI PUSH0 DUP1 REVERT JUMPDEST POP CALLDATALOAD SWAP2 SWAP1 POP JUMP INVALID LOG2 PUSH5 0x6970667358 0x22 SLT KECCAK256 CALLCODE SWAP5 LOG1 0xE6 SWAP14 BLOBBASEFEE 0x2E 0x21 SLOAD 0xAC PREVRANDAO DUP14 DIV 0xDB SWAP9 SHR 0xCD 0xA6 0x26 PUSH27 0xB7B0C77E280325787F82117764736F6C634300081A003300000000 "
				},
				"gasEstimates": {
					"creation": {
						"codeDepositCost": "48400",
						"executionCost": "97",
						"totalCost": "48497"
					},
					"external": {
						"foo(uint256)": "309",
						"ternary(uint256)": "319"
					}
				},
				"methodIdentifiers": {
					"foo(uint256)": "2fbebd38",
					"ternary(uint256)": "55278c5b"
				}
			},
			"storageLayout": {
				"storage": [],
				"types": null
			},
			"userdoc": {
				"kind": "user",
				"methods": {},
				"version": 1
			}
		}
	}
}