{
	"contracts/IterableMapping.sol": {
		"IterableMapping": {
			"abi": [
				{
					"inputs": [
						{
							"internalType": "address",
							"name": "_key",
							"type": "address"
						},
						{
							"internalType": "uint256",
							"name": "_value",
							"type": "uint256"
						}
					],
					"name": "add",
					"outputs": [],
					"stateMutability": "nonpayable",
					"type": "function"
				},
				{
					"inputs": [
						{
							"internalType": "address",
							"name": "_key",
							"type": "address"
						}
					],
					"name": "get",
					"outputs": [
						{
							"internalType": "uint256",
							"name": "",
							"type": "uint256"
						}
					],
					"stateMutability": "view",
					"type": "function"
				},
				{
					"inputs": [],
					"name": "getAll",
					"outputs": [
						{
							"internalType": "address[]",
							"name": "",
							"type": "address[]"
						},
						{
							"internalType": "uint256[]",
							"name": "",
							"type": "uint256[]"
						}
					],
					"stateMutability": "view",
					"type": "function"
				},
				{
					"inputs": [],
					"name": "getAllKeys",
					"outputs": [
						{
							"internalType": "address[]",
							"name": "",
							"type": "address[]"
						}
					],
					"stateMutability": "view",
					"type": "function"
				},
				{
					"inputs": [
						{
							"internalType": "address",
							"name": "_key",
							"type": "address"
						}
					],
					"name": "remove",
					"outputs": [],
					"stateMutability": "nonpayable",
					"type": "function"
				}
			],
			"devdoc": {
				"kind": "dev",
				"methods": {},
				"version": 1
			},
			"evm": {
				"assembly": "    /* \"contracts/IterableMapping.sol\":58:1649  contract IterableMapping {... */\n  mstore(0x40, 0x80)\n  callvalue\n  dup1\n  iszero\n  tag_1\n  jumpi\n  0x00\n  dup1\n  revert\ntag_1:\n  pop\n  dataSize(sub_0)\n  dup1\n  dataOffset(sub_0)\n  0x00\n  codecopy\n  0x00\n  return\nstop\n\nsub_0: assembly {\n        /* \"contracts/IterableMapping.sol\":58:1649  contract IterableMapping {... */\n      mstore(0x40, 0x80)\n      callvalue\n      dup1\n      iszero\n      tag_1\n      jumpi\n      0x00\n      dup1\n      revert\n    tag_1:\n      pop\n      jumpi(tag_2, lt(calldatasize, 0x04))\n      shr(0xe0, calldataload(0x00))\n      dup1\n      0x29092d0e\n      eq\n      tag_3\n      jumpi\n      dup1\n      0x53ed5143\n      eq\n      tag_4\n      jumpi\n      dup1\n      0xbc87eed3\n      eq\n      tag_5\n      jumpi\n      dup1\n      0xc2bc2efc\n      eq\n      tag_6\n      jumpi\n      dup1\n      0xf5d82b6b\n      eq\n      tag_7\n      jumpi\n    tag_2:\n      0x00\n      dup1\n      revert\n        /* \"contracts/IterableMapping.sol\":575:1095  function remove(address _key) public {... */\n    tag_3:\n      tag_8\n      tag_9\n      calldatasize\n      0x04\n      tag_10\n      jump\t// in\n    tag_9:\n      tag_11\n      jump\t// in\n    tag_8:\n      stop\n        /* \"contracts/IterableMapping.sol\":1383:1647  function getAll() public view returns (address[] memory, uint[] memory) {... */\n    tag_4:\n      tag_12\n      tag_13\n      jump\t// in\n    tag_12:\n      mload(0x40)\n      tag_14\n      swap3\n      swap2\n      swap1\n      tag_15\n      jump\t// in\n    tag_14:\n      mload(0x40)\n      dup1\n      swap2\n      sub\n      swap1\n      return\n        /* \"contracts/IterableMapping.sol\":1247:1336  function getAllKeys() public view returns (address[] memory) {... */\n    tag_5:\n      tag_16\n      tag_17\n      jump\t// in\n    tag_16:\n      mload(0x40)\n      tag_14\n      swap2\n      swap1\n      tag_19\n      jump\t// in\n        /* \"contracts/IterableMapping.sol\":1130:1218  function get(address _key) public view returns (uint) {... */\n    tag_6:\n      tag_20\n      tag_21\n      calldatasize\n      0x04\n      tag_10\n      jump\t// in\n    tag_21:\n      sub(shl(0xa0, 0x01), 0x01)\n        /* \"contracts/IterableMapping.sol\":1201:1211  data[_key] */\n      and\n        /* \"contracts/IterableMapping.sol\":1178:1182  uint */\n      0x00\n        /* \"contracts/IterableMapping.sol\":1201:1211  data[_key] */\n      swap1\n      dup2\n      mstore\n      0x20\n      dup2\n      swap1\n      mstore\n      0x40\n      swap1\n      keccak256\n      sload\n      swap1\n        /* \"contracts/IterableMapping.sol\":1130:1218  function get(address _key) public view returns (uint) {... */\n      jump\n    tag_20:\n      mload(0x40)\n        /* \"#utility.yul\":2034:2059   */\n      swap1\n      dup2\n      mstore\n        /* \"#utility.yul\":2022:2024   */\n      0x20\n        /* \"#utility.yul\":2007:2025   */\n      add\n        /* \"contracts/IterableMapping.sol\":1130:1218  function get(address _key) public view returns (uint) {... */\n      tag_14\n        /* \"#utility.yul\":1888:2065   */\n      jump\n        /* \"contracts/IterableMapping.sol\":350:540  function add(address _key, uint _value) public {... */\n    tag_7:\n      tag_8\n      tag_26\n      calldatasize\n      0x04\n      tag_27\n      jump\t// in\n    tag_26:\n      tag_28\n      jump\t// in\n        /* \"contracts/IterableMapping.sol\":575:1095  function remove(address _key) public {... */\n    tag_11:\n      sub(shl(0xa0, 0x01), 0x01)\n        /* \"contracts/IterableMapping.sol\":626:641  keyExists[_key] */\n      dup2\n      and\n      0x00\n      swap1\n      dup2\n      mstore\n        /* \"contracts/IterableMapping.sol\":626:635  keyExists */\n      0x02\n        /* \"contracts/IterableMapping.sol\":626:641  keyExists[_key] */\n      0x20\n      mstore\n      0x40\n      swap1\n      keccak256\n      sload\n      0xff\n      and\n        /* \"contracts/IterableMapping.sol\":622:1089  if (keyExists[_key]) {... */\n      iszero\n      tag_30\n      jumpi\n      sub(shl(0xa0, 0x01), 0x01)\n        /* \"contracts/IterableMapping.sol\":664:674  data[_key] */\n      dup2\n      and\n        /* \"contracts/IterableMapping.sol\":664:668  data */\n      0x00\n        /* \"contracts/IterableMapping.sol\":664:674  data[_key] */\n      swap1\n      dup2\n      mstore\n      0x20\n      dup2\n      dup2\n      mstore\n      0x40\n      dup1\n      dup4\n      keccak256\n        /* \"contracts/IterableMapping.sol\":657:674  delete data[_key] */\n      dup4\n      swap1\n      sstore\n        /* \"contracts/IterableMapping.sol\":688:697  keyExists */\n      0x02\n        /* \"contracts/IterableMapping.sol\":688:703  keyExists[_key] */\n      swap1\n      swap2\n      mstore\n      dup2\n      keccak256\n        /* \"contracts/IterableMapping.sol\":688:711  keyExists[_key] = false */\n      dup1\n      sload\n      not(0xff)\n      and\n      swap1\n      sstore\n        /* \"contracts/IterableMapping.sol\":778:1079  for (uint i = 0; i < keys.length; i++) {... */\n    tag_31:\n        /* \"contracts/IterableMapping.sol\":799:803  keys */\n      0x01\n        /* \"contracts/IterableMapping.sol\":799:810  keys.length */\n      sload\n        /* \"contracts/IterableMapping.sol\":795:810  i < keys.length */\n      dup2\n      lt\n        /* \"contracts/IterableMapping.sol\":778:1079  for (uint i = 0; i < keys.length; i++) {... */\n      iszero\n      tag_32\n      jumpi\n        /* \"contracts/IterableMapping.sol\":850:854  _key */\n      dup2\n      sub(shl(0xa0, 0x01), 0x01)\n        /* \"contracts/IterableMapping.sol\":839:854  keys[i] == _key */\n      and\n        /* \"contracts/IterableMapping.sol\":839:843  keys */\n      0x01\n        /* \"contracts/IterableMapping.sol\":844:845  i */\n      dup3\n        /* \"contracts/IterableMapping.sol\":839:846  keys[i] */\n      dup2\n      sload\n      dup2\n      lt\n      tag_35\n      jumpi\n      tag_35\n      tag_36\n      jump\t// in\n    tag_35:\n      0x00\n      swap2\n      dup3\n      mstore\n      0x20\n      swap1\n      swap2\n      keccak256\n      add\n      sload\n      sub(shl(0xa0, 0x01), 0x01)\n      and\n        /* \"contracts/IterableMapping.sol\":839:854  keys[i] == _key */\n      sub\n        /* \"contracts/IterableMapping.sol\":835:1065  if (keys[i] == _key) {... */\n      tag_38\n      jumpi\n        /* \"contracts/IterableMapping.sol\":966:970  keys */\n      0x01\n        /* \"contracts/IterableMapping.sol\":971:982  keys.length */\n      dup1\n      sload\n        /* \"contracts/IterableMapping.sol\":971:986  keys.length - 1 */\n      tag_39\n      swap1\n        /* \"contracts/IterableMapping.sol\":966:970  keys */\n      dup3\n      swap1\n        /* \"contracts/IterableMapping.sol\":971:986  keys.length - 1 */\n      tag_40\n      jump\t// in\n    tag_39:\n        /* \"contracts/IterableMapping.sol\":966:987  keys[keys.length - 1] */\n      dup2\n      sload\n      dup2\n      lt\n      tag_42\n      jumpi\n      tag_42\n      tag_36\n      jump\t// in\n    tag_42:\n      0x00\n      swap2\n      dup3\n      mstore\n      0x20\n      swap1\n      swap2\n      keccak256\n      add\n      sload\n      0x01\n        /* \"contracts/IterableMapping.sol\":956:963  keys[i] */\n      dup1\n      sload\n      sub(shl(0xa0, 0x01), 0x01)\n        /* \"contracts/IterableMapping.sol\":966:987  keys[keys.length - 1] */\n      swap1\n      swap3\n      and\n      swap2\n        /* \"contracts/IterableMapping.sol\":961:962  i */\n      dup4\n      swap1\n        /* \"contracts/IterableMapping.sol\":956:963  keys[i] */\n      dup2\n      lt\n      tag_45\n      jumpi\n      tag_45\n      tag_36\n      jump\t// in\n    tag_45:\n      swap1\n      0x00\n      mstore\n      keccak256(0x00, 0x20)\n      add\n      0x00\n        /* \"contracts/IterableMapping.sol\":956:987  keys[i] = keys[keys.length - 1] */\n      0x0100\n      exp\n      dup2\n      sload\n      dup2\n      sub(shl(0xa0, 0x01), 0x01)\n      mul\n      not\n      and\n      swap1\n      dup4\n      sub(shl(0xa0, 0x01), 0x01)\n      and\n      mul\n      or\n      swap1\n      sstore\n      pop\n        /* \"contracts/IterableMapping.sol\":1009:1013  keys */\n      0x01\n        /* \"contracts/IterableMapping.sol\":1009:1019  keys.pop() */\n      dup1\n      sload\n      dup1\n      tag_48\n      jumpi\n      tag_48\n      tag_49\n      jump\t// in\n    tag_48:\n      0x00\n      dup3\n      dup2\n      mstore\n      0x20\n      swap1\n      keccak256\n      dup2\n      add\n      not(0x00)\n      swap1\n      dup2\n      add\n      dup1\n      sload\n      not(sub(shl(0xa0, 0x01), 0x01))\n      and\n      swap1\n      sstore\n      add\n      swap1\n      sstore\n        /* \"contracts/IterableMapping.sol\":1041:1046  break */\n      jump(tag_32)\n        /* \"contracts/IterableMapping.sol\":835:1065  if (keys[i] == _key) {... */\n    tag_38:\n        /* \"contracts/IterableMapping.sol\":812:815  i++ */\n      0x01\n      add\n        /* \"contracts/IterableMapping.sol\":778:1079  for (uint i = 0; i < keys.length; i++) {... */\n      jump(tag_31)\n    tag_32:\n      pop\n        /* \"contracts/IterableMapping.sol\":622:1089  if (keyExists[_key]) {... */\n    tag_30:\n        /* \"contracts/IterableMapping.sol\":575:1095  function remove(address _key) public {... */\n      pop\n      jump\t// out\n        /* \"contracts/IterableMapping.sol\":1383:1647  function getAll() public view returns (address[] memory, uint[] memory) {... */\n    tag_13:\n        /* \"contracts/IterableMapping.sol\":1422:1438  address[] memory */\n      0x60\n        /* \"contracts/IterableMapping.sol\":1440:1453  uint[] memory */\n      dup1\n        /* \"contracts/IterableMapping.sol\":1465:1485  uint[] memory values */\n      0x00\n        /* \"contracts/IterableMapping.sol\":1499:1503  keys */\n      0x01\n        /* \"contracts/IterableMapping.sol\":1499:1510  keys.length */\n      dup1\n      sload\n      swap1\n      pop\n        /* \"contracts/IterableMapping.sol\":1488:1511  new uint[](keys.length) */\n      0xffffffffffffffff\n      dup2\n      gt\n      iszero\n      tag_53\n      jumpi\n      tag_53\n      tag_54\n      jump\t// in\n    tag_53:\n      mload(0x40)\n      swap1\n      dup1\n      dup3\n      mstore\n      dup1\n      0x20\n      mul\n      0x20\n      add\n      dup3\n      add\n      0x40\n      mstore\n      dup1\n      iszero\n      tag_55\n      jumpi\n      dup2\n      0x20\n      add\n      0x20\n      dup3\n      mul\n      dup1\n      calldatasize\n      dup4\n      calldatacopy\n      add\n      swap1\n      pop\n    tag_55:\n      pop\n        /* \"contracts/IterableMapping.sol\":1465:1511  uint[] memory values = new uint[](keys.length) */\n      swap1\n      pop\n        /* \"contracts/IterableMapping.sol\":1526:1532  uint i */\n      0x00\n        /* \"contracts/IterableMapping.sol\":1521:1610  for (uint i = 0; i < keys.length; i++) {... */\n    tag_56:\n        /* \"contracts/IterableMapping.sol\":1542:1546  keys */\n      0x01\n        /* \"contracts/IterableMapping.sol\":1542:1553  keys.length */\n      sload\n        /* \"contracts/IterableMapping.sol\":1538:1553  i < keys.length */\n      dup2\n      lt\n        /* \"contracts/IterableMapping.sol\":1521:1610  for (uint i = 0; i < keys.length; i++) {... */\n      iszero\n      tag_57\n      jumpi\n        /* \"contracts/IterableMapping.sol\":1586:1590  data */\n      0x00\n        /* \"contracts/IterableMapping.sol\":1586:1599  data[keys[i]] */\n      dup1\n        /* \"contracts/IterableMapping.sol\":1591:1595  keys */\n      0x01\n        /* \"contracts/IterableMapping.sol\":1596:1597  i */\n      dup4\n        /* \"contracts/IterableMapping.sol\":1591:1598  keys[i] */\n      dup2\n      sload\n      dup2\n      lt\n      tag_60\n      jumpi\n      tag_60\n      tag_36\n      jump\t// in\n    tag_60:\n      0x00\n      swap2\n      dup3\n      mstore\n      0x20\n      dup1\n      dup4\n      keccak256\n      swap1\n      swap2\n      add\n      sload\n      sub(shl(0xa0, 0x01), 0x01)\n      and\n        /* \"contracts/IterableMapping.sol\":1586:1599  data[keys[i]] */\n      dup4\n      mstore\n      dup3\n      add\n      swap3\n      swap1\n      swap3\n      mstore\n      0x40\n      add\n      swap1\n      keccak256\n      sload\n        /* \"contracts/IterableMapping.sol\":1574:1583  values[i] */\n      dup3\n      mload\n        /* \"contracts/IterableMapping.sol\":1574:1580  values */\n      dup4\n      swap1\n        /* \"contracts/IterableMapping.sol\":1581:1582  i */\n      dup4\n      swap1\n        /* \"contracts/IterableMapping.sol\":1574:1583  values[i] */\n      dup2\n      lt\n      tag_63\n      jumpi\n      tag_63\n      tag_36\n      jump\t// in\n    tag_63:\n      0x20\n      swap1\n      dup2\n      mul\n      swap2\n      swap1\n      swap2\n      add\n      add\n        /* \"contracts/IterableMapping.sol\":1574:1599  values[i] = data[keys[i]] */\n      mstore\n        /* \"contracts/IterableMapping.sol\":1555:1558  i++ */\n      0x01\n      add\n        /* \"contracts/IterableMapping.sol\":1521:1610  for (uint i = 0; i < keys.length; i++) {... */\n      jump(tag_56)\n    tag_57:\n      pop\n        /* \"contracts/IterableMapping.sol\":1627:1631  keys */\n      0x01\n        /* \"contracts/IterableMapping.sol\":1633:1639  values */\n      dup2\n        /* \"contracts/IterableMapping.sol\":1619:1640  return (keys, values) */\n      dup2\n      dup1\n      sload\n      dup1\n      0x20\n      mul\n      0x20\n      add\n      mload(0x40)\n      swap1\n      dup2\n      add\n      0x40\n      mstore\n      dup1\n      swap3\n      swap2\n      swap1\n      dup2\n      dup2\n      mstore\n      0x20\n      add\n      dup3\n      dup1\n      sload\n      dup1\n      iszero\n      tag_64\n      jumpi\n      0x20\n      mul\n      dup3\n      add\n      swap2\n      swap1\n      0x00\n      mstore\n      keccak256(0x00, 0x20)\n      swap1\n    tag_65:\n      dup2\n      sload\n      sub(shl(0xa0, 0x01), 0x01)\n      and\n      dup2\n      mstore\n      0x01\n      swap1\n      swap2\n      add\n      swap1\n      0x20\n      add\n      dup1\n      dup4\n      gt\n      tag_65\n      jumpi\n    tag_64:\n      pop\n      pop\n      pop\n      pop\n      pop\n      swap2\n      pop\n      swap3\n      pop\n      swap3\n      pop\n      pop\n        /* \"contracts/IterableMapping.sol\":1383:1647  function getAll() public view returns (address[] memory, uint[] memory) {... */\n      swap1\n      swap2\n      jump\t// out\n        /* \"contracts/IterableMapping.sol\":1247:1336  function getAllKeys() public view returns (address[] memory) {... */\n    tag_17:\n        /* \"contracts/IterableMapping.sol\":1290:1306  address[] memory */\n      0x60\n        /* \"contracts/IterableMapping.sol\":1325:1329  keys */\n      0x01\n        /* \"contracts/IterableMapping.sol\":1318:1329  return keys */\n      dup1\n      sload\n      dup1\n      0x20\n      mul\n      0x20\n      add\n      mload(0x40)\n      swap1\n      dup2\n      add\n      0x40\n      mstore\n      dup1\n      swap3\n      swap2\n      swap1\n      dup2\n      dup2\n      mstore\n      0x20\n      add\n      dup3\n      dup1\n      sload\n      dup1\n      iszero\n      tag_67\n      jumpi\n      0x20\n      mul\n      dup3\n      add\n      swap2\n      swap1\n      0x00\n      mstore\n      keccak256(0x00, 0x20)\n      swap1\n    tag_68:\n      dup2\n      sload\n      sub(shl(0xa0, 0x01), 0x01)\n      and\n      dup2\n      mstore\n      0x01\n      swap1\n      swap2\n      add\n      swap1\n      0x20\n      add\n      dup1\n      dup4\n      gt\n      tag_68\n      jumpi\n    tag_67:\n      pop\n      pop\n      pop\n      pop\n      pop\n      swap1\n      pop\n        /* \"contracts/IterableMapping.sol\":1247:1336  function getAllKeys() public view returns (address[] memory) {... */\n      swap1\n      jump\t// out\n        /* \"contracts/IterableMapping.sol\":350:540  function add(address _key, uint _value) public {... */\n    tag_28:\n      sub(shl(0xa0, 0x01), 0x01)\n        /* \"contracts/IterableMapping.sol\":412:427  keyExists[_key] */\n      dup3\n      and\n      0x00\n      swap1\n      dup2\n      mstore\n        /* \"contracts/IterableMapping.sol\":412:421  keyExists */\n      0x02\n        /* \"contracts/IterableMapping.sol\":412:427  keyExists[_key] */\n      0x20\n      mstore\n      0x40\n      swap1\n      keccak256\n      sload\n      0xff\n      and\n        /* \"contracts/IterableMapping.sol\":407:505  if (!keyExists[_key]) {... */\n      tag_71\n      jumpi\n        /* \"contracts/IterableMapping.sol\":443:447  keys */\n      0x01\n        /* \"contracts/IterableMapping.sol\":443:458  keys.push(_key) */\n      dup1\n      sload\n      dup1\n      dup3\n      add\n      dup3\n      sstore\n      0xb10e2d527612073b26eecdfd717e6a320cf44b4afac2b0732d9fcbe2b7fa0cf6\n      add\n      dup1\n      sload\n      not(sub(shl(0xa0, 0x01), 0x01))\n      and\n      sub(shl(0xa0, 0x01), 0x01)\n      dup6\n      and\n      swap1\n      dup2\n      or\n      swap1\n      swap2\n      sstore\n      0x00\n        /* \"contracts/IterableMapping.sol\":472:487  keyExists[_key] */\n      swap1\n      dup2\n      mstore\n        /* \"contracts/IterableMapping.sol\":472:481  keyExists */\n      0x02\n        /* \"contracts/IterableMapping.sol\":443:458  keys.push(_key) */\n      0x20\n        /* \"contracts/IterableMapping.sol\":472:487  keyExists[_key] */\n      mstore\n      0x40\n      swap1\n      keccak256\n        /* \"contracts/IterableMapping.sol\":472:494  keyExists[_key] = true */\n      dup1\n      sload\n      not(0xff)\n      and\n      swap1\n      swap2\n      or\n      swap1\n      sstore\n        /* \"contracts/IterableMapping.sol\":407:505  if (!keyExists[_key]) {... */\n    tag_71:\n      sub(shl(0xa0, 0x01), 0x01)\n        /* \"contracts/IterableMapping.sol\":514:524  data[_key] */\n      swap1\n      swap2\n      and\n        /* \"contracts/IterableMapping.sol\":514:518  data */\n      0x00\n        /* \"contracts/IterableMapping.sol\":514:524  data[_key] */\n      swap1\n      dup2\n      mstore\n      0x20\n      dup2\n      swap1\n      mstore\n      0x40\n      swap1\n      keccak256\n        /* \"contracts/IterableMapping.sol\":514:533  data[_key] = _value */\n      sstore\n        /* \"contracts/IterableMapping.sol\":350:540  function add(address _key, uint _value) public {... */\n      jump\t// out\n        /* \"#utility.yul\":14:187   */\n    tag_73:\n        /* \"#utility.yul\":82:102   */\n      dup1\n      calldataload\n      sub(shl(0xa0, 0x01), 0x01)\n        /* \"#utility.yul\":131:162   */\n      dup2\n      and\n        /* \"#utility.yul\":121:163   */\n      dup2\n      eq\n        /* \"#utility.yul\":111:181   */\n      tag_77\n      jumpi\n        /* \"#utility.yul\":177:178   */\n      0x00\n        /* \"#utility.yul\":174:175   */\n      dup1\n        /* \"#utility.yul\":167:179   */\n      revert\n        /* \"#utility.yul\":111:181   */\n    tag_77:\n        /* \"#utility.yul\":14:187   */\n      swap2\n      swap1\n      pop\n      jump\t// out\n        /* \"#utility.yul\":192:378   */\n    tag_10:\n        /* \"#utility.yul\":251:257   */\n      0x00\n        /* \"#utility.yul\":304:306   */\n      0x20\n        /* \"#utility.yul\":292:301   */\n      dup3\n        /* \"#utility.yul\":283:290   */\n      dup5\n        /* \"#utility.yul\":279:302   */\n      sub\n        /* \"#utility.yul\":275:307   */\n      slt\n        /* \"#utility.yul\":272:324   */\n      iszero\n      tag_79\n      jumpi\n        /* \"#utility.yul\":320:321   */\n      0x00\n        /* \"#utility.yul\":317:318   */\n      dup1\n        /* \"#utility.yul\":310:322   */\n      revert\n        /* \"#utility.yul\":272:324   */\n    tag_79:\n        /* \"#utility.yul\":343:372   */\n      tag_80\n        /* \"#utility.yul\":362:371   */\n      dup3\n        /* \"#utility.yul\":343:372   */\n      tag_73\n      jump\t// in\n    tag_80:\n        /* \"#utility.yul\":333:372   */\n      swap4\n        /* \"#utility.yul\":192:378   */\n      swap3\n      pop\n      pop\n      pop\n      jump\t// out\n        /* \"#utility.yul\":383:829   */\n    tag_74:\n        /* \"#utility.yul\":436:439   */\n      0x00\n        /* \"#utility.yul\":474:479   */\n      dup2\n        /* \"#utility.yul\":468:480   */\n      mload\n        /* \"#utility.yul\":501:507   */\n      dup1\n        /* \"#utility.yul\":496:499   */\n      dup5\n        /* \"#utility.yul\":489:508   */\n      mstore\n        /* \"#utility.yul\":533:537   */\n      0x20\n        /* \"#utility.yul\":528:531   */\n      dup5\n        /* \"#utility.yul\":524:538   */\n      add\n        /* \"#utility.yul\":517:538   */\n      swap4\n      pop\n        /* \"#utility.yul\":572:576   */\n      0x20\n        /* \"#utility.yul\":565:570   */\n      dup4\n        /* \"#utility.yul\":561:577   */\n      add\n        /* \"#utility.yul\":595:596   */\n      0x00\n        /* \"#utility.yul\":605:804   */\n    tag_82:\n        /* \"#utility.yul\":619:625   */\n      dup3\n        /* \"#utility.yul\":616:617   */\n      dup2\n        /* \"#utility.yul\":613:626   */\n      lt\n        /* \"#utility.yul\":605:804   */\n      iszero\n      tag_84\n      jumpi\n        /* \"#utility.yul\":684:697   */\n      dup2\n      mload\n      sub(shl(0xa0, 0x01), 0x01)\n        /* \"#utility.yul\":680:719   */\n      and\n        /* \"#utility.yul\":668:720   */\n      dup7\n      mstore\n        /* \"#utility.yul\":749:753   */\n      0x20\n        /* \"#utility.yul\":740:754   */\n      swap6\n      dup7\n      add\n      swap6\n        /* \"#utility.yul\":777:794   */\n      swap1\n      swap2\n      add\n      swap1\n        /* \"#utility.yul\":716:717   */\n      0x01\n        /* \"#utility.yul\":634:643   */\n      add\n        /* \"#utility.yul\":605:804   */\n      jump(tag_82)\n    tag_84:\n      pop\n        /* \"#utility.yul\":820:823   */\n      swap4\n      swap5\n        /* \"#utility.yul\":383:829   */\n      swap4\n      pop\n      pop\n      pop\n      pop\n      jump\t// out\n        /* \"#utility.yul\":834:1617   */\n    tag_15:\n        /* \"#utility.yul\":1091:1093   */\n      0x40\n        /* \"#utility.yul\":1080:1089   */\n      dup2\n        /* \"#utility.yul\":1073:1094   */\n      mstore\n        /* \"#utility.yul\":1054:1058   */\n      0x00\n        /* \"#utility.yul\":1117:1173   */\n      tag_86\n        /* \"#utility.yul\":1169:1171   */\n      0x40\n        /* \"#utility.yul\":1158:1167   */\n      dup4\n        /* \"#utility.yul\":1154:1172   */\n      add\n        /* \"#utility.yul\":1146:1152   */\n      dup6\n        /* \"#utility.yul\":1117:1173   */\n      tag_74\n      jump\t// in\n    tag_86:\n        /* \"#utility.yul\":1221:1230   */\n      dup3\n        /* \"#utility.yul\":1213:1219   */\n      dup2\n        /* \"#utility.yul\":1209:1231   */\n      sub\n        /* \"#utility.yul\":1204:1206   */\n      0x20\n        /* \"#utility.yul\":1193:1202   */\n      dup5\n        /* \"#utility.yul\":1189:1207   */\n      add\n        /* \"#utility.yul\":1182:1232   */\n      mstore\n        /* \"#utility.yul\":1252:1258   */\n      dup1\n        /* \"#utility.yul\":1287:1293   */\n      dup5\n        /* \"#utility.yul\":1281:1294   */\n      mload\n        /* \"#utility.yul\":1318:1324   */\n      dup1\n        /* \"#utility.yul\":1310:1316   */\n      dup4\n        /* \"#utility.yul\":1303:1325   */\n      mstore\n        /* \"#utility.yul\":1353:1355   */\n      0x20\n        /* \"#utility.yul\":1345:1351   */\n      dup4\n        /* \"#utility.yul\":1341:1356   */\n      add\n        /* \"#utility.yul\":1334:1356   */\n      swap2\n      pop\n        /* \"#utility.yul\":1391:1393   */\n      0x20\n        /* \"#utility.yul\":1383:1389   */\n      dup7\n        /* \"#utility.yul\":1379:1394   */\n      add\n        /* \"#utility.yul\":1365:1394   */\n      swap3\n      pop\n        /* \"#utility.yul\":1412:1413   */\n      0x00\n        /* \"#utility.yul\":1422:1591   */\n    tag_87:\n        /* \"#utility.yul\":1436:1442   */\n      dup2\n        /* \"#utility.yul\":1433:1434   */\n      dup2\n        /* \"#utility.yul\":1430:1443   */\n      lt\n        /* \"#utility.yul\":1422:1591   */\n      iszero\n      tag_89\n      jumpi\n        /* \"#utility.yul\":1497:1510   */\n      dup4\n      mload\n        /* \"#utility.yul\":1485:1511   */\n      dup4\n      mstore\n        /* \"#utility.yul\":1540:1542   */\n      0x20\n        /* \"#utility.yul\":1566:1581   */\n      swap4\n      dup5\n      add\n      swap4\n        /* \"#utility.yul\":1531:1543   */\n      swap1\n      swap3\n      add\n      swap2\n        /* \"#utility.yul\":1458:1459   */\n      0x01\n        /* \"#utility.yul\":1451:1460   */\n      add\n        /* \"#utility.yul\":1422:1591   */\n      jump(tag_87)\n    tag_89:\n      pop\n        /* \"#utility.yul\":1608:1611   */\n      swap1\n      swap7\n        /* \"#utility.yul\":834:1617   */\n      swap6\n      pop\n      pop\n      pop\n      pop\n      pop\n      pop\n      jump\t// out\n        /* \"#utility.yul\":1622:1883   */\n    tag_19:\n        /* \"#utility.yul\":1801:1803   */\n      0x20\n        /* \"#utility.yul\":1790:1799   */\n      dup2\n        /* \"#utility.yul\":1783:1804   */\n      mstore\n        /* \"#utility.yul\":1764:1768   */\n      0x00\n        /* \"#utility.yul\":1821:1877   */\n      tag_80\n        /* \"#utility.yul\":1873:1875   */\n      0x20\n        /* \"#utility.yul\":1862:1871   */\n      dup4\n        /* \"#utility.yul\":1858:1876   */\n      add\n        /* \"#utility.yul\":1850:1856   */\n      dup5\n        /* \"#utility.yul\":1821:1877   */\n      tag_74\n      jump\t// in\n        /* \"#utility.yul\":2070:2324   */\n    tag_27:\n        /* \"#utility.yul\":2138:2144   */\n      0x00\n        /* \"#utility.yul\":2146:2152   */\n      dup1\n        /* \"#utility.yul\":2199:2201   */\n      0x40\n        /* \"#utility.yul\":2187:2196   */\n      dup4\n        /* \"#utility.yul\":2178:2185   */\n      dup6\n        /* \"#utility.yul\":2174:2197   */\n      sub\n        /* \"#utility.yul\":2170:2202   */\n      slt\n        /* \"#utility.yul\":2167:2219   */\n      iszero\n      tag_94\n      jumpi\n        /* \"#utility.yul\":2215:2216   */\n      0x00\n        /* \"#utility.yul\":2212:2213   */\n      dup1\n        /* \"#utility.yul\":2205:2217   */\n      revert\n        /* \"#utility.yul\":2167:2219   */\n    tag_94:\n        /* \"#utility.yul\":2238:2267   */\n      tag_95\n        /* \"#utility.yul\":2257:2266   */\n      dup4\n        /* \"#utility.yul\":2238:2267   */\n      tag_73\n      jump\t// in\n    tag_95:\n        /* \"#utility.yul\":2228:2267   */\n      swap5\n        /* \"#utility.yul\":2314:2316   */\n      0x20\n        /* \"#utility.yul\":2299:2317   */\n      swap4\n      swap1\n      swap4\n      add\n        /* \"#utility.yul\":2286:2318   */\n      calldataload\n      swap4\n      pop\n      pop\n      pop\n        /* \"#utility.yul\":2070:2324   */\n      jump\t// out\n        /* \"#utility.yul\":2329:2456   */\n    tag_36:\n        /* \"#utility.yul\":2390:2400   */\n      0x4e487b71\n        /* \"#utility.yul\":2385:2388   */\n      0xe0\n        /* \"#utility.yul\":2381:2401   */\n      shl\n        /* \"#utility.yul\":2378:2379   */\n      0x00\n        /* \"#utility.yul\":2371:2402   */\n      mstore\n        /* \"#utility.yul\":2421:2425   */\n      0x32\n        /* \"#utility.yul\":2418:2419   */\n      0x04\n        /* \"#utility.yul\":2411:2426   */\n      mstore\n        /* \"#utility.yul\":2445:2449   */\n      0x24\n        /* \"#utility.yul\":2442:2443   */\n      0x00\n        /* \"#utility.yul\":2435:2450   */\n      revert\n        /* \"#utility.yul\":2461:2686   */\n    tag_40:\n        /* \"#utility.yul\":2528:2537   */\n      dup2\n      dup2\n      sub\n        /* \"#utility.yul\":2549:2560   */\n      dup2\n      dup2\n      gt\n        /* \"#utility.yul\":2546:2680   */\n      iszero\n      tag_98\n      jumpi\n        /* \"#utility.yul\":2602:2612   */\n      0x4e487b71\n        /* \"#utility.yul\":2597:2600   */\n      0xe0\n        /* \"#utility.yul\":2593:2613   */\n      shl\n        /* \"#utility.yul\":2590:2591   */\n      0x00\n        /* \"#utility.yul\":2583:2614   */\n      mstore\n        /* \"#utility.yul\":2637:2641   */\n      0x11\n        /* \"#utility.yul\":2634:2635   */\n      0x04\n        /* \"#utility.yul\":2627:2642   */\n      mstore\n        /* \"#utility.yul\":2665:2669   */\n      0x24\n        /* \"#utility.yul\":2662:2663   */\n      0x00\n        /* \"#utility.yul\":2655:2670   */\n      revert\n        /* \"#utility.yul\":2546:2680   */\n    tag_98:\n        /* \"#utility.yul\":2461:2686   */\n      swap3\n      swap2\n      pop\n      pop\n      jump\t// out\n        /* \"#utility.yul\":2691:2818   */\n    tag_49:\n        /* \"#utility.yul\":2752:2762   */\n      0x4e487b71\n        /* \"#utility.yul\":2747:2750   */\n      0xe0\n        /* \"#utility.yul\":2743:2763   */\n      shl\n        /* \"#utility.yul\":2740:2741   */\n      0x00\n        /* \"#utility.yul\":2733:2764   */\n      mstore\n        /* \"#utility.yul\":2783:2787   */\n      0x31\n        /* \"#utility.yul\":2780:2781   */\n      0x04\n        /* \"#utility.yul\":2773:2788   */\n      mstore\n        /* \"#utility.yul\":2807:2811   */\n      0x24\n        /* \"#utility.yul\":2804:2805   */\n      0x00\n        /* \"#utility.yul\":2797:2812   */\n      revert\n        /* \"#utility.yul\":2823:2950   */\n    tag_54:\n        /* \"#utility.yul\":2884:2894   */\n      0x4e487b71\n        /* \"#utility.yul\":2879:2882   */\n      0xe0\n        /* \"#utility.yul\":2875:2895   */\n      shl\n        /* \"#utility.yul\":2872:2873   */\n      0x00\n        /* \"#utility.yul\":2865:2896   */\n      mstore\n        /* \"#utility.yul\":2915:2919   */\n      0x41\n        /* \"#utility.yul\":2912:2913   */\n      0x04\n        /* \"#utility.yul\":2905:2920   */\n      mstore\n        /* \"#utility.yul\":2939:2943   */\n      0x24\n        /* \"#utility.yul\":2936:2937   */\n      0x00\n        /* \"#utility.yul\":2929:2944   */\n      revert\n\n    auxdata: 0xa2646970667358221220e943595049fddb0881a1ef908bc24a1b0e10f94e6917ba3449090fde3ee1ba8b64736f6c634300081a0033\n}\n",
				"bytecode": {
					"linkReferences": {},
					"object": "6080604052348015600e575f80fd5b506105f08061001c5f395ff3fe608060405234801561000f575f80fd5b5060043610610055575f3560e01c806329092d0e1461005957806353ed51431461006e578063bc87eed31461008d578063c2bc2efc146100a2578063f5d82b6b146100d8575b5f80fd5b61006c610067366004610464565b6100eb565b005b61007661022e565b6040516100849291906104c7565b60405180910390f35b61009561034f565b604051610084919061051f565b6100ca6100b0366004610464565b6001600160a01b03165f9081526020819052604090205490565b604051908152602001610084565b61006c6100e6366004610531565b6103af565b6001600160a01b0381165f9081526002602052604090205460ff161561022b576001600160a01b0381165f9081526020818152604080832083905560029091528120805460ff191690555b60015481101561022957816001600160a01b03166001828154811061015d5761015d610559565b5f918252602090912001546001600160a01b031603610221576001805461018590829061056d565b8154811061019557610195610559565b5f91825260209091200154600180546001600160a01b0390921691839081106101c0576101c0610559565b905f5260205f20015f6101000a8154816001600160a01b0302191690836001600160a01b0316021790555060018054806101fc576101fc610592565b5f8281526020902081015f1990810180546001600160a01b0319169055019055610229565b600101610136565b505b50565b6060805f60018054905067ffffffffffffffff811115610250576102506105a6565b604051908082528060200260200182016040528015610279578160200160208202803683370190505b5090505f5b6001548110156102e8575f806001838154811061029d5761029d610559565b5f9182526020808320909101546001600160a01b0316835282019290925260400190205482518390839081106102d5576102d5610559565b602090810291909101015260010161027e565b506001818180548060200260200160405190810160405280929190818152602001828054801561033f57602002820191905f5260205f20905b81546001600160a01b03168152600190910190602001808311610321575b5050505050915092509250509091565b606060018054806020026020016040519081016040528092919081815260200182805480156103a557602002820191905f5260205f20905b81546001600160a01b03168152600190910190602001808311610387575b5050505050905090565b6001600160a01b0382165f9081526002602052604090205460ff1661042e576001805480820182557fb10e2d527612073b26eecdfd717e6a320cf44b4afac2b0732d9fcbe2b7fa0cf60180546001600160a01b0319166001600160a01b0385169081179091555f908152600260205260409020805460ff191690911790555b6001600160a01b039091165f90815260208190526040902055565b80356001600160a01b038116811461045f575f80fd5b919050565b5f60208284031215610474575f80fd5b61047d82610449565b9392505050565b5f8151808452602084019350602083015f5b828110156104bd5781516001600160a01b0316865260209586019590910190600101610496565b5093949350505050565b604081525f6104d96040830185610484565b82810360208401528084518083526020830191506020860192505f5b818110156105135783518352602093840193909201916001016104f5565b50909695505050505050565b602081525f61047d6020830184610484565b5f8060408385031215610542575f80fd5b61054b83610449565b946020939093013593505050565b634e487b7160e01b5f52603260045260245ffd5b8181038181111561058c57634e487b7160e01b5f52601160045260245ffd5b92915050565b634e487b7160e01b5f52603160045260245ffd5b634e487b7160e01b5f52604160045260245ffdfea2646970667358221220e943595049fddb0881a1ef908bc24a1b0e10f94e6917ba3449090fde3ee1ba8b64736f6c634300081a0033",
					"opcodes": "PUSH1 0x80 PUSH1 0x40 MSTORE CALLVALUE DUP1 ISZERO PUSH1 0xE JUMPI PUSH0 DUP1 REVERT JUMPDEST POP PUSH2 0x5F0 DUP1 PUSH2 0x1C PUSH0 CODECOPY PUSH0 RETURN INVALID PUSH1 0x80 PUSH1 0x40 MSTORE CALLVALUE DUP1 ISZERO PUSH2 0xF JUMPI PUSH0 DUP1 REVERT JUMPDEST POP PUSH1 0x4 CALLDATASIZE LT PUSH2 0x55 JUMPI PUSH0 CALLDATALOAD PUSH1 0xE0 SHR DUP1 PUSH4 0x29092D0E EQ PUSH2 0x59 JUMPI DUP1 PUSH4 0x53ED5143 EQ PUSH2 0x6E JUMPI DUP1 PUSH4 0xBC87EED3 EQ PUSH2 0x8D JUMPI DUP1 PUSH4 0xC2BC2EFC EQ PUSH2 0xA2 JUMPI DUP1 PUSH4 0xF5D82B6B EQ PUSH2 0xD8 JUMPI JUMPDEST PUSH0 DUP1 REVERT JUMPDEST PUSH2 0x6C PUSH2 0x67 CALLDATASIZE PUSH1 0x4 PUSH2 0x464 JUMP JUMPDEST PUSH2 0xEB JUMP JUMPDEST STOP JUMPDEST PUSH2 0x76 PUSH2 0x22E JUMP JUMPDEST PUSH1 0x40 MLOAD PUSH2 0x84 SWAP3 SWAP2 SWAP1 PUSH2 0x4C7 JUMP JUMPDEST PUSH1 0x40 MLOAD DUP1 SWAP2 SUB SWAP1 RETURN JUMPDEST PUSH2 0x95 PUSH2 0x34F JUMP JUMPDEST PUSH1 0x40 MLOAD PUSH2 0x84 SWAP2 SWAP1 PUSH2 0x51F JUMP JUMPDEST PUSH2 0xCA PUSH2 0xB0 CALLDATASIZE PUSH1 0x4 PUSH2 0x464 JUMP JUMPDEST PUSH1 0x1 PUSH1 0x1 PUSH1 0xA0 SHL SUB AND PUSH0 SWAP1 DUP2 MSTORE PUSH1 0x20 DUP2 SWAP1 MSTORE PUSH1 0x40 SWAP1 KECCAK256 SLOAD SWAP1 JUMP JUMPDEST PUSH1 0x40 MLOAD SWAP1 DUP2 MSTORE PUSH1 0x20 ADD PUSH2 0x84 JUMP JUMPDEST PUSH2 0x6C PUSH2 0xE6 CALLDATASIZE PUSH1 0x4 PUSH2 0x531 JUMP JUMPDEST PUSH2 0x3AF JUMP JUMPDEST PUSH1 0x1 PUSH1 0x1 PUSH1 0xA0 SHL SUB DUP2 AND PUSH0 SWAP1 DUP2 MSTORE PUSH1 0x2 PUSH1 0x20 MSTORE PUSH1 0x40 SWAP1 KECCAK256 SLOAD PUSH1 0xFF AND ISZERO PUSH2 0x22B JUMPI PUSH1 0x1 PUSH1 0x1 PUSH1 0xA0 SHL SUB DUP2 AND PUSH0 SWAP1 DUP2 MSTORE PUSH1 0x20 DUP2 DUP2 MSTORE PUSH1 0x40 DUP1 DUP4 KECCAK256 DUP4 SWAP1 SSTORE PUSH1 0x2 SWAP1 SWAP2 MSTORE DUP2 KECCAK256 DUP1 SLOAD PUSH1 0xFF NOT AND SWAP1 SSTORE JUMPDEST PUSH1 0x1 SLOAD DUP2 LT ISZERO PUSH2 0x229 JUMPI DUP2 PUSH1 0x1 PUSH1 0x1 PUSH1 0xA0 SHL SUB AND PUSH1 0x1 DUP3 DUP2 SLOAD DUP2 LT PUSH2 0x15D JUMPI PUSH2 0x15D PUSH2 0x559 JUMP JUMPDEST PUSH0 SWAP2 DUP3 MSTORE PUSH1 0x20 SWAP1 SWAP2 KECCAK256 ADD SLOAD PUSH1 0x1 PUSH1 0x1 PUSH1 0xA0 SHL SUB AND SUB PUSH2 0x221 JUMPI PUSH1 0x1 DUP1 SLOAD PUSH2 0x185 SWAP1 DUP3 SWAP1 PUSH2 0x56D JUMP JUMPDEST DUP2 SLOAD DUP2 LT PUSH2 0x195 JUMPI PUSH2 0x195 PUSH2 0x559 JUMP JUMPDEST PUSH0 SWAP2 DUP3 MSTORE PUSH1 0x20 SWAP1 SWAP2 KECCAK256 ADD SLOAD PUSH1 0x1 DUP1 SLOAD PUSH1 0x1 PUSH1 0x1 PUSH1 0xA0 SHL SUB SWAP1 SWAP3 AND SWAP2 DUP4 SWAP1 DUP2 LT PUSH2 0x1C0 JUMPI PUSH2 0x1C0 PUSH2 0x559 JUMP JUMPDEST SWAP1 PUSH0 MSTORE PUSH1 0x20 PUSH0 KECCAK256 ADD PUSH0 PUSH2 0x100 EXP DUP2 SLOAD DUP2 PUSH1 0x1 PUSH1 0x1 PUSH1 0xA0 SHL SUB MUL NOT AND SWAP1 DUP4 PUSH1 0x1 PUSH1 0x1 PUSH1 0xA0 SHL SUB AND MUL OR SWAP1 SSTORE POP PUSH1 0x1 DUP1 SLOAD DUP1 PUSH2 0x1FC JUMPI PUSH2 0x1FC PUSH2 0x592 JUMP JUMPDEST PUSH0 DUP3 DUP2 MSTORE PUSH1 0x20 SWAP1 KECCAK256 DUP2 ADD PUSH0 NOT SWAP1 DUP2 ADD DUP1 SLOAD PUSH1 0x1 PUSH1 0x1 PUSH1 0xA0 SHL SUB NOT AND SWAP1 SSTORE ADD SWAP1 SSTORE PUSH2 0x229 JUMP JUMPDEST PUSH1 0x1 ADD PUSH2 0x136 JUMP JUMPDEST POP JUMPDEST POP JUMP JUMPDEST PUSH1 0x60 DUP1 PUSH0 PUSH1 0x1 DUP1 SLOAD SWAP1 POP PUSH8 0xFFFFFFFFFFFFFFFF DUP2 GT ISZERO PUSH2 0x250 JUMPI PUSH2 0x250 PUSH2 0x5A6 JUMP JUMPDEST PUSH1 0x40 MLOAD SWAP1 DUP1 DUP3 MSTORE DUP1 PUSH1 0x20 MUL PUSH1 0x20 ADD DUP3 ADD PUSH1 0x40 MSTORE DUP1 ISZERO PUSH2 0x279 JUMPI DUP2 PUSH1 0x20 ADD PUSH1 0x20 DUP3 MUL DUP1 CALLDATASIZE DUP4 CALLDATACOPY ADD SWAP1 POP JUMPDEST POP SWAP1 POP PUSH0 JUMPDEST PUSH1 0x1 SLOAD DUP2 LT ISZERO PUSH2 0x2E8 JUMPI PUSH0 DUP1 PUSH1 0x1 DUP4 DUP2 SLOAD DUP2 LT PUSH2 0x29D JUMPI PUSH2 0x29D PUSH2 0x559 JUMP JUMPDEST PUSH0 SWAP2 DUP3 MSTORE PUSH1 0x20 DUP1 DUP4 KECCAK256 SWAP1 SWAP2 ADD SLOAD PUSH1 0x1 PUSH1 0x1 PUSH1 0xA0 SHL SUB AND DUP4 MSTORE DUP3 ADD SWAP3 SWAP1 SWAP3 MSTORE PUSH1 0x40 ADD SWAP1 KECCAK256 SLOAD DUP3 MLOAD DUP4 SWAP1 DUP4 SWAP1 DUP2 LT PUSH2 0x2D5 JUMPI PUSH2 0x2D5 PUSH2 0x559 JUMP JUMPDEST PUSH1 0x20 SWAP1 DUP2 MUL SWAP2 SWAP1 SWAP2 ADD ADD MSTORE PUSH1 0x1 ADD PUSH2 0x27E JUMP JUMPDEST POP PUSH1 0x1 DUP2 DUP2 DUP1 SLOAD DUP1 PUSH1 0x20 MUL PUSH1 0x20 ADD PUSH1 0x40 MLOAD SWAP1 DUP2 ADD PUSH1 0x40 MSTORE DUP1 SWAP3 SWAP2 SWAP1 DUP2 DUP2 MSTORE PUSH1 0x20 ADD DUP3 DUP1 SLOAD DUP1 ISZERO PUSH2 0x33F JUMPI PUSH1 0x20 MUL DUP3 ADD SWAP2 SWAP1 PUSH0 MSTORE PUSH1 0x20 PUSH0 KECCAK256 SWAP1 JUMPDEST DUP2 SLOAD PUSH1 0x1 PUSH1 0x1 PUSH1 0xA0 SHL SUB AND DUP2 MSTORE PUSH1 0x1 SWAP1 SWAP2 ADD SWAP1 PUSH1 0x20 ADD DUP1 DUP4 GT PUSH2 0x321 JUMPI JUMPDEST POP POP POP POP POP SWAP2 POP SWAP3 POP SWAP3 POP POP SWAP1 SWAP2 JUMP JUMPDEST PUSH1 0x60 PUSH1 0x1 DUP1 SLOAD DUP1 PUSH1 0x20 MUL PUSH1 0x20 ADD PUSH1 0x40 MLOAD SWAP1 DUP2 ADD PUSH1 0x40 MSTORE DUP1 SWAP3 SWAP2 SWAP1 DUP2 DUP2 MSTORE PUSH1 0x20 ADD DUP3 DUP1 SLOAD DUP1 ISZERO PUSH2 0x3A5 JUMPI PUSH1 0x20 MUL DUP3 ADD SWAP2 SWAP1 PUSH0 MSTORE PUSH1 0x20 PUSH0 KECCAK256 SWAP1 JUMPDEST DUP2 SLOAD PUSH1 0x1 PUSH1 0x1 PUSH1 0xA0 SHL SUB AND DUP2 MSTORE PUSH1 0x1 SWAP1 SWAP2 ADD SWAP1 PUSH1 0x20 ADD DUP1 DUP4 GT PUSH2 0x387 JUMPI JUMPDEST POP POP POP POP POP SWAP1 POP SWAP1 JUMP JUMPDEST PUSH1 0x1 PUSH1 0x1 PUSH1 0xA0 SHL SUB DUP3 AND PUSH0 SWAP1 DUP2 MSTORE PUSH1 0x2 PUSH1 0x20 MSTORE PUSH1 0x40 SWAP1 KECCAK256 SLOAD PUSH1 0xFF AND PUSH2 0x42E JUMPI PUSH1 0x1 DUP1 SLOAD DUP1 DUP3 ADD DUP3 SSTORE PUSH32 0xB10E2D527612073B26EECDFD717E6A320CF44B4AFAC2B0732D9FCBE2B7FA0CF6 ADD DUP1 SLOAD PUSH1 0x1 PUSH1 0x1 PUSH1 0xA0 SHL SUB NOT AND PUSH1 0x1 PUSH1 0x1 PUSH1 0xA0 SHL SUB DUP6 AND SWAP1 DUP2 OR SWAP1 SWAP2 SSTORE PUSH0 SWAP1 DUP2 MSTORE PUSH1 0x2 PUSH1 0x20 MSTORE PUSH1 0x40 SWAP1 KECCAK256 DUP1 SLOAD PUSH1 0xFF NOT AND SWAP1 SWAP2 OR SWAP1 SSTORE JUMPDEST PUSH1 0x1 PUSH1 0x1 PUSH1 0xA0 SHL SUB SWAP1 SWAP2 AND PUSH0 SWAP1 DUP2 MSTORE PUSH1 0x20 DUP2 SWAP1 MSTORE PUSH1 0x40 SWAP1 KECCAK256 SSTORE JUMP JUMPDEST DUP1 CALLDATALOAD PUSH1 0x1 PUSH1 0x1 PUSH1 0xA0 SHL SUB DUP2 AND DUP2 EQ PUSH2 0x45F JUMPI PUSH0 DUP1 REVERT JUMPDEST SWAP2 SWAP1 POP JUMP JUMPDEST PUSH0 PUSH1 0x20 DUP3 DUP5 SUB SLT ISZERO PUSH2 0x474 JUMPI PUSH0 DUP1 REVERT JUMPDEST PUSH2 0x47D DUP3 PUSH2 0x449 JUMP JUMPDEST SWAP4 SWAP3 POP POP POP JUMP JUMPDEST PUSH0 DUP2 MLOAD DUP1 DUP5 MSTORE PUSH1 0x20 DUP5 ADD SWAP4 POP PUSH1 0x20 DUP4 ADD PUSH0 JUMPDEST DUP3 DUP2 LT ISZERO PUSH2 0x4BD JUMPI DUP2 MLOAD PUSH1 0x1 PUSH1 0x1 PUSH1 0xA0 SHL SUB AND DUP7 MSTORE PUSH1 0x20 SWAP6 DUP7 ADD SWAP6 SWAP1 SWAP2 ADD SWAP1 PUSH1 0x1 ADD PUSH2 0x496 JUMP JUMPDEST POP SWAP4 SWAP5 SWAP4 POP POP POP POP JUMP JUMPDEST PUSH1 0x40 DUP2 MSTORE PUSH0 PUSH2 0x4D9 PUSH1 0x40 DUP4 ADD DUP6 PUSH2 0x484 JUMP JUMPDEST DUP3 DUP2 SUB PUSH1 0x20 DUP5 ADD MSTORE DUP1 DUP5 MLOAD DUP1 DUP4 MSTORE PUSH1 0x20 DUP4 ADD SWAP2 POP PUSH1 0x20 DUP7 ADD SWAP3 POP PUSH0 JUMPDEST DUP2 DUP2 LT ISZERO PUSH2 0x513 JUMPI DUP4 MLOAD DUP4 MSTORE PUSH1 0x20 SWAP4 DUP5 ADD SWAP4 SWAP1 SWAP3 ADD SWAP2 PUSH1 0x1 ADD PUSH2 0x4F5 JUMP JUMPDEST POP SWAP1 SWAP7 SWAP6 POP POP POP POP POP POP JUMP JUMPDEST PUSH1 0x20 DUP2 MSTORE PUSH0 PUSH2 0x47D PUSH1 0x20 DUP4 ADD DUP5 PUSH2 0x484 JUMP JUMPDEST PUSH0 DUP1 PUSH1 0x40 DUP4 DUP6 SUB SLT ISZERO PUSH2 0x542 JUMPI PUSH0 DUP1 REVERT JUMPDEST PUSH2 0x54B DUP4 PUSH2 0x449 JUMP JUMPDEST SWAP5 PUSH1 0x20 SWAP4 SWAP1 SWAP4 ADD CALLDATALOAD SWAP4 POP POP POP JUMP JUMPDEST PUSH4 0x4E487B71 PUSH1 0xE0 SHL PUSH0 MSTORE PUSH1 0x32 PUSH1 0x4 MSTORE PUSH1 0x24 PUSH0 REVERT JUMPDEST DUP2 DUP2 SUB DUP2 DUP2 GT ISZERO PUSH2 0x58C JUMPI PUSH4 0x4E487B71 PUSH1 0xE0 SHL PUSH0 MSTORE PUSH1 0x11 PUSH1 0x4 MSTORE PUSH1 0x24 PUSH0 REVERT JUMPDEST SWAP3 SWAP2 POP POP JUMP JUMPDEST PUSH4 0x4E487B71 PUSH1 0xE0 SHL PUSH0 MSTORE PUSH1 0x31 PUSH1 0x4 MSTORE PUSH1 0x24 PUSH0 REVERT JUMPDEST PUSH4 0x4E487B71 PUSH1 0xE0 SHL PUSH0 MSTORE PUSH1 0x41 PUSH1 0x4 MSTORE PUSH1 0x24 PUSH0 REVERT INVALID LOG2 PUSH5 0x6970667358 0x22 SLT KECCAK256 0xE9 NUMBER MSIZE POP BLOBHASH REVERT 0xDB ADDMOD DUP2 LOG1 0xEF SWAP1 DUP12 0xC2 BLOBBASEFEE SHL 0xE LT 0xF9 0x4E PUSH10 0x17BA3449090FDE3EE1BA DUP12 PUSH5 0x736F6C6343 STOP ADDMOD BYTE STOP CALLER "
				},
				"gasEstimates": {
					"creation": {
						"codeDepositCost": "304000",
						"executionCost": "341",
						"totalCost": "304341"
					},
					"external": {
						"add(address,uint256)": "97567",
						"get(address)": "2581",
						"getAll()": "infinite",
						"getAllKeys()": "infinite",
						"remove(address)": "infinite"
					}
				},
				"methodIdentifiers": {
					"add(address,uint256)": "f5d82b6b",
					"get(address)": "c2bc2efc",
					"getAll()": "53ed5143",
					"getAllKeys()": "bc87eed3",
					"remove(address)": "29092d0e"
				}
			},
			"storageLayout": {
				"storage": [
					{
						"astId": 5,
						"contract": "contracts/IterableMapping.sol:IterableMapping",
						"label": "data",
						"offset": 0,
						"slot": "0",
						"type": "t_mapping(t_address,t_uint256)"
					},
					{
						"astId": 8,
						"contract": "contracts/IterableMapping.sol:IterableMapping",
						"label": "keys",
						"offset": 0,
						"slot": "1",
						"type": "t_array(t_address)dyn_storage"
					},
					{
						"astId": 12,
						"contract": "contracts/IterableMapping.sol:IterableMapping",
						"label": "keyExists",
						"offset": 0,
						"slot": "2",
						"type": "t_mapping(t_address,t_bool)"
					}
				],
				"types": {
					"t_address": {
						"encoding": "inplace",
						"label": "address",
						"numberOfBytes": "20"
					},
					"t_array(t_address)dyn_storage": {
						"base": "t_address",
						"encoding": "dynamic_array",
						"label": "address[]",
						"numberOfBytes": "32"
					},
					"t_bool": {
						"encoding": "inplace",
						"label": "bool",
						"numberOfBytes": "1"
					},
					"t_mapping(t_address,t_bool)": {
						"encoding": "mapping",
						"key": "t_address",
						"label": "mapping(address => bool)",
						"numberOfBytes": "32",
						"value": "t_bool"
					},
					"t_mapping(t_address,t_uint256)": {
						"encoding": "mapping",
						"key": "t_address",
						"label": "mapping(address => uint256)",
						"numberOfBytes": "32",
						"value": "t_uint256"
					},
					"t_uint256": {
						"encoding": "inplace",
						"label": "uint256",
						"numberOfBytes": "32"
					}
				}
			},
			"userdoc": {
				"kind": "user",
				"methods": {},
				"version": 1
			}
		}
	}
}