{
	"contracts/14ExamplesOfRemoving.sol": {
		"ArrayRemoveByShifting": {
			"abi": [
				{
					"inputs": [
						{
							"internalType": "uint256",
							"name": "",
							"type": "uint256"
						}
					],
					"name": "arr",
					"outputs": [
						{
							"internalType": "uint256",
							"name": "",
							"type": "uint256"
						}
					],
					"stateMutability": "view",
					"type": "function"
				},
				{
					"inputs": [
						{
							"internalType": "uint256",
							"name": "_index",
							"type": "uint256"
						}
					],
					"name": "remove",
					"outputs": [],
					"stateMutability": "nonpayable",
					"type": "function"
				},
				{
					"inputs": [],
					"name": "test",
					"outputs": [],
					"stateMutability": "nonpayable",
					"type": "function"
				}
			],
			"devdoc": {
				"kind": "dev",
				"methods": {},
				"version": 1
			},
			"evm": {
				"assembly": "    /* \"contracts/14ExamplesOfRemoving.sol\":58:968  contract ArrayRemoveByShifting {... */\n  mstore(0x40, 0x80)\n  callvalue\n  dup1\n  iszero\n  tag_1\n  jumpi\n  0x00\n  dup1\n  revert\ntag_1:\n  pop\n  dataSize(sub_0)\n  dup1\n  dataOffset(sub_0)\n  0x00\n  codecopy\n  0x00\n  return\nstop\n\nsub_0: assembly {\n        /* \"contracts/14ExamplesOfRemoving.sol\":58:968  contract ArrayRemoveByShifting {... */\n      mstore(0x40, 0x80)\n      callvalue\n      dup1\n      iszero\n      tag_1\n      jumpi\n      0x00\n      dup1\n      revert\n    tag_1:\n      pop\n      jumpi(tag_2, lt(calldatasize, 0x04))\n      shr(0xe0, calldataload(0x00))\n      dup1\n      0x4cc82215\n      eq\n      tag_3\n      jumpi\n      dup1\n      0x71e5ee5f\n      eq\n      tag_4\n      jumpi\n      dup1\n      0xf8a8fd6d\n      eq\n      tag_5\n      jumpi\n    tag_2:\n      0x00\n      dup1\n      revert\n        /* \"contracts/14ExamplesOfRemoving.sol\":381:610  function remove(uint256 _index) public {... */\n    tag_3:\n      tag_6\n      tag_7\n      calldatasize\n      0x04\n      tag_8\n      jump\t// in\n    tag_7:\n      tag_9\n      jump\t// in\n    tag_6:\n      stop\n        /* \"contracts/14ExamplesOfRemoving.sol\":354:374  uint256[] public arr */\n    tag_4:\n      tag_10\n      tag_11\n      calldatasize\n      0x04\n      tag_8\n      jump\t// in\n    tag_11:\n      tag_12\n      jump\t// in\n    tag_10:\n      mload(0x40)\n        /* \"#utility.yul\":345:370   */\n      swap1\n      dup2\n      mstore\n        /* \"#utility.yul\":333:335   */\n      0x20\n        /* \"#utility.yul\":318:336   */\n      add\n        /* \"contracts/14ExamplesOfRemoving.sol\":354:374  uint256[] public arr */\n      mload(0x40)\n      dup1\n      swap2\n      sub\n      swap1\n      return\n        /* \"contracts/14ExamplesOfRemoving.sol\":616:966  function test() external {... */\n    tag_5:\n      tag_6\n      tag_16\n      jump\t// in\n        /* \"contracts/14ExamplesOfRemoving.sol\":381:610  function remove(uint256 _index) public {... */\n    tag_9:\n        /* \"contracts/14ExamplesOfRemoving.sol\":447:450  arr */\n      0x00\n        /* \"contracts/14ExamplesOfRemoving.sol\":447:457  arr.length */\n      sload\n        /* \"contracts/14ExamplesOfRemoving.sol\":438:457  _index < arr.length */\n      dup2\n      lt\n        /* \"contracts/14ExamplesOfRemoving.sol\":430:480  require(_index < arr.length, \"index out of bound\") */\n      tag_18\n      jumpi\n      mload(0x40)\n      shl(0xe5, 0x461bcd)\n      dup2\n      mstore\n        /* \"#utility.yul\":583:585   */\n      0x20\n        /* \"contracts/14ExamplesOfRemoving.sol\":430:480  require(_index < arr.length, \"index out of bound\") */\n      0x04\n      dup3\n      add\n        /* \"#utility.yul\":565:586   */\n      mstore\n        /* \"#utility.yul\":622:624   */\n      0x12\n        /* \"#utility.yul\":602:620   */\n      0x24\n      dup3\n      add\n        /* \"#utility.yul\":595:625   */\n      mstore\n      shl(0x72, 0x1a5b99195e081bdd5d081bd988189bdd5b99)\n        /* \"#utility.yul\":641:659   */\n      0x44\n      dup3\n      add\n        /* \"#utility.yul\":634:682   */\n      mstore\n        /* \"#utility.yul\":699:717   */\n      0x64\n      add\n        /* \"contracts/14ExamplesOfRemoving.sol\":430:480  require(_index < arr.length, \"index out of bound\") */\n      mload(0x40)\n      dup1\n      swap2\n      sub\n      swap1\n      revert\n    tag_18:\n        /* \"contracts/14ExamplesOfRemoving.sol\":508:514  _index */\n      dup1\n        /* \"contracts/14ExamplesOfRemoving.sol\":491:585  for (uint256 i = _index; i < arr.length - 1; i++) {... */\n    tag_21:\n        /* \"contracts/14ExamplesOfRemoving.sol\":520:523  arr */\n      0x00\n        /* \"contracts/14ExamplesOfRemoving.sol\":520:530  arr.length */\n      sload\n        /* \"contracts/14ExamplesOfRemoving.sol\":520:534  arr.length - 1 */\n      tag_24\n      swap1\n        /* \"contracts/14ExamplesOfRemoving.sol\":533:534  1 */\n      0x01\n      swap1\n        /* \"contracts/14ExamplesOfRemoving.sol\":520:534  arr.length - 1 */\n      tag_25\n      jump\t// in\n    tag_24:\n        /* \"contracts/14ExamplesOfRemoving.sol\":516:517  i */\n      dup2\n        /* \"contracts/14ExamplesOfRemoving.sol\":516:534  i < arr.length - 1 */\n      lt\n        /* \"contracts/14ExamplesOfRemoving.sol\":491:585  for (uint256 i = _index; i < arr.length - 1; i++) {... */\n      iszero\n      tag_22\n      jumpi\n        /* \"contracts/14ExamplesOfRemoving.sol\":564:567  arr */\n      0x00\n        /* \"contracts/14ExamplesOfRemoving.sol\":568:573  i + 1 */\n      tag_26\n        /* \"contracts/14ExamplesOfRemoving.sol\":568:569  i */\n      dup3\n        /* \"contracts/14ExamplesOfRemoving.sol\":572:573  1 */\n      0x01\n        /* \"contracts/14ExamplesOfRemoving.sol\":568:573  i + 1 */\n      tag_27\n      jump\t// in\n    tag_26:\n        /* \"contracts/14ExamplesOfRemoving.sol\":564:574  arr[i + 1] */\n      dup2\n      sload\n      dup2\n      lt\n      tag_29\n      jumpi\n      tag_29\n      tag_30\n      jump\t// in\n    tag_29:\n      swap1\n      0x00\n      mstore\n      keccak256(0x00, 0x20)\n      add\n      sload\n        /* \"contracts/14ExamplesOfRemoving.sol\":555:558  arr */\n      0x00\n        /* \"contracts/14ExamplesOfRemoving.sol\":559:560  i */\n      dup3\n        /* \"contracts/14ExamplesOfRemoving.sol\":555:561  arr[i] */\n      dup2\n      sload\n      dup2\n      lt\n      tag_33\n      jumpi\n      tag_33\n      tag_30\n      jump\t// in\n    tag_33:\n      0x00\n      swap2\n      dup3\n      mstore\n      0x20\n      swap1\n      swap2\n      keccak256\n      add\n        /* \"contracts/14ExamplesOfRemoving.sol\":555:574  arr[i] = arr[i + 1] */\n      sstore\n        /* \"contracts/14ExamplesOfRemoving.sol\":536:539  i++ */\n      0x01\n      add\n        /* \"contracts/14ExamplesOfRemoving.sol\":491:585  for (uint256 i = _index; i < arr.length - 1; i++) {... */\n      jump(tag_21)\n    tag_22:\n      pop\n        /* \"contracts/14ExamplesOfRemoving.sol\":594:597  arr */\n      0x00\n        /* \"contracts/14ExamplesOfRemoving.sol\":594:603  arr.pop() */\n      dup1\n      sload\n      dup1\n      tag_36\n      jumpi\n      tag_36\n      tag_37\n      jump\t// in\n    tag_36:\n      0x01\n      swap1\n      sub\n      dup2\n      dup2\n      swap1\n      0x00\n      mstore\n      keccak256(0x00, 0x20)\n      add\n      0x00\n      swap1\n      sstore\n      swap1\n      sstore\n        /* \"contracts/14ExamplesOfRemoving.sol\":381:610  function remove(uint256 _index) public {... */\n      pop\n      jump\t// out\n        /* \"contracts/14ExamplesOfRemoving.sol\":354:374  uint256[] public arr */\n    tag_12:\n      0x00\n      dup2\n      dup2\n      sload\n      dup2\n      lt\n      tag_39\n      jumpi\n      0x00\n      dup1\n      revert\n    tag_39:\n      0x00\n      swap2\n      dup3\n      mstore\n      0x20\n      swap1\n      swap2\n      keccak256\n      add\n      sload\n      swap1\n      pop\n      dup2\n      jump\t// out\n        /* \"contracts/14ExamplesOfRemoving.sol\":616:966  function test() external {... */\n    tag_16:\n        /* \"contracts/14ExamplesOfRemoving.sol\":651:672  arr = [1, 2, 3, 4, 5] */\n      0x40\n      dup1\n      mload\n      0xa0\n      dup2\n      add\n      dup3\n      mstore\n        /* \"contracts/14ExamplesOfRemoving.sol\":658:659  1 */\n      0x01\n        /* \"contracts/14ExamplesOfRemoving.sol\":651:672  arr = [1, 2, 3, 4, 5] */\n      dup2\n      mstore\n        /* \"contracts/14ExamplesOfRemoving.sol\":661:662  2 */\n      0x02\n        /* \"contracts/14ExamplesOfRemoving.sol\":651:672  arr = [1, 2, 3, 4, 5] */\n      0x20\n      dup3\n      add\n      mstore\n        /* \"contracts/14ExamplesOfRemoving.sol\":664:665  3 */\n      0x03\n        /* \"contracts/14ExamplesOfRemoving.sol\":651:672  arr = [1, 2, 3, 4, 5] */\n      swap2\n      dup2\n      add\n      swap2\n      swap1\n      swap2\n      mstore\n        /* \"contracts/14ExamplesOfRemoving.sol\":667:668  4 */\n      0x04\n        /* \"contracts/14ExamplesOfRemoving.sol\":651:672  arr = [1, 2, 3, 4, 5] */\n      0x60\n      dup3\n      add\n      mstore\n        /* \"contracts/14ExamplesOfRemoving.sol\":670:671  5 */\n      0x05\n        /* \"contracts/14ExamplesOfRemoving.sol\":651:672  arr = [1, 2, 3, 4, 5] */\n      0x80\n      dup3\n      add\n      dup2\n      swap1\n      mstore\n      tag_42\n      swap2\n      0x00\n      swap2\n      tag_43\n      jump\t// in\n    tag_42:\n      pop\n        /* \"contracts/14ExamplesOfRemoving.sol\":682:691  remove(2) */\n      tag_44\n        /* \"contracts/14ExamplesOfRemoving.sol\":689:690  2 */\n      0x02\n        /* \"contracts/14ExamplesOfRemoving.sol\":682:688  remove */\n      tag_9\n        /* \"contracts/14ExamplesOfRemoving.sol\":682:691  remove(2) */\n      jump\t// in\n    tag_44:\n        /* \"contracts/14ExamplesOfRemoving.sol\":732:735  arr */\n      0x00\n        /* \"contracts/14ExamplesOfRemoving.sol\":736:737  0 */\n      dup1\n        /* \"contracts/14ExamplesOfRemoving.sol\":732:738  arr[0] */\n      dup2\n      sload\n      dup2\n      lt\n      tag_46\n      jumpi\n      tag_46\n      tag_30\n      jump\t// in\n    tag_46:\n      swap1\n      0x00\n      mstore\n      keccak256(0x00, 0x20)\n      add\n      sload\n        /* \"contracts/14ExamplesOfRemoving.sol\":742:743  1 */\n      0x01\n        /* \"contracts/14ExamplesOfRemoving.sol\":732:743  arr[0] == 1 */\n      eq\n        /* \"contracts/14ExamplesOfRemoving.sol\":725:744  assert(arr[0] == 1) */\n      tag_49\n      jumpi\n      tag_49\n      tag_50\n      jump\t// in\n    tag_49:\n        /* \"contracts/14ExamplesOfRemoving.sol\":761:764  arr */\n      0x00\n        /* \"contracts/14ExamplesOfRemoving.sol\":765:766  1 */\n      0x01\n        /* \"contracts/14ExamplesOfRemoving.sol\":761:767  arr[1] */\n      dup2\n      sload\n      dup2\n      lt\n      tag_52\n      jumpi\n      tag_52\n      tag_30\n      jump\t// in\n    tag_52:\n      swap1\n      0x00\n      mstore\n      keccak256(0x00, 0x20)\n      add\n      sload\n        /* \"contracts/14ExamplesOfRemoving.sol\":771:772  2 */\n      0x02\n        /* \"contracts/14ExamplesOfRemoving.sol\":761:772  arr[1] == 2 */\n      eq\n        /* \"contracts/14ExamplesOfRemoving.sol\":754:773  assert(arr[1] == 2) */\n      tag_55\n      jumpi\n      tag_55\n      tag_50\n      jump\t// in\n    tag_55:\n        /* \"contracts/14ExamplesOfRemoving.sol\":884:893  arr = [1] */\n      0x40\n      dup1\n      mload\n      0x20\n      dup2\n      add\n      swap1\n      swap2\n      mstore\n        /* \"contracts/14ExamplesOfRemoving.sol\":891:892  1 */\n      0x01\n        /* \"contracts/14ExamplesOfRemoving.sol\":884:893  arr = [1] */\n      dup1\n      dup3\n      mstore\n      tag_56\n      swap2\n      0x00\n      swap2\n      tag_43\n      jump\t// in\n    tag_56:\n      pop\n        /* \"contracts/14ExamplesOfRemoving.sol\":903:912  remove(0) */\n      tag_58\n        /* \"contracts/14ExamplesOfRemoving.sol\":910:911  0 */\n      0x00\n        /* \"contracts/14ExamplesOfRemoving.sol\":903:909  remove */\n      tag_9\n        /* \"contracts/14ExamplesOfRemoving.sol\":903:912  remove(0) */\n      jump\t// in\n    tag_58:\n        /* \"contracts/14ExamplesOfRemoving.sol\":943:946  arr */\n      0x00\n        /* \"contracts/14ExamplesOfRemoving.sol\":943:953  arr.length */\n      sload\n        /* \"contracts/14ExamplesOfRemoving.sol\":943:958  arr.length == 0 */\n      iszero\n        /* \"contracts/14ExamplesOfRemoving.sol\":936:959  assert(arr.length == 0) */\n      tag_60\n      jumpi\n      tag_60\n      tag_50\n      jump\t// in\n    tag_60:\n        /* \"contracts/14ExamplesOfRemoving.sol\":616:966  function test() external {... */\n      jump\t// out\n    tag_43:\n      dup3\n      dup1\n      sload\n      dup3\n      dup3\n      sstore\n      swap1\n      0x00\n      mstore\n      keccak256(0x00, 0x20)\n      swap1\n      dup2\n      add\n      swap3\n      dup3\n      iszero\n      tag_63\n      jumpi\n      swap2\n      0x20\n      mul\n      dup3\n      add\n    tag_62:\n      dup3\n      dup2\n      gt\n      iszero\n      tag_63\n      jumpi\n      dup3\n      mload\n      dup3\n      swap1\n      0xff\n      and\n      swap1\n      sstore\n      swap2\n      0x20\n      add\n      swap2\n      swap1\n      0x01\n      add\n      swap1\n      jump(tag_62)\n    tag_63:\n      pop\n      tag_64\n      swap3\n      swap2\n      pop\n      tag_65\n      jump\t// in\n    tag_64:\n      pop\n      swap1\n      jump\t// out\n    tag_65:\n    tag_70:\n      dup1\n      dup3\n      gt\n      iszero\n      tag_64\n      jumpi\n      0x00\n      dup2\n      sstore\n      0x01\n      add\n      jump(tag_70)\n        /* \"#utility.yul\":14:194   */\n    tag_8:\n        /* \"#utility.yul\":73:79   */\n      0x00\n        /* \"#utility.yul\":126:128   */\n      0x20\n        /* \"#utility.yul\":114:123   */\n      dup3\n        /* \"#utility.yul\":105:112   */\n      dup5\n        /* \"#utility.yul\":101:124   */\n      sub\n        /* \"#utility.yul\":97:129   */\n      slt\n        /* \"#utility.yul\":94:146   */\n      iszero\n      tag_75\n      jumpi\n        /* \"#utility.yul\":142:143   */\n      0x00\n        /* \"#utility.yul\":139:140   */\n      dup1\n        /* \"#utility.yul\":132:144   */\n      revert\n        /* \"#utility.yul\":94:146   */\n    tag_75:\n      pop\n        /* \"#utility.yul\":165:188   */\n      calldataload\n      swap2\n        /* \"#utility.yul\":14:194   */\n      swap1\n      pop\n      jump\t// out\n        /* \"#utility.yul\":728:855   */\n    tag_72:\n        /* \"#utility.yul\":789:799   */\n      0x4e487b71\n        /* \"#utility.yul\":784:787   */\n      0xe0\n        /* \"#utility.yul\":780:800   */\n      shl\n        /* \"#utility.yul\":777:778   */\n      0x00\n        /* \"#utility.yul\":770:801   */\n      mstore\n        /* \"#utility.yul\":820:824   */\n      0x11\n        /* \"#utility.yul\":817:818   */\n      0x04\n        /* \"#utility.yul\":810:825   */\n      mstore\n        /* \"#utility.yul\":844:848   */\n      0x24\n        /* \"#utility.yul\":841:842   */\n      0x00\n        /* \"#utility.yul\":834:849   */\n      revert\n        /* \"#utility.yul\":860:988   */\n    tag_25:\n        /* \"#utility.yul\":927:936   */\n      dup2\n      dup2\n      sub\n        /* \"#utility.yul\":948:959   */\n      dup2\n      dup2\n      gt\n        /* \"#utility.yul\":945:982   */\n      iszero\n      tag_81\n      jumpi\n        /* \"#utility.yul\":962:980   */\n      tag_81\n      tag_72\n      jump\t// in\n    tag_81:\n        /* \"#utility.yul\":860:988   */\n      swap3\n      swap2\n      pop\n      pop\n      jump\t// out\n        /* \"#utility.yul\":993:1118   */\n    tag_27:\n        /* \"#utility.yul\":1058:1067   */\n      dup1\n      dup3\n      add\n        /* \"#utility.yul\":1079:1089   */\n      dup1\n      dup3\n      gt\n        /* \"#utility.yul\":1076:1112   */\n      iszero\n      tag_81\n      jumpi\n        /* \"#utility.yul\":1092:1110   */\n      tag_81\n      tag_72\n      jump\t// in\n        /* \"#utility.yul\":1123:1250   */\n    tag_30:\n        /* \"#utility.yul\":1184:1194   */\n      0x4e487b71\n        /* \"#utility.yul\":1179:1182   */\n      0xe0\n        /* \"#utility.yul\":1175:1195   */\n      shl\n        /* \"#utility.yul\":1172:1173   */\n      0x00\n        /* \"#utility.yul\":1165:1196   */\n      mstore\n        /* \"#utility.yul\":1215:1219   */\n      0x32\n        /* \"#utility.yul\":1212:1213   */\n      0x04\n        /* \"#utility.yul\":1205:1220   */\n      mstore\n        /* \"#utility.yul\":1239:1243   */\n      0x24\n        /* \"#utility.yul\":1236:1237   */\n      0x00\n        /* \"#utility.yul\":1229:1244   */\n      revert\n        /* \"#utility.yul\":1255:1382   */\n    tag_37:\n        /* \"#utility.yul\":1316:1326   */\n      0x4e487b71\n        /* \"#utility.yul\":1311:1314   */\n      0xe0\n        /* \"#utility.yul\":1307:1327   */\n      shl\n        /* \"#utility.yul\":1304:1305   */\n      0x00\n        /* \"#utility.yul\":1297:1328   */\n      mstore\n        /* \"#utility.yul\":1347:1351   */\n      0x31\n        /* \"#utility.yul\":1344:1345   */\n      0x04\n        /* \"#utility.yul\":1337:1352   */\n      mstore\n        /* \"#utility.yul\":1371:1375   */\n      0x24\n        /* \"#utility.yul\":1368:1369   */\n      0x00\n        /* \"#utility.yul\":1361:1376   */\n      revert\n        /* \"#utility.yul\":1387:1514   */\n    tag_50:\n        /* \"#utility.yul\":1448:1458   */\n      0x4e487b71\n        /* \"#utility.yul\":1443:1446   */\n      0xe0\n        /* \"#utility.yul\":1439:1459   */\n      shl\n        /* \"#utility.yul\":1436:1437   */\n      0x00\n        /* \"#utility.yul\":1429:1460   */\n      mstore\n        /* \"#utility.yul\":1479:1483   */\n      0x01\n        /* \"#utility.yul\":1476:1477   */\n      0x04\n        /* \"#utility.yul\":1469:1484   */\n      mstore\n        /* \"#utility.yul\":1503:1507   */\n      0x24\n        /* \"#utility.yul\":1500:1501   */\n      0x00\n        /* \"#utility.yul\":1493:1508   */\n      revert\n\n    auxdata: 0xa26469706673582212208cd38ff1595eb31302362d98f3bfbbe4a4c547e5950b0c5634cd70a8f14adfd764736f6c634300081a0033\n}\n",
				"bytecode": {
					"linkReferences": {},
					"object": "6080604052348015600e575f80fd5b5061036e8061001c5f395ff3fe608060405234801561000f575f80fd5b506004361061003f575f3560e01c80634cc822151461004357806371e5ee5f14610058578063f8a8fd6d1461007d575b5f80fd5b6100566100513660046102a5565b610085565b005b61006b6100663660046102a5565b610156565b60405190815260200160405180910390f35b610056610174565b5f5481106100ce5760405162461bcd60e51b81526020600482015260126024820152711a5b99195e081bdd5d081bd988189bdd5b9960721b604482015260640160405180910390fd5b805b5f546100de906001906102d0565b81101561012f575f6100f18260016102e9565b81548110610101576101016102fc565b905f5260205f2001545f828154811061011c5761011c6102fc565b5f918252602090912001556001016100d0565b505f80548061014057610140610310565b600190038181905f5260205f20015f9055905550565b5f8181548110610164575f80fd5b5f91825260209091200154905081565b6040805160a0810182526001815260026020820152600391810191909152600460608201526005608082018190526101ad915f91610243565b506101b86002610085565b5f80815481106101ca576101ca6102fc565b905f5260205f2001546001146101e2576101e2610324565b5f6001815481106101f5576101f56102fc565b905f5260205f20015460021461020d5761020d610324565b60408051602081019091526001808252610228915f91610243565b506102325f610085565b5f541561024157610241610324565b565b828054828255905f5260205f20908101928215610281579160200282015b82811115610281578251829060ff16905591602001919060010190610261565b5061028d929150610291565b5090565b5b8082111561028d575f8155600101610292565b5f602082840312156102b5575f80fd5b5035919050565b634e487b7160e01b5f52601160045260245ffd5b818103818111156102e3576102e36102bc565b92915050565b808201808211156102e3576102e36102bc565b634e487b7160e01b5f52603260045260245ffd5b634e487b7160e01b5f52603160045260245ffd5b634e487b7160e01b5f52600160045260245ffdfea26469706673582212208cd38ff1595eb31302362d98f3bfbbe4a4c547e5950b0c5634cd70a8f14adfd764736f6c634300081a0033",
					"opcodes": "PUSH1 0x80 PUSH1 0x40 MSTORE CALLVALUE DUP1 ISZERO PUSH1 0xE JUMPI PUSH0 DUP1 REVERT JUMPDEST POP PUSH2 0x36E DUP1 PUSH2 0x1C PUSH0 CODECOPY PUSH0 RETURN INVALID PUSH1 0x80 PUSH1 0x40 MSTORE CALLVALUE DUP1 ISZERO PUSH2 0xF JUMPI PUSH0 DUP1 REVERT JUMPDEST POP PUSH1 0x4 CALLDATASIZE LT PUSH2 0x3F JUMPI PUSH0 CALLDATALOAD PUSH1 0xE0 SHR DUP1 PUSH4 0x4CC82215 EQ PUSH2 0x43 JUMPI DUP1 PUSH4 0x71E5EE5F EQ PUSH2 0x58 JUMPI DUP1 PUSH4 0xF8A8FD6D EQ PUSH2 0x7D JUMPI JUMPDEST PUSH0 DUP1 REVERT JUMPDEST PUSH2 0x56 PUSH2 0x51 CALLDATASIZE PUSH1 0x4 PUSH2 0x2A5 JUMP JUMPDEST PUSH2 0x85 JUMP JUMPDEST STOP JUMPDEST PUSH2 0x6B PUSH2 0x66 CALLDATASIZE PUSH1 0x4 PUSH2 0x2A5 JUMP JUMPDEST PUSH2 0x156 JUMP JUMPDEST PUSH1 0x40 MLOAD SWAP1 DUP2 MSTORE PUSH1 0x20 ADD PUSH1 0x40 MLOAD DUP1 SWAP2 SUB SWAP1 RETURN JUMPDEST PUSH2 0x56 PUSH2 0x174 JUMP JUMPDEST PUSH0 SLOAD DUP2 LT PUSH2 0xCE JUMPI PUSH1 0x40 MLOAD PUSH3 0x461BCD PUSH1 0xE5 SHL DUP2 MSTORE PUSH1 0x20 PUSH1 0x4 DUP3 ADD MSTORE PUSH1 0x12 PUSH1 0x24 DUP3 ADD MSTORE PUSH18 0x1A5B99195E081BDD5D081BD988189BDD5B99 PUSH1 0x72 SHL PUSH1 0x44 DUP3 ADD MSTORE PUSH1 0x64 ADD PUSH1 0x40 MLOAD DUP1 SWAP2 SUB SWAP1 REVERT JUMPDEST DUP1 JUMPDEST PUSH0 SLOAD PUSH2 0xDE SWAP1 PUSH1 0x1 SWAP1 PUSH2 0x2D0 JUMP JUMPDEST DUP2 LT ISZERO PUSH2 0x12F JUMPI PUSH0 PUSH2 0xF1 DUP3 PUSH1 0x1 PUSH2 0x2E9 JUMP JUMPDEST DUP2 SLOAD DUP2 LT PUSH2 0x101 JUMPI PUSH2 0x101 PUSH2 0x2FC JUMP JUMPDEST SWAP1 PUSH0 MSTORE PUSH1 0x20 PUSH0 KECCAK256 ADD SLOAD PUSH0 DUP3 DUP2 SLOAD DUP2 LT PUSH2 0x11C JUMPI PUSH2 0x11C PUSH2 0x2FC JUMP JUMPDEST PUSH0 SWAP2 DUP3 MSTORE PUSH1 0x20 SWAP1 SWAP2 KECCAK256 ADD SSTORE PUSH1 0x1 ADD PUSH2 0xD0 JUMP JUMPDEST POP PUSH0 DUP1 SLOAD DUP1 PUSH2 0x140 JUMPI PUSH2 0x140 PUSH2 0x310 JUMP JUMPDEST PUSH1 0x1 SWAP1 SUB DUP2 DUP2 SWAP1 PUSH0 MSTORE PUSH1 0x20 PUSH0 KECCAK256 ADD PUSH0 SWAP1 SSTORE SWAP1 SSTORE POP JUMP JUMPDEST PUSH0 DUP2 DUP2 SLOAD DUP2 LT PUSH2 0x164 JUMPI PUSH0 DUP1 REVERT JUMPDEST PUSH0 SWAP2 DUP3 MSTORE PUSH1 0x20 SWAP1 SWAP2 KECCAK256 ADD SLOAD SWAP1 POP DUP2 JUMP JUMPDEST PUSH1 0x40 DUP1 MLOAD PUSH1 0xA0 DUP2 ADD DUP3 MSTORE PUSH1 0x1 DUP2 MSTORE PUSH1 0x2 PUSH1 0x20 DUP3 ADD MSTORE PUSH1 0x3 SWAP2 DUP2 ADD SWAP2 SWAP1 SWAP2 MSTORE PUSH1 0x4 PUSH1 0x60 DUP3 ADD MSTORE PUSH1 0x5 PUSH1 0x80 DUP3 ADD DUP2 SWAP1 MSTORE PUSH2 0x1AD SWAP2 PUSH0 SWAP2 PUSH2 0x243 JUMP JUMPDEST POP PUSH2 0x1B8 PUSH1 0x2 PUSH2 0x85 JUMP JUMPDEST PUSH0 DUP1 DUP2 SLOAD DUP2 LT PUSH2 0x1CA JUMPI PUSH2 0x1CA PUSH2 0x2FC JUMP JUMPDEST SWAP1 PUSH0 MSTORE PUSH1 0x20 PUSH0 KECCAK256 ADD SLOAD PUSH1 0x1 EQ PUSH2 0x1E2 JUMPI PUSH2 0x1E2 PUSH2 0x324 JUMP JUMPDEST PUSH0 PUSH1 0x1 DUP2 SLOAD DUP2 LT PUSH2 0x1F5 JUMPI PUSH2 0x1F5 PUSH2 0x2FC JUMP JUMPDEST SWAP1 PUSH0 MSTORE PUSH1 0x20 PUSH0 KECCAK256 ADD SLOAD PUSH1 0x2 EQ PUSH2 0x20D JUMPI PUSH2 0x20D PUSH2 0x324 JUMP JUMPDEST PUSH1 0x40 DUP1 MLOAD PUSH1 0x20 DUP2 ADD SWAP1 SWAP2 MSTORE PUSH1 0x1 DUP1 DUP3 MSTORE PUSH2 0x228 SWAP2 PUSH0 SWAP2 PUSH2 0x243 JUMP JUMPDEST POP PUSH2 0x232 PUSH0 PUSH2 0x85 JUMP JUMPDEST PUSH0 SLOAD ISZERO PUSH2 0x241 JUMPI PUSH2 0x241 PUSH2 0x324 JUMP JUMPDEST JUMP JUMPDEST DUP3 DUP1 SLOAD DUP3 DUP3 SSTORE SWAP1 PUSH0 MSTORE PUSH1 0x20 PUSH0 KECCAK256 SWAP1 DUP2 ADD SWAP3 DUP3 ISZERO PUSH2 0x281 JUMPI SWAP2 PUSH1 0x20 MUL DUP3 ADD JUMPDEST DUP3 DUP2 GT ISZERO PUSH2 0x281 JUMPI DUP3 MLOAD DUP3 SWAP1 PUSH1 0xFF AND SWAP1 SSTORE SWAP2 PUSH1 0x20 ADD SWAP2 SWAP1 PUSH1 0x1 ADD SWAP1 PUSH2 0x261 JUMP JUMPDEST POP PUSH2 0x28D SWAP3 SWAP2 POP PUSH2 0x291 JUMP JUMPDEST POP SWAP1 JUMP JUMPDEST JUMPDEST DUP1 DUP3 GT ISZERO PUSH2 0x28D JUMPI PUSH0 DUP2 SSTORE PUSH1 0x1 ADD PUSH2 0x292 JUMP JUMPDEST PUSH0 PUSH1 0x20 DUP3 DUP5 SUB SLT ISZERO PUSH2 0x2B5 JUMPI PUSH0 DUP1 REVERT JUMPDEST POP CALLDATALOAD SWAP2 SWAP1 POP JUMP JUMPDEST PUSH4 0x4E487B71 PUSH1 0xE0 SHL PUSH0 MSTORE PUSH1 0x11 PUSH1 0x4 MSTORE PUSH1 0x24 PUSH0 REVERT JUMPDEST DUP2 DUP2 SUB DUP2 DUP2 GT ISZERO PUSH2 0x2E3 JUMPI PUSH2 0x2E3 PUSH2 0x2BC JUMP JUMPDEST SWAP3 SWAP2 POP POP JUMP JUMPDEST DUP1 DUP3 ADD DUP1 DUP3 GT ISZERO PUSH2 0x2E3 JUMPI PUSH2 0x2E3 PUSH2 0x2BC JUMP JUMPDEST PUSH4 0x4E487B71 PUSH1 0xE0 SHL PUSH0 MSTORE PUSH1 0x32 PUSH1 0x4 MSTORE PUSH1 0x24 PUSH0 REVERT JUMPDEST PUSH4 0x4E487B71 PUSH1 0xE0 SHL PUSH0 MSTORE PUSH1 0x31 PUSH1 0x4 MSTORE PUSH1 0x24 PUSH0 REVERT JUMPDEST PUSH4 0x4E487B71 PUSH1 0xE0 SHL PUSH0 MSTORE PUSH1 0x1 PUSH1 0x4 MSTORE PUSH1 0x24 PUSH0 REVERT INVALID LOG2 PUSH5 0x6970667358 0x22 SLT KECCAK256 DUP13 0xD3 DUP16 CALL MSIZE MCOPY 0xB3 SGT MUL CALLDATASIZE 0x2D SWAP9 RETURN 0xBF 0xBB 0xE4 LOG4 0xC5 SELFBALANCE 0xE5 SWAP6 SIGNEXTEND 0xC JUMP CALLVALUE 0xCD PUSH17 0xA8F14ADFD764736F6C634300081A003300 "
				},
				"gasEstimates": {
					"creation": {
						"codeDepositCost": "175600",
						"executionCost": "218",
						"totalCost": "175818"
					},
					"external": {
						"arr(uint256)": "4559",
						"remove(uint256)": "infinite",
						"test()": "infinite"
					}
				},
				"methodIdentifiers": {
					"arr(uint256)": "71e5ee5f",
					"remove(uint256)": "4cc82215",
					"test()": "f8a8fd6d"
				}
			},
			"storageLayout": {
				"storage": [
					{
						"astId": 4,
						"contract": "contracts/14ExamplesOfRemoving.sol:ArrayRemoveByShifting",
						"label": "arr",
						"offset": 0,
						"slot": "0",
						"type": "t_array(t_uint256)dyn_storage"
					}
				],
				"types": {
					"t_array(t_uint256)dyn_storage": {
						"base": "t_uint256",
						"encoding": "dynamic_array",
						"label": "uint256[]",
						"numberOfBytes": "32"
					},
					"t_uint256": {
						"encoding": "inplace",
						"label": "uint256",
						"numberOfBytes": "32"
					}
				}
			},
			"userdoc": {
				"kind": "user",
				"methods": {},
				"version": 1
			}
		}
	}
}