{
	"contracts/level02/2.WETH 合约/WETH.sol": {
		"WETH": {
			"abi": [
				{
					"anonymous": false,
					"inputs": [
						{
							"indexed": true,
							"internalType": "address",
							"name": "src",
							"type": "address"
						},
						{
							"indexed": true,
							"internalType": "address",
							"name": "delegateAds",
							"type": "address"
						},
						{
							"indexed": false,
							"internalType": "uint256",
							"name": "amount",
							"type": "uint256"
						}
					],
					"name": "Approval",
					"type": "event"
				},
				{
					"anonymous": false,
					"inputs": [
						{
							"indexed": true,
							"internalType": "address",
							"name": "toAds",
							"type": "address"
						},
						{
							"indexed": false,
							"internalType": "uint256",
							"name": "amount",
							"type": "uint256"
						}
					],
					"name": "Deposit",
					"type": "event"
				},
				{
					"anonymous": false,
					"inputs": [
						{
							"indexed": true,
							"internalType": "address",
							"name": "src",
							"type": "address"
						},
						{
							"indexed": false,
							"internalType": "uint256",
							"name": "amount",
							"type": "uint256"
						}
					],
					"name": "TotalSupply",
					"type": "event"
				},
				{
					"anonymous": false,
					"inputs": [
						{
							"indexed": true,
							"internalType": "address",
							"name": "src",
							"type": "address"
						},
						{
							"indexed": true,
							"internalType": "address",
							"name": "toAds",
							"type": "address"
						},
						{
							"indexed": false,
							"internalType": "uint256",
							"name": "amount",
							"type": "uint256"
						}
					],
					"name": "Transfer",
					"type": "event"
				},
				{
					"anonymous": false,
					"inputs": [
						{
							"indexed": true,
							"internalType": "address",
							"name": "src",
							"type": "address"
						},
						{
							"indexed": false,
							"internalType": "uint256",
							"name": "amount",
							"type": "uint256"
						}
					],
					"name": "Withdraw",
					"type": "event"
				},
				{
					"stateMutability": "payable",
					"type": "fallback"
				},
				{
					"inputs": [
						{
							"internalType": "address",
							"name": "",
							"type": "address"
						},
						{
							"internalType": "address",
							"name": "",
							"type": "address"
						}
					],
					"name": "allowance",
					"outputs": [
						{
							"internalType": "uint256",
							"name": "",
							"type": "uint256"
						}
					],
					"stateMutability": "view",
					"type": "function"
				},
				{
					"inputs": [
						{
							"internalType": "address",
							"name": "delegateAds",
							"type": "address"
						},
						{
							"internalType": "uint256",
							"name": "amount",
							"type": "uint256"
						}
					],
					"name": "approve",
					"outputs": [
						{
							"internalType": "bool",
							"name": "",
							"type": "bool"
						}
					],
					"stateMutability": "nonpayable",
					"type": "function"
				},
				{
					"inputs": [
						{
							"internalType": "address",
							"name": "",
							"type": "address"
						}
					],
					"name": "balanceOf",
					"outputs": [
						{
							"internalType": "uint256",
							"name": "",
							"type": "uint256"
						}
					],
					"stateMutability": "view",
					"type": "function"
				},
				{
					"inputs": [],
					"name": "decimals",
					"outputs": [
						{
							"internalType": "uint8",
							"name": "",
							"type": "uint8"
						}
					],
					"stateMutability": "view",
					"type": "function"
				},
				{
					"inputs": [],
					"name": "deposit",
					"outputs": [],
					"stateMutability": "payable",
					"type": "function"
				},
				{
					"inputs": [],
					"name": "name",
					"outputs": [
						{
							"internalType": "string",
							"name": "",
							"type": "string"
						}
					],
					"stateMutability": "view",
					"type": "function"
				},
				{
					"inputs": [],
					"name": "symbol",
					"outputs": [
						{
							"internalType": "string",
							"name": "",
							"type": "string"
						}
					],
					"stateMutability": "view",
					"type": "function"
				},
				{
					"inputs": [],
					"name": "totalAmount",
					"outputs": [
						{
							"internalType": "uint256",
							"name": "",
							"type": "uint256"
						}
					],
					"stateMutability": "view",
					"type": "function"
				},
				{
					"inputs": [],
					"name": "totalSupply",
					"outputs": [
						{
							"internalType": "uint256",
							"name": "",
							"type": "uint256"
						}
					],
					"stateMutability": "nonpayable",
					"type": "function"
				},
				{
					"inputs": [
						{
							"internalType": "address",
							"name": "toAds",
							"type": "address"
						},
						{
							"internalType": "uint256",
							"name": "amount",
							"type": "uint256"
						}
					],
					"name": "transfer",
					"outputs": [
						{
							"internalType": "bool",
							"name": "",
							"type": "bool"
						}
					],
					"stateMutability": "nonpayable",
					"type": "function"
				},
				{
					"inputs": [
						{
							"internalType": "address",
							"name": "src",
							"type": "address"
						},
						{
							"internalType": "address",
							"name": "toAds",
							"type": "address"
						},
						{
							"internalType": "uint256",
							"name": "amount",
							"type": "uint256"
						}
					],
					"name": "transferFrom",
					"outputs": [
						{
							"internalType": "bool",
							"name": "",
							"type": "bool"
						}
					],
					"stateMutability": "nonpayable",
					"type": "function"
				},
				{
					"inputs": [
						{
							"internalType": "uint256",
							"name": "amount",
							"type": "uint256"
						}
					],
					"name": "withdraw",
					"outputs": [],
					"stateMutability": "nonpayable",
					"type": "function"
				},
				{
					"stateMutability": "payable",
					"type": "receive"
				}
			],
			"devdoc": {
				"kind": "dev",
				"methods": {},
				"version": 1
			},
			"evm": {
				"assembly": "    /* \"contracts/level02/2.WETH \\xe5\\x90\\x88\\xe7\\xba\\xa6/WETH.sol\":799:2957  contract WETH {... */\n  mstore(0x40, 0x80)\n    /* \"contracts/level02/2.WETH \\xe5\\x90\\x88\\xe7\\xba\\xa6/WETH.sol\":819:855  string public name = \"Wrapped Ether\" */\n  mload(0x40)\n  dup1\n  0x40\n  add\n  0x40\n  mstore\n  dup1\n  0x0d\n  dup2\n  mstore\n  0x20\n  add\n  0x5772617070656420457468657200000000000000000000000000000000000000\n  dup2\n  mstore\n  pop\n  0x00\n  swap1\n  dup2\n  tag_1\n  swap2\n  swap1\n  tag_2\n  jump\t// in\ntag_1:\n  pop\n    /* \"contracts/level02/2.WETH \\xe5\\x90\\x88\\xe7\\xba\\xa6/WETH.sol\":861:890  string public symbol = \"WETH\" */\n  mload(0x40)\n  dup1\n  0x40\n  add\n  0x40\n  mstore\n  dup1\n  0x04\n  dup2\n  mstore\n  0x20\n  add\n  0x5745544800000000000000000000000000000000000000000000000000000000\n  dup2\n  mstore\n  pop\n  0x01\n  swap1\n  dup2\n  tag_3\n  swap2\n  swap1\n  tag_2\n  jump\t// in\ntag_3:\n  pop\n    /* \"contracts/level02/2.WETH \\xe5\\x90\\x88\\xe7\\xba\\xa6/WETH.sol\":920:922  18 */\n  0x12\n    /* \"contracts/level02/2.WETH \\xe5\\x90\\x88\\xe7\\xba\\xa6/WETH.sol\":896:922  uint8 public decimals = 18 */\n  0x02\n  exp(0x0100, 0x00)\n  dup2\n  sload\n  dup2\n  0xff\n  mul\n  not\n  and\n  swap1\n  dup4\n  0xff\n  and\n  mul\n  or\n  swap1\n  sstore\n  pop\n    /* \"contracts/level02/2.WETH \\xe5\\x90\\x88\\xe7\\xba\\xa6/WETH.sol\":799:2957  contract WETH {... */\n  callvalue\n  dup1\n  iszero\n  tag_4\n  jumpi\n  0x00\n  dup1\n  revert\ntag_4:\n  pop\n  jump(tag_5)\n    /* \"#utility.yul\":7:106   */\ntag_6:\n    /* \"#utility.yul\":59:65   */\n  0x00\n    /* \"#utility.yul\":93:98   */\n  dup2\n    /* \"#utility.yul\":87:99   */\n  mload\n    /* \"#utility.yul\":77:99   */\n  swap1\n  pop\n    /* \"#utility.yul\":7:106   */\n  swap2\n  swap1\n  pop\n  jump\t// out\n    /* \"#utility.yul\":112:292   */\ntag_7:\n    /* \"#utility.yul\":160:237   */\n  0x4e487b7100000000000000000000000000000000000000000000000000000000\n    /* \"#utility.yul\":157:158   */\n  0x00\n    /* \"#utility.yul\":150:238   */\n  mstore\n    /* \"#utility.yul\":257:261   */\n  0x41\n    /* \"#utility.yul\":254:255   */\n  0x04\n    /* \"#utility.yul\":247:262   */\n  mstore\n    /* \"#utility.yul\":281:285   */\n  0x24\n    /* \"#utility.yul\":278:279   */\n  0x00\n    /* \"#utility.yul\":271:286   */\n  revert\n    /* \"#utility.yul\":298:478   */\ntag_8:\n    /* \"#utility.yul\":346:423   */\n  0x4e487b7100000000000000000000000000000000000000000000000000000000\n    /* \"#utility.yul\":343:344   */\n  0x00\n    /* \"#utility.yul\":336:424   */\n  mstore\n    /* \"#utility.yul\":443:447   */\n  0x22\n    /* \"#utility.yul\":440:441   */\n  0x04\n    /* \"#utility.yul\":433:448   */\n  mstore\n    /* \"#utility.yul\":467:471   */\n  0x24\n    /* \"#utility.yul\":464:465   */\n  0x00\n    /* \"#utility.yul\":457:472   */\n  revert\n    /* \"#utility.yul\":484:804   */\ntag_9:\n    /* \"#utility.yul\":528:534   */\n  0x00\n    /* \"#utility.yul\":565:566   */\n  0x02\n    /* \"#utility.yul\":559:563   */\n  dup3\n    /* \"#utility.yul\":555:567   */\n  div\n    /* \"#utility.yul\":545:567   */\n  swap1\n  pop\n    /* \"#utility.yul\":612:613   */\n  0x01\n    /* \"#utility.yul\":606:610   */\n  dup3\n    /* \"#utility.yul\":602:614   */\n  and\n    /* \"#utility.yul\":633:651   */\n  dup1\n    /* \"#utility.yul\":623:704   */\n  tag_31\n  jumpi\n    /* \"#utility.yul\":689:693   */\n  0x7f\n    /* \"#utility.yul\":681:687   */\n  dup3\n    /* \"#utility.yul\":677:694   */\n  and\n    /* \"#utility.yul\":667:694   */\n  swap2\n  pop\n    /* \"#utility.yul\":623:704   */\ntag_31:\n    /* \"#utility.yul\":751:753   */\n  0x20\n    /* \"#utility.yul\":743:749   */\n  dup3\n    /* \"#utility.yul\":740:754   */\n  lt\n    /* \"#utility.yul\":720:738   */\n  dup2\n    /* \"#utility.yul\":717:755   */\n  sub\n    /* \"#utility.yul\":714:798   */\n  tag_32\n  jumpi\n    /* \"#utility.yul\":770:788   */\n  tag_33\n  tag_8\n  jump\t// in\ntag_33:\n    /* \"#utility.yul\":714:798   */\ntag_32:\n    /* \"#utility.yul\":535:804   */\n  pop\n    /* \"#utility.yul\":484:804   */\n  swap2\n  swap1\n  pop\n  jump\t// out\n    /* \"#utility.yul\":810:951   */\ntag_10:\n    /* \"#utility.yul\":859:863   */\n  0x00\n    /* \"#utility.yul\":882:885   */\n  dup2\n    /* \"#utility.yul\":874:885   */\n  swap1\n  pop\n    /* \"#utility.yul\":905:908   */\n  dup2\n    /* \"#utility.yul\":902:903   */\n  0x00\n    /* \"#utility.yul\":895:909   */\n  mstore\n    /* \"#utility.yul\":939:943   */\n  0x20\n    /* \"#utility.yul\":936:937   */\n  0x00\n    /* \"#utility.yul\":926:944   */\n  keccak256\n    /* \"#utility.yul\":918:944   */\n  swap1\n  pop\n    /* \"#utility.yul\":810:951   */\n  swap2\n  swap1\n  pop\n  jump\t// out\n    /* \"#utility.yul\":957:1050   */\ntag_11:\n    /* \"#utility.yul\":994:1000   */\n  0x00\n    /* \"#utility.yul\":1041:1043   */\n  0x20\n    /* \"#utility.yul\":1036:1038   */\n  0x1f\n    /* \"#utility.yul\":1029:1034   */\n  dup4\n    /* \"#utility.yul\":1025:1039   */\n  add\n    /* \"#utility.yul\":1021:1044   */\n  div\n    /* \"#utility.yul\":1011:1044   */\n  swap1\n  pop\n    /* \"#utility.yul\":957:1050   */\n  swap2\n  swap1\n  pop\n  jump\t// out\n    /* \"#utility.yul\":1056:1163   */\ntag_12:\n    /* \"#utility.yul\":1100:1108   */\n  0x00\n    /* \"#utility.yul\":1150:1155   */\n  dup3\n    /* \"#utility.yul\":1144:1148   */\n  dup3\n    /* \"#utility.yul\":1140:1156   */\n  shl\n    /* \"#utility.yul\":1119:1156   */\n  swap1\n  pop\n    /* \"#utility.yul\":1056:1163   */\n  swap3\n  swap2\n  pop\n  pop\n  jump\t// out\n    /* \"#utility.yul\":1169:1562   */\ntag_13:\n    /* \"#utility.yul\":1238:1244   */\n  0x00\n    /* \"#utility.yul\":1288:1289   */\n  0x08\n    /* \"#utility.yul\":1276:1286   */\n  dup4\n    /* \"#utility.yul\":1272:1290   */\n  mul\n    /* \"#utility.yul\":1311:1408   */\n  tag_38\n    /* \"#utility.yul\":1341:1407   */\n  0xffffffffffffffffffffffffffffffffffffffffffffffffffffffffffffffff\n    /* \"#utility.yul\":1330:1339   */\n  dup3\n    /* \"#utility.yul\":1311:1408   */\n  tag_12\n  jump\t// in\ntag_38:\n    /* \"#utility.yul\":1429:1468   */\n  tag_39\n    /* \"#utility.yul\":1459:1467   */\n  dup7\n    /* \"#utility.yul\":1448:1457   */\n  dup4\n    /* \"#utility.yul\":1429:1468   */\n  tag_12\n  jump\t// in\ntag_39:\n    /* \"#utility.yul\":1417:1468   */\n  swap6\n  pop\n    /* \"#utility.yul\":1501:1505   */\n  dup1\n    /* \"#utility.yul\":1497:1506   */\n  not\n    /* \"#utility.yul\":1490:1495   */\n  dup5\n    /* \"#utility.yul\":1486:1507   */\n  and\n    /* \"#utility.yul\":1477:1507   */\n  swap4\n  pop\n    /* \"#utility.yul\":1550:1554   */\n  dup1\n    /* \"#utility.yul\":1540:1548   */\n  dup7\n    /* \"#utility.yul\":1536:1555   */\n  and\n    /* \"#utility.yul\":1529:1534   */\n  dup5\n    /* \"#utility.yul\":1526:1556   */\n  or\n    /* \"#utility.yul\":1516:1556   */\n  swap3\n  pop\n    /* \"#utility.yul\":1245:1562   */\n  pop\n  pop\n    /* \"#utility.yul\":1169:1562   */\n  swap4\n  swap3\n  pop\n  pop\n  pop\n  jump\t// out\n    /* \"#utility.yul\":1568:1645   */\ntag_14:\n    /* \"#utility.yul\":1605:1612   */\n  0x00\n    /* \"#utility.yul\":1634:1639   */\n  dup2\n    /* \"#utility.yul\":1623:1639   */\n  swap1\n  pop\n    /* \"#utility.yul\":1568:1645   */\n  swap2\n  swap1\n  pop\n  jump\t// out\n    /* \"#utility.yul\":1651:1711   */\ntag_15:\n    /* \"#utility.yul\":1679:1682   */\n  0x00\n    /* \"#utility.yul\":1700:1705   */\n  dup2\n    /* \"#utility.yul\":1693:1705   */\n  swap1\n  pop\n    /* \"#utility.yul\":1651:1711   */\n  swap2\n  swap1\n  pop\n  jump\t// out\n    /* \"#utility.yul\":1717:1859   */\ntag_16:\n    /* \"#utility.yul\":1767:1776   */\n  0x00\n    /* \"#utility.yul\":1800:1853   */\n  tag_43\n    /* \"#utility.yul\":1818:1852   */\n  tag_44\n    /* \"#utility.yul\":1827:1851   */\n  tag_45\n    /* \"#utility.yul\":1845:1850   */\n  dup5\n    /* \"#utility.yul\":1827:1851   */\n  tag_14\n  jump\t// in\ntag_45:\n    /* \"#utility.yul\":1818:1852   */\n  tag_15\n  jump\t// in\ntag_44:\n    /* \"#utility.yul\":1800:1853   */\n  tag_14\n  jump\t// in\ntag_43:\n    /* \"#utility.yul\":1787:1853   */\n  swap1\n  pop\n    /* \"#utility.yul\":1717:1859   */\n  swap2\n  swap1\n  pop\n  jump\t// out\n    /* \"#utility.yul\":1865:1940   */\ntag_17:\n    /* \"#utility.yul\":1908:1911   */\n  0x00\n    /* \"#utility.yul\":1929:1934   */\n  dup2\n    /* \"#utility.yul\":1922:1934   */\n  swap1\n  pop\n    /* \"#utility.yul\":1865:1940   */\n  swap2\n  swap1\n  pop\n  jump\t// out\n    /* \"#utility.yul\":1946:2215   */\ntag_18:\n    /* \"#utility.yul\":2056:2095   */\n  tag_48\n    /* \"#utility.yul\":2087:2094   */\n  dup4\n    /* \"#utility.yul\":2056:2095   */\n  tag_16\n  jump\t// in\ntag_48:\n    /* \"#utility.yul\":2117:2208   */\n  tag_49\n    /* \"#utility.yul\":2166:2207   */\n  tag_50\n    /* \"#utility.yul\":2190:2206   */\n  dup3\n    /* \"#utility.yul\":2166:2207   */\n  tag_17\n  jump\t// in\ntag_50:\n    /* \"#utility.yul\":2158:2164   */\n  dup5\n    /* \"#utility.yul\":2151:2155   */\n  dup5\n    /* \"#utility.yul\":2145:2156   */\n  sload\n    /* \"#utility.yul\":2117:2208   */\n  tag_13\n  jump\t// in\ntag_49:\n    /* \"#utility.yul\":2111:2115   */\n  dup3\n    /* \"#utility.yul\":2104:2209   */\n  sstore\n    /* \"#utility.yul\":2022:2215   */\n  pop\n    /* \"#utility.yul\":1946:2215   */\n  pop\n  pop\n  pop\n  jump\t// out\n    /* \"#utility.yul\":2221:2294   */\ntag_19:\n    /* \"#utility.yul\":2266:2269   */\n  0x00\n    /* \"#utility.yul\":2221:2294   */\n  swap1\n  jump\t// out\n    /* \"#utility.yul\":2300:2489   */\ntag_20:\n    /* \"#utility.yul\":2377:2409   */\n  tag_53\n  tag_19\n  jump\t// in\ntag_53:\n    /* \"#utility.yul\":2418:2483   */\n  tag_54\n    /* \"#utility.yul\":2476:2482   */\n  dup2\n    /* \"#utility.yul\":2468:2474   */\n  dup5\n    /* \"#utility.yul\":2462:2466   */\n  dup5\n    /* \"#utility.yul\":2418:2483   */\n  tag_18\n  jump\t// in\ntag_54:\n    /* \"#utility.yul\":2353:2489   */\n  pop\n    /* \"#utility.yul\":2300:2489   */\n  pop\n  pop\n  jump\t// out\n    /* \"#utility.yul\":2495:2681   */\ntag_21:\n    /* \"#utility.yul\":2555:2675   */\ntag_56:\n    /* \"#utility.yul\":2572:2575   */\n  dup2\n    /* \"#utility.yul\":2565:2570   */\n  dup2\n    /* \"#utility.yul\":2562:2576   */\n  lt\n    /* \"#utility.yul\":2555:2675   */\n  iszero\n  tag_58\n  jumpi\n    /* \"#utility.yul\":2626:2665   */\n  tag_59\n    /* \"#utility.yul\":2663:2664   */\n  0x00\n    /* \"#utility.yul\":2656:2661   */\n  dup3\n    /* \"#utility.yul\":2626:2665   */\n  tag_20\n  jump\t// in\ntag_59:\n    /* \"#utility.yul\":2599:2600   */\n  0x01\n    /* \"#utility.yul\":2592:2597   */\n  dup2\n    /* \"#utility.yul\":2588:2601   */\n  add\n    /* \"#utility.yul\":2579:2601   */\n  swap1\n  pop\n    /* \"#utility.yul\":2555:2675   */\n  jump(tag_56)\ntag_58:\n    /* \"#utility.yul\":2495:2681   */\n  pop\n  pop\n  jump\t// out\n    /* \"#utility.yul\":2687:3230   */\ntag_22:\n    /* \"#utility.yul\":2788:2790   */\n  0x1f\n    /* \"#utility.yul\":2783:2786   */\n  dup3\n    /* \"#utility.yul\":2780:2791   */\n  gt\n    /* \"#utility.yul\":2777:3223   */\n  iszero\n  tag_61\n  jumpi\n    /* \"#utility.yul\":2822:2860   */\n  tag_62\n    /* \"#utility.yul\":2854:2859   */\n  dup2\n    /* \"#utility.yul\":2822:2860   */\n  tag_10\n  jump\t// in\ntag_62:\n    /* \"#utility.yul\":2906:2935   */\n  tag_63\n    /* \"#utility.yul\":2924:2934   */\n  dup5\n    /* \"#utility.yul\":2906:2935   */\n  tag_11\n  jump\t// in\ntag_63:\n    /* \"#utility.yul\":2896:2904   */\n  dup2\n    /* \"#utility.yul\":2892:2936   */\n  add\n    /* \"#utility.yul\":3089:3091   */\n  0x20\n    /* \"#utility.yul\":3077:3087   */\n  dup6\n    /* \"#utility.yul\":3074:3092   */\n  lt\n    /* \"#utility.yul\":3071:3120   */\n  iszero\n  tag_64\n  jumpi\n    /* \"#utility.yul\":3110:3118   */\n  dup2\n    /* \"#utility.yul\":3095:3118   */\n  swap1\n  pop\n    /* \"#utility.yul\":3071:3120   */\ntag_64:\n    /* \"#utility.yul\":3133:3213   */\n  tag_65\n    /* \"#utility.yul\":3189:3211   */\n  tag_66\n    /* \"#utility.yul\":3207:3210   */\n  dup6\n    /* \"#utility.yul\":3189:3211   */\n  tag_11\n  jump\t// in\ntag_66:\n    /* \"#utility.yul\":3179:3187   */\n  dup4\n    /* \"#utility.yul\":3175:3212   */\n  add\n    /* \"#utility.yul\":3162:3173   */\n  dup3\n    /* \"#utility.yul\":3133:3213   */\n  tag_21\n  jump\t// in\ntag_65:\n    /* \"#utility.yul\":2792:3223   */\n  pop\n  pop\n    /* \"#utility.yul\":2777:3223   */\ntag_61:\n    /* \"#utility.yul\":2687:3230   */\n  pop\n  pop\n  pop\n  jump\t// out\n    /* \"#utility.yul\":3236:3353   */\ntag_23:\n    /* \"#utility.yul\":3290:3298   */\n  0x00\n    /* \"#utility.yul\":3340:3345   */\n  dup3\n    /* \"#utility.yul\":3334:3338   */\n  dup3\n    /* \"#utility.yul\":3330:3346   */\n  shr\n    /* \"#utility.yul\":3309:3346   */\n  swap1\n  pop\n    /* \"#utility.yul\":3236:3353   */\n  swap3\n  swap2\n  pop\n  pop\n  jump\t// out\n    /* \"#utility.yul\":3359:3528   */\ntag_24:\n    /* \"#utility.yul\":3403:3409   */\n  0x00\n    /* \"#utility.yul\":3436:3487   */\n  tag_69\n    /* \"#utility.yul\":3484:3485   */\n  0x00\n    /* \"#utility.yul\":3480:3486   */\n  not\n    /* \"#utility.yul\":3472:3477   */\n  dup5\n    /* \"#utility.yul\":3469:3470   */\n  0x08\n    /* \"#utility.yul\":3465:3478   */\n  mul\n    /* \"#utility.yul\":3436:3487   */\n  tag_23\n  jump\t// in\ntag_69:\n    /* \"#utility.yul\":3432:3488   */\n  not\n    /* \"#utility.yul\":3517:3521   */\n  dup1\n    /* \"#utility.yul\":3511:3515   */\n  dup4\n    /* \"#utility.yul\":3507:3522   */\n  and\n    /* \"#utility.yul\":3497:3522   */\n  swap2\n  pop\n    /* \"#utility.yul\":3410:3528   */\n  pop\n    /* \"#utility.yul\":3359:3528   */\n  swap3\n  swap2\n  pop\n  pop\n  jump\t// out\n    /* \"#utility.yul\":3533:3828   */\ntag_25:\n    /* \"#utility.yul\":3609:3613   */\n  0x00\n    /* \"#utility.yul\":3755:3784   */\n  tag_71\n    /* \"#utility.yul\":3780:3783   */\n  dup4\n    /* \"#utility.yul\":3774:3778   */\n  dup4\n    /* \"#utility.yul\":3755:3784   */\n  tag_24\n  jump\t// in\ntag_71:\n    /* \"#utility.yul\":3747:3784   */\n  swap2\n  pop\n    /* \"#utility.yul\":3817:3820   */\n  dup3\n    /* \"#utility.yul\":3814:3815   */\n  0x02\n    /* \"#utility.yul\":3810:3821   */\n  mul\n    /* \"#utility.yul\":3804:3808   */\n  dup3\n    /* \"#utility.yul\":3801:3822   */\n  or\n    /* \"#utility.yul\":3793:3822   */\n  swap1\n  pop\n    /* \"#utility.yul\":3533:3828   */\n  swap3\n  swap2\n  pop\n  pop\n  jump\t// out\n    /* \"#utility.yul\":3833:5228   */\ntag_2:\n    /* \"#utility.yul\":3950:3987   */\n  tag_73\n    /* \"#utility.yul\":3983:3986   */\n  dup3\n    /* \"#utility.yul\":3950:3987   */\n  tag_6\n  jump\t// in\ntag_73:\n    /* \"#utility.yul\":4052:4070   */\n  0xffffffffffffffff\n    /* \"#utility.yul\":4044:4050   */\n  dup2\n    /* \"#utility.yul\":4041:4071   */\n  gt\n    /* \"#utility.yul\":4038:4094   */\n  iszero\n  tag_74\n  jumpi\n    /* \"#utility.yul\":4074:4092   */\n  tag_75\n  tag_7\n  jump\t// in\ntag_75:\n    /* \"#utility.yul\":4038:4094   */\ntag_74:\n    /* \"#utility.yul\":4118:4156   */\n  tag_76\n    /* \"#utility.yul\":4150:4154   */\n  dup3\n    /* \"#utility.yul\":4144:4155   */\n  sload\n    /* \"#utility.yul\":4118:4156   */\n  tag_9\n  jump\t// in\ntag_76:\n    /* \"#utility.yul\":4203:4270   */\n  tag_77\n    /* \"#utility.yul\":4263:4269   */\n  dup3\n    /* \"#utility.yul\":4255:4261   */\n  dup3\n    /* \"#utility.yul\":4249:4253   */\n  dup6\n    /* \"#utility.yul\":4203:4270   */\n  tag_22\n  jump\t// in\ntag_77:\n    /* \"#utility.yul\":4297:4298   */\n  0x00\n    /* \"#utility.yul\":4321:4325   */\n  0x20\n    /* \"#utility.yul\":4308:4325   */\n  swap1\n  pop\n    /* \"#utility.yul\":4353:4355   */\n  0x1f\n    /* \"#utility.yul\":4345:4351   */\n  dup4\n    /* \"#utility.yul\":4342:4356   */\n  gt\n    /* \"#utility.yul\":4370:4371   */\n  0x01\n    /* \"#utility.yul\":4365:4983   */\n  dup2\n  eq\n  tag_79\n  jumpi\n    /* \"#utility.yul\":5027:5028   */\n  0x00\n    /* \"#utility.yul\":5044:5050   */\n  dup5\n    /* \"#utility.yul\":5041:5118   */\n  iszero\n  tag_80\n  jumpi\n    /* \"#utility.yul\":5093:5102   */\n  dup3\n    /* \"#utility.yul\":5088:5091   */\n  dup8\n    /* \"#utility.yul\":5084:5103   */\n  add\n    /* \"#utility.yul\":5078:5104   */\n  mload\n    /* \"#utility.yul\":5069:5104   */\n  swap1\n  pop\n    /* \"#utility.yul\":5041:5118   */\ntag_80:\n    /* \"#utility.yul\":5144:5211   */\n  tag_81\n    /* \"#utility.yul\":5204:5210   */\n  dup6\n    /* \"#utility.yul\":5197:5202   */\n  dup3\n    /* \"#utility.yul\":5144:5211   */\n  tag_25\n  jump\t// in\ntag_81:\n    /* \"#utility.yul\":5138:5142   */\n  dup7\n    /* \"#utility.yul\":5131:5212   */\n  sstore\n    /* \"#utility.yul\":5000:5222   */\n  pop\n    /* \"#utility.yul\":4335:5222   */\n  jump(tag_78)\n    /* \"#utility.yul\":4365:4983   */\ntag_79:\n    /* \"#utility.yul\":4417:4421   */\n  0x1f\n    /* \"#utility.yul\":4413:4422   */\n  not\n    /* \"#utility.yul\":4405:4411   */\n  dup5\n    /* \"#utility.yul\":4401:4423   */\n  and\n    /* \"#utility.yul\":4451:4488   */\n  tag_82\n    /* \"#utility.yul\":4483:4487   */\n  dup7\n    /* \"#utility.yul\":4451:4488   */\n  tag_10\n  jump\t// in\ntag_82:\n    /* \"#utility.yul\":4510:4511   */\n  0x00\n    /* \"#utility.yul\":4524:4732   */\ntag_83:\n    /* \"#utility.yul\":4538:4545   */\n  dup3\n    /* \"#utility.yul\":4535:4536   */\n  dup2\n    /* \"#utility.yul\":4532:4546   */\n  lt\n    /* \"#utility.yul\":4524:4732   */\n  iszero\n  tag_85\n  jumpi\n    /* \"#utility.yul\":4617:4626   */\n  dup5\n    /* \"#utility.yul\":4612:4615   */\n  dup10\n    /* \"#utility.yul\":4608:4627   */\n  add\n    /* \"#utility.yul\":4602:4628   */\n  mload\n    /* \"#utility.yul\":4594:4600   */\n  dup3\n    /* \"#utility.yul\":4587:4629   */\n  sstore\n    /* \"#utility.yul\":4668:4669   */\n  0x01\n    /* \"#utility.yul\":4660:4666   */\n  dup3\n    /* \"#utility.yul\":4656:4670   */\n  add\n    /* \"#utility.yul\":4646:4670   */\n  swap2\n  pop\n    /* \"#utility.yul\":4715:4717   */\n  0x20\n    /* \"#utility.yul\":4704:4713   */\n  dup6\n    /* \"#utility.yul\":4700:4718   */\n  add\n    /* \"#utility.yul\":4687:4718   */\n  swap5\n  pop\n    /* \"#utility.yul\":4561:4565   */\n  0x20\n    /* \"#utility.yul\":4558:4559   */\n  dup2\n    /* \"#utility.yul\":4554:4566   */\n  add\n    /* \"#utility.yul\":4549:4566   */\n  swap1\n  pop\n    /* \"#utility.yul\":4524:4732   */\n  jump(tag_83)\ntag_85:\n    /* \"#utility.yul\":4760:4766   */\n  dup7\n    /* \"#utility.yul\":4751:4758   */\n  dup4\n    /* \"#utility.yul\":4748:4767   */\n  lt\n    /* \"#utility.yul\":4745:4924   */\n  iszero\n  tag_86\n  jumpi\n    /* \"#utility.yul\":4818:4827   */\n  dup5\n    /* \"#utility.yul\":4813:4816   */\n  dup10\n    /* \"#utility.yul\":4809:4828   */\n  add\n    /* \"#utility.yul\":4803:4829   */\n  mload\n    /* \"#utility.yul\":4861:4909   */\n  tag_87\n    /* \"#utility.yul\":4903:4907   */\n  0x1f\n    /* \"#utility.yul\":4895:4901   */\n  dup10\n    /* \"#utility.yul\":4891:4908   */\n  and\n    /* \"#utility.yul\":4880:4889   */\n  dup3\n    /* \"#utility.yul\":4861:4909   */\n  tag_24\n  jump\t// in\ntag_87:\n    /* \"#utility.yul\":4853:4859   */\n  dup4\n    /* \"#utility.yul\":4846:4910   */\n  sstore\n    /* \"#utility.yul\":4768:4924   */\n  pop\n    /* \"#utility.yul\":4745:4924   */\ntag_86:\n    /* \"#utility.yul\":4970:4971   */\n  0x01\n    /* \"#utility.yul\":4966:4967   */\n  0x02\n    /* \"#utility.yul\":4958:4964   */\n  dup9\n    /* \"#utility.yul\":4954:4968   */\n  mul\n    /* \"#utility.yul\":4950:4972   */\n  add\n    /* \"#utility.yul\":4944:4948   */\n  dup9\n    /* \"#utility.yul\":4937:4973   */\n  sstore\n    /* \"#utility.yul\":4372:4983   */\n  pop\n  pop\n  pop\n    /* \"#utility.yul\":4335:5222   */\ntag_78:\n  pop\n    /* \"#utility.yul\":3925:5228   */\n  pop\n  pop\n  pop\n    /* \"#utility.yul\":3833:5228   */\n  pop\n  pop\n  jump\t// out\n    /* \"contracts/level02/2.WETH \\xe5\\x90\\x88\\xe7\\xba\\xa6/WETH.sol\":799:2957  contract WETH {... */\ntag_5:\n  dataSize(sub_0)\n  dup1\n  dataOffset(sub_0)\n  0x00\n  codecopy\n  0x00\n  return\nstop\n\nsub_0: assembly {\n        /* \"contracts/level02/2.WETH \\xe5\\x90\\x88\\xe7\\xba\\xa6/WETH.sol\":799:2957  contract WETH {... */\n      mstore(0x40, 0x80)\n      jumpi(tag_1, lt(calldatasize, 0x04))\n      shr(0xe0, calldataload(0x00))\n      dup1\n      0x313ce567\n      gt\n      tag_15\n      jumpi\n      dup1\n      0x313ce567\n      eq\n      tag_9\n      jumpi\n      dup1\n      0x70a08231\n      eq\n      tag_10\n      jumpi\n      dup1\n      0x95d89b41\n      eq\n      tag_11\n      jumpi\n      dup1\n      0xa9059cbb\n      eq\n      tag_12\n      jumpi\n      dup1\n      0xd0e30db0\n      eq\n      tag_13\n      jumpi\n      dup1\n      0xdd62ed3e\n      eq\n      tag_14\n      jumpi\n      jump(tag_2)\n    tag_15:\n      dup1\n      0x06fdde03\n      eq\n      tag_3\n      jumpi\n      dup1\n      0x095ea7b3\n      eq\n      tag_4\n      jumpi\n      dup1\n      0x18160ddd\n      eq\n      tag_5\n      jumpi\n      dup1\n      0x1a39d8ef\n      eq\n      tag_6\n      jumpi\n      dup1\n      0x23b872dd\n      eq\n      tag_7\n      jumpi\n      dup1\n      0x2e1a7d4d\n      eq\n      tag_8\n      jumpi\n      jump(tag_2)\n    tag_1:\n      jumpi(tag_2, calldatasize)\n        /* \"contracts/level02/2.WETH \\xe5\\x90\\x88\\xe7\\xba\\xa6/WETH.sol\":2939:2948  deposit() */\n      tag_18\n        /* \"contracts/level02/2.WETH \\xe5\\x90\\x88\\xe7\\xba\\xa6/WETH.sol\":2939:2946  deposit */\n      tag_19\n        /* \"contracts/level02/2.WETH \\xe5\\x90\\x88\\xe7\\xba\\xa6/WETH.sol\":2939:2948  deposit() */\n      jump\t// in\n    tag_18:\n        /* \"contracts/level02/2.WETH \\xe5\\x90\\x88\\xe7\\xba\\xa6/WETH.sol\":799:2957  contract WETH {... */\n      stop\n    tag_2:\n        /* \"contracts/level02/2.WETH \\xe5\\x90\\x88\\xe7\\xba\\xa6/WETH.sol\":2881:2890  deposit() */\n      tag_22\n        /* \"contracts/level02/2.WETH \\xe5\\x90\\x88\\xe7\\xba\\xa6/WETH.sol\":2881:2888  deposit */\n      tag_19\n        /* \"contracts/level02/2.WETH \\xe5\\x90\\x88\\xe7\\xba\\xa6/WETH.sol\":2881:2890  deposit() */\n      jump\t// in\n    tag_22:\n        /* \"contracts/level02/2.WETH \\xe5\\x90\\x88\\xe7\\xba\\xa6/WETH.sol\":799:2957  contract WETH {... */\n      stop\n        /* \"contracts/level02/2.WETH \\xe5\\x90\\x88\\xe7\\xba\\xa6/WETH.sol\":819:855  string public name = \"Wrapped Ether\" */\n    tag_3:\n      callvalue\n      dup1\n      iszero\n      tag_23\n      jumpi\n      0x00\n      dup1\n      revert\n    tag_23:\n      pop\n      tag_24\n      tag_25\n      jump\t// in\n    tag_24:\n      mload(0x40)\n      tag_26\n      swap2\n      swap1\n      tag_27\n      jump\t// in\n    tag_26:\n      mload(0x40)\n      dup1\n      swap2\n      sub\n      swap1\n      return\n        /* \"contracts/level02/2.WETH \\xe5\\x90\\x88\\xe7\\xba\\xa6/WETH.sol\":2027:2240  function approve(address delegateAds, uint256 amount) public returns (bool) {... */\n    tag_4:\n      callvalue\n      dup1\n      iszero\n      tag_28\n      jumpi\n      0x00\n      dup1\n      revert\n    tag_28:\n      pop\n      tag_29\n      0x04\n      dup1\n      calldatasize\n      sub\n      dup2\n      add\n      swap1\n      tag_30\n      swap2\n      swap1\n      tag_31\n      jump\t// in\n    tag_30:\n      tag_32\n      jump\t// in\n    tag_29:\n      mload(0x40)\n      tag_33\n      swap2\n      swap1\n      tag_34\n      jump\t// in\n    tag_33:\n      mload(0x40)\n      dup1\n      swap2\n      sub\n      swap1\n      return\n        /* \"contracts/level02/2.WETH \\xe5\\x90\\x88\\xe7\\xba\\xa6/WETH.sol\":1887:2022  function totalSupply() public  returns (uint256) {... */\n    tag_5:\n      callvalue\n      dup1\n      iszero\n      tag_35\n      jumpi\n      0x00\n      dup1\n      revert\n    tag_35:\n      pop\n      tag_36\n      tag_37\n      jump\t// in\n    tag_36:\n      mload(0x40)\n      tag_38\n      swap2\n      swap1\n      tag_39\n      jump\t// in\n    tag_38:\n      mload(0x40)\n      dup1\n      swap2\n      sub\n      swap1\n      return\n        /* \"contracts/level02/2.WETH \\xe5\\x90\\x88\\xe7\\xba\\xa6/WETH.sol\":928:954  uint256 public totalAmount */\n    tag_6:\n      callvalue\n      dup1\n      iszero\n      tag_40\n      jumpi\n      0x00\n      dup1\n      revert\n    tag_40:\n      pop\n      tag_41\n      tag_42\n      jump\t// in\n    tag_41:\n      mload(0x40)\n      tag_43\n      swap2\n      swap1\n      tag_39\n      jump\t// in\n    tag_43:\n      mload(0x40)\n      dup1\n      swap2\n      sub\n      swap1\n      return\n        /* \"contracts/level02/2.WETH \\xe5\\x90\\x88\\xe7\\xba\\xa6/WETH.sol\":2384:2838  function transferFrom(... */\n    tag_7:\n      callvalue\n      dup1\n      iszero\n      tag_44\n      jumpi\n      0x00\n      dup1\n      revert\n    tag_44:\n      pop\n      tag_45\n      0x04\n      dup1\n      calldatasize\n      sub\n      dup2\n      add\n      swap1\n      tag_46\n      swap2\n      swap1\n      tag_47\n      jump\t// in\n    tag_46:\n      tag_48\n      jump\t// in\n    tag_45:\n      mload(0x40)\n      tag_49\n      swap2\n      swap1\n      tag_34\n      jump\t// in\n    tag_49:\n      mload(0x40)\n      dup1\n      swap2\n      sub\n      swap1\n      return\n        /* \"contracts/level02/2.WETH \\xe5\\x90\\x88\\xe7\\xba\\xa6/WETH.sol\":1651:1882  function withdraw(uint256 amount) public {... */\n    tag_8:\n      callvalue\n      dup1\n      iszero\n      tag_50\n      jumpi\n      0x00\n      dup1\n      revert\n    tag_50:\n      pop\n      tag_51\n      0x04\n      dup1\n      calldatasize\n      sub\n      dup2\n      add\n      swap1\n      tag_52\n      swap2\n      swap1\n      tag_53\n      jump\t// in\n    tag_52:\n      tag_54\n      jump\t// in\n    tag_51:\n      stop\n        /* \"contracts/level02/2.WETH \\xe5\\x90\\x88\\xe7\\xba\\xa6/WETH.sol\":896:922  uint8 public decimals = 18 */\n    tag_9:\n      callvalue\n      dup1\n      iszero\n      tag_55\n      jumpi\n      0x00\n      dup1\n      revert\n    tag_55:\n      pop\n      tag_56\n      tag_57\n      jump\t// in\n    tag_56:\n      mload(0x40)\n      tag_58\n      swap2\n      swap1\n      tag_59\n      jump\t// in\n    tag_58:\n      mload(0x40)\n      dup1\n      swap2\n      sub\n      swap1\n      return\n        /* \"contracts/level02/2.WETH \\xe5\\x90\\x88\\xe7\\xba\\xa6/WETH.sol\":1301:1345  mapping(address => uint256) public balanceOf */\n    tag_10:\n      callvalue\n      dup1\n      iszero\n      tag_60\n      jumpi\n      0x00\n      dup1\n      revert\n    tag_60:\n      pop\n      tag_61\n      0x04\n      dup1\n      calldatasize\n      sub\n      dup2\n      add\n      swap1\n      tag_62\n      swap2\n      swap1\n      tag_63\n      jump\t// in\n    tag_62:\n      tag_64\n      jump\t// in\n    tag_61:\n      mload(0x40)\n      tag_65\n      swap2\n      swap1\n      tag_39\n      jump\t// in\n    tag_65:\n      mload(0x40)\n      dup1\n      swap2\n      sub\n      swap1\n      return\n        /* \"contracts/level02/2.WETH \\xe5\\x90\\x88\\xe7\\xba\\xa6/WETH.sol\":861:890  string public symbol = \"WETH\" */\n    tag_11:\n      callvalue\n      dup1\n      iszero\n      tag_66\n      jumpi\n      0x00\n      dup1\n      revert\n    tag_66:\n      pop\n      tag_67\n      tag_68\n      jump\t// in\n    tag_67:\n      mload(0x40)\n      tag_69\n      swap2\n      swap1\n      tag_27\n      jump\t// in\n    tag_69:\n      mload(0x40)\n      dup1\n      swap2\n      sub\n      swap1\n      return\n        /* \"contracts/level02/2.WETH \\xe5\\x90\\x88\\xe7\\xba\\xa6/WETH.sol\":2245:2379  function transfer(address toAds, uint256 amount) public returns (bool) {... */\n    tag_12:\n      callvalue\n      dup1\n      iszero\n      tag_70\n      jumpi\n      0x00\n      dup1\n      revert\n    tag_70:\n      pop\n      tag_71\n      0x04\n      dup1\n      calldatasize\n      sub\n      dup2\n      add\n      swap1\n      tag_72\n      swap2\n      swap1\n      tag_31\n      jump\t// in\n    tag_72:\n      tag_73\n      jump\t// in\n    tag_71:\n      mload(0x40)\n      tag_74\n      swap2\n      swap1\n      tag_34\n      jump\t// in\n    tag_74:\n      mload(0x40)\n      dup1\n      swap2\n      sub\n      swap1\n      return\n        /* \"contracts/level02/2.WETH \\xe5\\x90\\x88\\xe7\\xba\\xa6/WETH.sol\":1421:1646  function deposit() public payable {... */\n    tag_13:\n      tag_75\n      tag_19\n      jump\t// in\n    tag_75:\n      stop\n        /* \"contracts/level02/2.WETH \\xe5\\x90\\x88\\xe7\\xba\\xa6/WETH.sol\":1351:1415  mapping(address => mapping(address => uint256)) public allowance */\n    tag_14:\n      callvalue\n      dup1\n      iszero\n      tag_76\n      jumpi\n      0x00\n      dup1\n      revert\n    tag_76:\n      pop\n      tag_77\n      0x04\n      dup1\n      calldatasize\n      sub\n      dup2\n      add\n      swap1\n      tag_78\n      swap2\n      swap1\n      tag_79\n      jump\t// in\n    tag_78:\n      tag_80\n      jump\t// in\n    tag_77:\n      mload(0x40)\n      tag_81\n      swap2\n      swap1\n      tag_39\n      jump\t// in\n    tag_81:\n      mload(0x40)\n      dup1\n      swap2\n      sub\n      swap1\n      return\n        /* \"contracts/level02/2.WETH \\xe5\\x90\\x88\\xe7\\xba\\xa6/WETH.sol\":1421:1646  function deposit() public payable {... */\n    tag_19:\n        /* \"contracts/level02/2.WETH \\xe5\\x90\\x88\\xe7\\xba\\xa6/WETH.sol\":1511:1512  0 */\n      0x00\n        /* \"contracts/level02/2.WETH \\xe5\\x90\\x88\\xe7\\xba\\xa6/WETH.sol\":1498:1507  msg.value */\n      callvalue\n        /* \"contracts/level02/2.WETH \\xe5\\x90\\x88\\xe7\\xba\\xa6/WETH.sol\":1498:1512  msg.value == 0 */\n      eq\n        /* \"contracts/level02/2.WETH \\xe5\\x90\\x88\\xe7\\xba\\xa6/WETH.sol\":1498:1528  msg.value == 0 ? 1 : msg.value */\n      tag_83\n      jumpi\n        /* \"contracts/level02/2.WETH \\xe5\\x90\\x88\\xe7\\xba\\xa6/WETH.sol\":1519:1528  msg.value */\n      callvalue\n        /* \"contracts/level02/2.WETH \\xe5\\x90\\x88\\xe7\\xba\\xa6/WETH.sol\":1498:1528  msg.value == 0 ? 1 : msg.value */\n      jump(tag_84)\n    tag_83:\n        /* \"contracts/level02/2.WETH \\xe5\\x90\\x88\\xe7\\xba\\xa6/WETH.sol\":1515:1516  1 */\n      0x01\n        /* \"contracts/level02/2.WETH \\xe5\\x90\\x88\\xe7\\xba\\xa6/WETH.sol\":1498:1528  msg.value == 0 ? 1 : msg.value */\n    tag_84:\n        /* \"contracts/level02/2.WETH \\xe5\\x90\\x88\\xe7\\xba\\xa6/WETH.sol\":1473:1482  balanceOf */\n      0x04\n        /* \"contracts/level02/2.WETH \\xe5\\x90\\x88\\xe7\\xba\\xa6/WETH.sol\":1473:1494  balanceOf[msg.sender] */\n      0x00\n        /* \"contracts/level02/2.WETH \\xe5\\x90\\x88\\xe7\\xba\\xa6/WETH.sol\":1483:1493  msg.sender */\n      caller\n        /* \"contracts/level02/2.WETH \\xe5\\x90\\x88\\xe7\\xba\\xa6/WETH.sol\":1473:1494  balanceOf[msg.sender] */\n      0xffffffffffffffffffffffffffffffffffffffff\n      and\n      0xffffffffffffffffffffffffffffffffffffffff\n      and\n      dup2\n      mstore\n      0x20\n      add\n      swap1\n      dup2\n      mstore\n      0x20\n      add\n      0x00\n      keccak256\n      0x00\n        /* \"contracts/level02/2.WETH \\xe5\\x90\\x88\\xe7\\xba\\xa6/WETH.sol\":1473:1528  balanceOf[msg.sender] += msg.value == 0 ? 1 : msg.value */\n      dup3\n      dup3\n      sload\n      tag_85\n      swap2\n      swap1\n      tag_86\n      jump\t// in\n    tag_85:\n      swap3\n      pop\n      pop\n      dup2\n      swap1\n      sstore\n      pop\n        /* \"contracts/level02/2.WETH \\xe5\\x90\\x88\\xe7\\xba\\xa6/WETH.sol\":1552:1561  balanceOf */\n      0x04\n        /* \"contracts/level02/2.WETH \\xe5\\x90\\x88\\xe7\\xba\\xa6/WETH.sol\":1552:1573  balanceOf[msg.sender] */\n      0x00\n        /* \"contracts/level02/2.WETH \\xe5\\x90\\x88\\xe7\\xba\\xa6/WETH.sol\":1562:1572  msg.sender */\n      caller\n        /* \"contracts/level02/2.WETH \\xe5\\x90\\x88\\xe7\\xba\\xa6/WETH.sol\":1552:1573  balanceOf[msg.sender] */\n      0xffffffffffffffffffffffffffffffffffffffff\n      and\n      0xffffffffffffffffffffffffffffffffffffffff\n      and\n      dup2\n      mstore\n      0x20\n      add\n      swap1\n      dup2\n      mstore\n      0x20\n      add\n      0x00\n      keccak256\n      sload\n        /* \"contracts/level02/2.WETH \\xe5\\x90\\x88\\xe7\\xba\\xa6/WETH.sol\":1538:1549  totalAmount */\n      0x03\n        /* \"contracts/level02/2.WETH \\xe5\\x90\\x88\\xe7\\xba\\xa6/WETH.sol\":1538:1573  totalAmount = balanceOf[msg.sender] */\n      dup2\n      swap1\n      sstore\n      pop\n        /* \"contracts/level02/2.WETH \\xe5\\x90\\x88\\xe7\\xba\\xa6/WETH.sol\":1596:1606  msg.sender */\n      caller\n        /* \"contracts/level02/2.WETH \\xe5\\x90\\x88\\xe7\\xba\\xa6/WETH.sol\":1588:1639  Deposit(msg.sender, msg.value == 0 ? 1 : msg.value) */\n      0xffffffffffffffffffffffffffffffffffffffff\n      and\n      0xe1fffcc4923d04b559f4d29a8bfc6cda04eb5b0d3c460751c2402c5c5cc9109c\n        /* \"contracts/level02/2.WETH \\xe5\\x90\\x88\\xe7\\xba\\xa6/WETH.sol\":1621:1622  0 */\n      0x00\n        /* \"contracts/level02/2.WETH \\xe5\\x90\\x88\\xe7\\xba\\xa6/WETH.sol\":1608:1617  msg.value */\n      callvalue\n        /* \"contracts/level02/2.WETH \\xe5\\x90\\x88\\xe7\\xba\\xa6/WETH.sol\":1608:1622  msg.value == 0 */\n      eq\n        /* \"contracts/level02/2.WETH \\xe5\\x90\\x88\\xe7\\xba\\xa6/WETH.sol\":1608:1638  msg.value == 0 ? 1 : msg.value */\n      tag_87\n      jumpi\n        /* \"contracts/level02/2.WETH \\xe5\\x90\\x88\\xe7\\xba\\xa6/WETH.sol\":1629:1638  msg.value */\n      callvalue\n        /* \"contracts/level02/2.WETH \\xe5\\x90\\x88\\xe7\\xba\\xa6/WETH.sol\":1608:1638  msg.value == 0 ? 1 : msg.value */\n      jump(tag_88)\n    tag_87:\n        /* \"contracts/level02/2.WETH \\xe5\\x90\\x88\\xe7\\xba\\xa6/WETH.sol\":1625:1626  1 */\n      0x01\n        /* \"contracts/level02/2.WETH \\xe5\\x90\\x88\\xe7\\xba\\xa6/WETH.sol\":1608:1638  msg.value == 0 ? 1 : msg.value */\n    tag_88:\n        /* \"contracts/level02/2.WETH \\xe5\\x90\\x88\\xe7\\xba\\xa6/WETH.sol\":1588:1639  Deposit(msg.sender, msg.value == 0 ? 1 : msg.value) */\n      mload(0x40)\n      tag_89\n      swap2\n      swap1\n      tag_39\n      jump\t// in\n    tag_89:\n      mload(0x40)\n      dup1\n      swap2\n      sub\n      swap1\n      log2\n        /* \"contracts/level02/2.WETH \\xe5\\x90\\x88\\xe7\\xba\\xa6/WETH.sol\":1421:1646  function deposit() public payable {... */\n      jump\t// out\n        /* \"contracts/level02/2.WETH \\xe5\\x90\\x88\\xe7\\xba\\xa6/WETH.sol\":819:855  string public name = \"Wrapped Ether\" */\n    tag_25:\n      0x00\n      dup1\n      sload\n      tag_90\n      swap1\n      tag_91\n      jump\t// in\n    tag_90:\n      dup1\n      0x1f\n      add\n      0x20\n      dup1\n      swap2\n      div\n      mul\n      0x20\n      add\n      mload(0x40)\n      swap1\n      dup2\n      add\n      0x40\n      mstore\n      dup1\n      swap3\n      swap2\n      swap1\n      dup2\n      dup2\n      mstore\n      0x20\n      add\n      dup3\n      dup1\n      sload\n      tag_92\n      swap1\n      tag_91\n      jump\t// in\n    tag_92:\n      dup1\n      iszero\n      tag_93\n      jumpi\n      dup1\n      0x1f\n      lt\n      tag_94\n      jumpi\n      0x0100\n      dup1\n      dup4\n      sload\n      div\n      mul\n      dup4\n      mstore\n      swap2\n      0x20\n      add\n      swap2\n      jump(tag_93)\n    tag_94:\n      dup3\n      add\n      swap2\n      swap1\n      0x00\n      mstore\n      keccak256(0x00, 0x20)\n      swap1\n    tag_95:\n      dup2\n      sload\n      dup2\n      mstore\n      swap1\n      0x01\n      add\n      swap1\n      0x20\n      add\n      dup1\n      dup4\n      gt\n      tag_95\n      jumpi\n      dup3\n      swap1\n      sub\n      0x1f\n      and\n      dup3\n      add\n      swap2\n    tag_93:\n      pop\n      pop\n      pop\n      pop\n      pop\n      dup2\n      jump\t// out\n        /* \"contracts/level02/2.WETH \\xe5\\x90\\x88\\xe7\\xba\\xa6/WETH.sol\":2027:2240  function approve(address delegateAds, uint256 amount) public returns (bool) {... */\n    tag_32:\n        /* \"contracts/level02/2.WETH \\xe5\\x90\\x88\\xe7\\xba\\xa6/WETH.sol\":2097:2101  bool */\n      0x00\n        /* \"contracts/level02/2.WETH \\xe5\\x90\\x88\\xe7\\xba\\xa6/WETH.sol\":2150:2156  amount */\n      dup2\n        /* \"contracts/level02/2.WETH \\xe5\\x90\\x88\\xe7\\xba\\xa6/WETH.sol\":2113:2122  allowance */\n      0x05\n        /* \"contracts/level02/2.WETH \\xe5\\x90\\x88\\xe7\\xba\\xa6/WETH.sol\":2113:2134  allowance[msg.sender] */\n      0x00\n        /* \"contracts/level02/2.WETH \\xe5\\x90\\x88\\xe7\\xba\\xa6/WETH.sol\":2123:2133  msg.sender */\n      caller\n        /* \"contracts/level02/2.WETH \\xe5\\x90\\x88\\xe7\\xba\\xa6/WETH.sol\":2113:2134  allowance[msg.sender] */\n      0xffffffffffffffffffffffffffffffffffffffff\n      and\n      0xffffffffffffffffffffffffffffffffffffffff\n      and\n      dup2\n      mstore\n      0x20\n      add\n      swap1\n      dup2\n      mstore\n      0x20\n      add\n      0x00\n      keccak256\n        /* \"contracts/level02/2.WETH \\xe5\\x90\\x88\\xe7\\xba\\xa6/WETH.sol\":2113:2147  allowance[msg.sender][delegateAds] */\n      0x00\n        /* \"contracts/level02/2.WETH \\xe5\\x90\\x88\\xe7\\xba\\xa6/WETH.sol\":2135:2146  delegateAds */\n      dup6\n        /* \"contracts/level02/2.WETH \\xe5\\x90\\x88\\xe7\\xba\\xa6/WETH.sol\":2113:2147  allowance[msg.sender][delegateAds] */\n      0xffffffffffffffffffffffffffffffffffffffff\n      and\n      0xffffffffffffffffffffffffffffffffffffffff\n      and\n      dup2\n      mstore\n      0x20\n      add\n      swap1\n      dup2\n      mstore\n      0x20\n      add\n      0x00\n      keccak256\n        /* \"contracts/level02/2.WETH \\xe5\\x90\\x88\\xe7\\xba\\xa6/WETH.sol\":2113:2156  allowance[msg.sender][delegateAds] = amount */\n      dup2\n      swap1\n      sstore\n      pop\n        /* \"contracts/level02/2.WETH \\xe5\\x90\\x88\\xe7\\xba\\xa6/WETH.sol\":2192:2203  delegateAds */\n      dup3\n        /* \"contracts/level02/2.WETH \\xe5\\x90\\x88\\xe7\\xba\\xa6/WETH.sol\":2171:2212  Approval(msg.sender, delegateAds, amount) */\n      0xffffffffffffffffffffffffffffffffffffffff\n      and\n        /* \"contracts/level02/2.WETH \\xe5\\x90\\x88\\xe7\\xba\\xa6/WETH.sol\":2180:2190  msg.sender */\n      caller\n        /* \"contracts/level02/2.WETH \\xe5\\x90\\x88\\xe7\\xba\\xa6/WETH.sol\":2171:2212  Approval(msg.sender, delegateAds, amount) */\n      0xffffffffffffffffffffffffffffffffffffffff\n      and\n      0x8c5be1e5ebec7d5bd14f71427d1e84f3dd0314c0f7b2291e5b200ac8c7c3b925\n        /* \"contracts/level02/2.WETH \\xe5\\x90\\x88\\xe7\\xba\\xa6/WETH.sol\":2205:2211  amount */\n      dup5\n        /* \"contracts/level02/2.WETH \\xe5\\x90\\x88\\xe7\\xba\\xa6/WETH.sol\":2171:2212  Approval(msg.sender, delegateAds, amount) */\n      mload(0x40)\n      tag_97\n      swap2\n      swap1\n      tag_39\n      jump\t// in\n    tag_97:\n      mload(0x40)\n      dup1\n      swap2\n      sub\n      swap1\n      log3\n        /* \"contracts/level02/2.WETH \\xe5\\x90\\x88\\xe7\\xba\\xa6/WETH.sol\":2229:2233  true */\n      0x01\n        /* \"contracts/level02/2.WETH \\xe5\\x90\\x88\\xe7\\xba\\xa6/WETH.sol\":2222:2233  return true */\n      swap1\n      pop\n        /* \"contracts/level02/2.WETH \\xe5\\x90\\x88\\xe7\\xba\\xa6/WETH.sol\":2027:2240  function approve(address delegateAds, uint256 amount) public returns (bool) {... */\n      swap3\n      swap2\n      pop\n      pop\n      jump\t// out\n        /* \"contracts/level02/2.WETH \\xe5\\x90\\x88\\xe7\\xba\\xa6/WETH.sol\":1887:2022  function totalSupply() public  returns (uint256) {... */\n    tag_37:\n        /* \"contracts/level02/2.WETH \\xe5\\x90\\x88\\xe7\\xba\\xa6/WETH.sol\":1927:1934  uint256 */\n      0x00\n        /* \"contracts/level02/2.WETH \\xe5\\x90\\x88\\xe7\\xba\\xa6/WETH.sol\":1963:1973  msg.sender */\n      caller\n        /* \"contracts/level02/2.WETH \\xe5\\x90\\x88\\xe7\\xba\\xa6/WETH.sol\":1951:1987  TotalSupply(msg.sender, totalAmount) */\n      0xffffffffffffffffffffffffffffffffffffffff\n      and\n      0x7249fd4c03cce09b30a13d77804b198e2647c0ccd59eadf4de4e7c16099badc5\n        /* \"contracts/level02/2.WETH \\xe5\\x90\\x88\\xe7\\xba\\xa6/WETH.sol\":1975:1986  totalAmount */\n      sload(0x03)\n        /* \"contracts/level02/2.WETH \\xe5\\x90\\x88\\xe7\\xba\\xa6/WETH.sol\":1951:1987  TotalSupply(msg.sender, totalAmount) */\n      mload(0x40)\n      tag_99\n      swap2\n      swap1\n      tag_39\n      jump\t// in\n    tag_99:\n      mload(0x40)\n      dup1\n      swap2\n      sub\n      swap1\n      log2\n        /* \"contracts/level02/2.WETH \\xe5\\x90\\x88\\xe7\\xba\\xa6/WETH.sol\":2004:2015  totalAmount */\n      sload(0x03)\n        /* \"contracts/level02/2.WETH \\xe5\\x90\\x88\\xe7\\xba\\xa6/WETH.sol\":1997:2015  return totalAmount */\n      swap1\n      pop\n        /* \"contracts/level02/2.WETH \\xe5\\x90\\x88\\xe7\\xba\\xa6/WETH.sol\":1887:2022  function totalSupply() public  returns (uint256) {... */\n      swap1\n      jump\t// out\n        /* \"contracts/level02/2.WETH \\xe5\\x90\\x88\\xe7\\xba\\xa6/WETH.sol\":928:954  uint256 public totalAmount */\n    tag_42:\n      sload(0x03)\n      dup2\n      jump\t// out\n        /* \"contracts/level02/2.WETH \\xe5\\x90\\x88\\xe7\\xba\\xa6/WETH.sol\":2384:2838  function transferFrom(... */\n    tag_48:\n        /* \"contracts/level02/2.WETH \\xe5\\x90\\x88\\xe7\\xba\\xa6/WETH.sol\":2496:2500  bool */\n      0x00\n        /* \"contracts/level02/2.WETH \\xe5\\x90\\x88\\xe7\\xba\\xa6/WETH.sol\":2538:2544  amount */\n      dup2\n        /* \"contracts/level02/2.WETH \\xe5\\x90\\x88\\xe7\\xba\\xa6/WETH.sol\":2520:2529  balanceOf */\n      0x04\n        /* \"contracts/level02/2.WETH \\xe5\\x90\\x88\\xe7\\xba\\xa6/WETH.sol\":2520:2534  balanceOf[src] */\n      0x00\n        /* \"contracts/level02/2.WETH \\xe5\\x90\\x88\\xe7\\xba\\xa6/WETH.sol\":2530:2533  src */\n      dup7\n        /* \"contracts/level02/2.WETH \\xe5\\x90\\x88\\xe7\\xba\\xa6/WETH.sol\":2520:2534  balanceOf[src] */\n      0xffffffffffffffffffffffffffffffffffffffff\n      and\n      0xffffffffffffffffffffffffffffffffffffffff\n      and\n      dup2\n      mstore\n      0x20\n      add\n      swap1\n      dup2\n      mstore\n      0x20\n      add\n      0x00\n      keccak256\n      sload\n        /* \"contracts/level02/2.WETH \\xe5\\x90\\x88\\xe7\\xba\\xa6/WETH.sol\":2520:2544  balanceOf[src] >= amount */\n      lt\n      iszero\n        /* \"contracts/level02/2.WETH \\xe5\\x90\\x88\\xe7\\xba\\xa6/WETH.sol\":2512:2545  require(balanceOf[src] >= amount) */\n      tag_101\n      jumpi\n      0x00\n      dup1\n      revert\n    tag_101:\n        /* \"contracts/level02/2.WETH \\xe5\\x90\\x88\\xe7\\xba\\xa6/WETH.sol\":2566:2576  msg.sender */\n      caller\n        /* \"contracts/level02/2.WETH \\xe5\\x90\\x88\\xe7\\xba\\xa6/WETH.sol\":2559:2576  src != msg.sender */\n      0xffffffffffffffffffffffffffffffffffffffff\n      and\n        /* \"contracts/level02/2.WETH \\xe5\\x90\\x88\\xe7\\xba\\xa6/WETH.sol\":2559:2562  src */\n      dup5\n        /* \"contracts/level02/2.WETH \\xe5\\x90\\x88\\xe7\\xba\\xa6/WETH.sol\":2559:2576  src != msg.sender */\n      0xffffffffffffffffffffffffffffffffffffffff\n      and\n      eq\n        /* \"contracts/level02/2.WETH \\xe5\\x90\\x88\\xe7\\xba\\xa6/WETH.sol\":2555:2698  if (src != msg.sender) {... */\n      tag_102\n      jumpi\n        /* \"contracts/level02/2.WETH \\xe5\\x90\\x88\\xe7\\xba\\xa6/WETH.sol\":2630:2636  amount */\n      dup2\n        /* \"contracts/level02/2.WETH \\xe5\\x90\\x88\\xe7\\xba\\xa6/WETH.sol\":2600:2609  allowance */\n      0x05\n        /* \"contracts/level02/2.WETH \\xe5\\x90\\x88\\xe7\\xba\\xa6/WETH.sol\":2600:2614  allowance[src] */\n      0x00\n        /* \"contracts/level02/2.WETH \\xe5\\x90\\x88\\xe7\\xba\\xa6/WETH.sol\":2610:2613  src */\n      dup7\n        /* \"contracts/level02/2.WETH \\xe5\\x90\\x88\\xe7\\xba\\xa6/WETH.sol\":2600:2614  allowance[src] */\n      0xffffffffffffffffffffffffffffffffffffffff\n      and\n      0xffffffffffffffffffffffffffffffffffffffff\n      and\n      dup2\n      mstore\n      0x20\n      add\n      swap1\n      dup2\n      mstore\n      0x20\n      add\n      0x00\n      keccak256\n        /* \"contracts/level02/2.WETH \\xe5\\x90\\x88\\xe7\\xba\\xa6/WETH.sol\":2600:2626  allowance[src][msg.sender] */\n      0x00\n        /* \"contracts/level02/2.WETH \\xe5\\x90\\x88\\xe7\\xba\\xa6/WETH.sol\":2615:2625  msg.sender */\n      caller\n        /* \"contracts/level02/2.WETH \\xe5\\x90\\x88\\xe7\\xba\\xa6/WETH.sol\":2600:2626  allowance[src][msg.sender] */\n      0xffffffffffffffffffffffffffffffffffffffff\n      and\n      0xffffffffffffffffffffffffffffffffffffffff\n      and\n      dup2\n      mstore\n      0x20\n      add\n      swap1\n      dup2\n      mstore\n      0x20\n      add\n      0x00\n      keccak256\n      sload\n        /* \"contracts/level02/2.WETH \\xe5\\x90\\x88\\xe7\\xba\\xa6/WETH.sol\":2600:2636  allowance[src][msg.sender] >= amount */\n      lt\n      iszero\n        /* \"contracts/level02/2.WETH \\xe5\\x90\\x88\\xe7\\xba\\xa6/WETH.sol\":2592:2637  require(allowance[src][msg.sender] >= amount) */\n      tag_103\n      jumpi\n      0x00\n      dup1\n      revert\n    tag_103:\n        /* \"contracts/level02/2.WETH \\xe5\\x90\\x88\\xe7\\xba\\xa6/WETH.sol\":2681:2687  amount */\n      dup2\n        /* \"contracts/level02/2.WETH \\xe5\\x90\\x88\\xe7\\xba\\xa6/WETH.sol\":2651:2660  allowance */\n      0x05\n        /* \"contracts/level02/2.WETH \\xe5\\x90\\x88\\xe7\\xba\\xa6/WETH.sol\":2651:2665  allowance[src] */\n      0x00\n        /* \"contracts/level02/2.WETH \\xe5\\x90\\x88\\xe7\\xba\\xa6/WETH.sol\":2661:2664  src */\n      dup7\n        /* \"contracts/level02/2.WETH \\xe5\\x90\\x88\\xe7\\xba\\xa6/WETH.sol\":2651:2665  allowance[src] */\n      0xffffffffffffffffffffffffffffffffffffffff\n      and\n      0xffffffffffffffffffffffffffffffffffffffff\n      and\n      dup2\n      mstore\n      0x20\n      add\n      swap1\n      dup2\n      mstore\n      0x20\n      add\n      0x00\n      keccak256\n        /* \"contracts/level02/2.WETH \\xe5\\x90\\x88\\xe7\\xba\\xa6/WETH.sol\":2651:2677  allowance[src][msg.sender] */\n      0x00\n        /* \"contracts/level02/2.WETH \\xe5\\x90\\x88\\xe7\\xba\\xa6/WETH.sol\":2666:2676  msg.sender */\n      caller\n        /* \"contracts/level02/2.WETH \\xe5\\x90\\x88\\xe7\\xba\\xa6/WETH.sol\":2651:2677  allowance[src][msg.sender] */\n      0xffffffffffffffffffffffffffffffffffffffff\n      and\n      0xffffffffffffffffffffffffffffffffffffffff\n      and\n      dup2\n      mstore\n      0x20\n      add\n      swap1\n      dup2\n      mstore\n      0x20\n      add\n      0x00\n      keccak256\n      0x00\n        /* \"contracts/level02/2.WETH \\xe5\\x90\\x88\\xe7\\xba\\xa6/WETH.sol\":2651:2687  allowance[src][msg.sender] -= amount */\n      dup3\n      dup3\n      sload\n      tag_104\n      swap2\n      swap1\n      tag_105\n      jump\t// in\n    tag_104:\n      swap3\n      pop\n      pop\n      dup2\n      swap1\n      sstore\n      pop\n        /* \"contracts/level02/2.WETH \\xe5\\x90\\x88\\xe7\\xba\\xa6/WETH.sol\":2555:2698  if (src != msg.sender) {... */\n    tag_102:\n        /* \"contracts/level02/2.WETH \\xe5\\x90\\x88\\xe7\\xba\\xa6/WETH.sol\":2725:2731  amount */\n      dup2\n        /* \"contracts/level02/2.WETH \\xe5\\x90\\x88\\xe7\\xba\\xa6/WETH.sol\":2707:2716  balanceOf */\n      0x04\n        /* \"contracts/level02/2.WETH \\xe5\\x90\\x88\\xe7\\xba\\xa6/WETH.sol\":2707:2721  balanceOf[src] */\n      0x00\n        /* \"contracts/level02/2.WETH \\xe5\\x90\\x88\\xe7\\xba\\xa6/WETH.sol\":2717:2720  src */\n      dup7\n        /* \"contracts/level02/2.WETH \\xe5\\x90\\x88\\xe7\\xba\\xa6/WETH.sol\":2707:2721  balanceOf[src] */\n      0xffffffffffffffffffffffffffffffffffffffff\n      and\n      0xffffffffffffffffffffffffffffffffffffffff\n      and\n      dup2\n      mstore\n      0x20\n      add\n      swap1\n      dup2\n      mstore\n      0x20\n      add\n      0x00\n      keccak256\n      0x00\n        /* \"contracts/level02/2.WETH \\xe5\\x90\\x88\\xe7\\xba\\xa6/WETH.sol\":2707:2731  balanceOf[src] -= amount */\n      dup3\n      dup3\n      sload\n      tag_106\n      swap2\n      swap1\n      tag_105\n      jump\t// in\n    tag_106:\n      swap3\n      pop\n      pop\n      dup2\n      swap1\n      sstore\n      pop\n        /* \"contracts/level02/2.WETH \\xe5\\x90\\x88\\xe7\\xba\\xa6/WETH.sol\":2761:2767  amount */\n      dup2\n        /* \"contracts/level02/2.WETH \\xe5\\x90\\x88\\xe7\\xba\\xa6/WETH.sol\":2741:2750  balanceOf */\n      0x04\n        /* \"contracts/level02/2.WETH \\xe5\\x90\\x88\\xe7\\xba\\xa6/WETH.sol\":2741:2757  balanceOf[toAds] */\n      0x00\n        /* \"contracts/level02/2.WETH \\xe5\\x90\\x88\\xe7\\xba\\xa6/WETH.sol\":2751:2756  toAds */\n      dup6\n        /* \"contracts/level02/2.WETH \\xe5\\x90\\x88\\xe7\\xba\\xa6/WETH.sol\":2741:2757  balanceOf[toAds] */\n      0xffffffffffffffffffffffffffffffffffffffff\n      and\n      0xffffffffffffffffffffffffffffffffffffffff\n      and\n      dup2\n      mstore\n      0x20\n      add\n      swap1\n      dup2\n      mstore\n      0x20\n      add\n      0x00\n      keccak256\n      0x00\n        /* \"contracts/level02/2.WETH \\xe5\\x90\\x88\\xe7\\xba\\xa6/WETH.sol\":2741:2767  balanceOf[toAds] += amount */\n      dup3\n      dup3\n      sload\n      tag_107\n      swap2\n      swap1\n      tag_86\n      jump\t// in\n    tag_107:\n      swap3\n      pop\n      pop\n      dup2\n      swap1\n      sstore\n      pop\n        /* \"contracts/level02/2.WETH \\xe5\\x90\\x88\\xe7\\xba\\xa6/WETH.sol\":2796:2801  toAds */\n      dup3\n        /* \"contracts/level02/2.WETH \\xe5\\x90\\x88\\xe7\\xba\\xa6/WETH.sol\":2782:2810  Transfer(src, toAds, amount) */\n      0xffffffffffffffffffffffffffffffffffffffff\n      and\n        /* \"contracts/level02/2.WETH \\xe5\\x90\\x88\\xe7\\xba\\xa6/WETH.sol\":2791:2794  src */\n      dup5\n        /* \"contracts/level02/2.WETH \\xe5\\x90\\x88\\xe7\\xba\\xa6/WETH.sol\":2782:2810  Transfer(src, toAds, amount) */\n      0xffffffffffffffffffffffffffffffffffffffff\n      and\n      0xddf252ad1be2c89b69c2b068fc378daa952ba7f163c4a11628f55a4df523b3ef\n        /* \"contracts/level02/2.WETH \\xe5\\x90\\x88\\xe7\\xba\\xa6/WETH.sol\":2803:2809  amount */\n      dup5\n        /* \"contracts/level02/2.WETH \\xe5\\x90\\x88\\xe7\\xba\\xa6/WETH.sol\":2782:2810  Transfer(src, toAds, amount) */\n      mload(0x40)\n      tag_108\n      swap2\n      swap1\n      tag_39\n      jump\t// in\n    tag_108:\n      mload(0x40)\n      dup1\n      swap2\n      sub\n      swap1\n      log3\n        /* \"contracts/level02/2.WETH \\xe5\\x90\\x88\\xe7\\xba\\xa6/WETH.sol\":2827:2831  true */\n      0x01\n        /* \"contracts/level02/2.WETH \\xe5\\x90\\x88\\xe7\\xba\\xa6/WETH.sol\":2820:2831  return true */\n      swap1\n      pop\n        /* \"contracts/level02/2.WETH \\xe5\\x90\\x88\\xe7\\xba\\xa6/WETH.sol\":2384:2838  function transferFrom(... */\n      swap4\n      swap3\n      pop\n      pop\n      pop\n      jump\t// out\n        /* \"contracts/level02/2.WETH \\xe5\\x90\\x88\\xe7\\xba\\xa6/WETH.sol\":1651:1882  function withdraw(uint256 amount) public {... */\n    tag_54:\n        /* \"contracts/level02/2.WETH \\xe5\\x90\\x88\\xe7\\xba\\xa6/WETH.sol\":1735:1741  amount */\n      dup1\n        /* \"contracts/level02/2.WETH \\xe5\\x90\\x88\\xe7\\xba\\xa6/WETH.sol\":1710:1719  balanceOf */\n      0x04\n        /* \"contracts/level02/2.WETH \\xe5\\x90\\x88\\xe7\\xba\\xa6/WETH.sol\":1710:1731  balanceOf[msg.sender] */\n      0x00\n        /* \"contracts/level02/2.WETH \\xe5\\x90\\x88\\xe7\\xba\\xa6/WETH.sol\":1720:1730  msg.sender */\n      caller\n        /* \"contracts/level02/2.WETH \\xe5\\x90\\x88\\xe7\\xba\\xa6/WETH.sol\":1710:1731  balanceOf[msg.sender] */\n      0xffffffffffffffffffffffffffffffffffffffff\n      and\n      0xffffffffffffffffffffffffffffffffffffffff\n      and\n      dup2\n      mstore\n      0x20\n      add\n      swap1\n      dup2\n      mstore\n      0x20\n      add\n      0x00\n      keccak256\n      sload\n        /* \"contracts/level02/2.WETH \\xe5\\x90\\x88\\xe7\\xba\\xa6/WETH.sol\":1710:1741  balanceOf[msg.sender] >= amount */\n      lt\n      iszero\n        /* \"contracts/level02/2.WETH \\xe5\\x90\\x88\\xe7\\xba\\xa6/WETH.sol\":1702:1742  require(balanceOf[msg.sender] >= amount) */\n      tag_110\n      jumpi\n      0x00\n      dup1\n      revert\n    tag_110:\n        /* \"contracts/level02/2.WETH \\xe5\\x90\\x88\\xe7\\xba\\xa6/WETH.sol\":1777:1783  amount */\n      dup1\n        /* \"contracts/level02/2.WETH \\xe5\\x90\\x88\\xe7\\xba\\xa6/WETH.sol\":1752:1761  balanceOf */\n      0x04\n        /* \"contracts/level02/2.WETH \\xe5\\x90\\x88\\xe7\\xba\\xa6/WETH.sol\":1752:1773  balanceOf[msg.sender] */\n      0x00\n        /* \"contracts/level02/2.WETH \\xe5\\x90\\x88\\xe7\\xba\\xa6/WETH.sol\":1762:1772  msg.sender */\n      caller\n        /* \"contracts/level02/2.WETH \\xe5\\x90\\x88\\xe7\\xba\\xa6/WETH.sol\":1752:1773  balanceOf[msg.sender] */\n      0xffffffffffffffffffffffffffffffffffffffff\n      and\n      0xffffffffffffffffffffffffffffffffffffffff\n      and\n      dup2\n      mstore\n      0x20\n      add\n      swap1\n      dup2\n      mstore\n      0x20\n      add\n      0x00\n      keccak256\n      0x00\n        /* \"contracts/level02/2.WETH \\xe5\\x90\\x88\\xe7\\xba\\xa6/WETH.sol\":1752:1783  balanceOf[msg.sender] -= amount */\n      dup3\n      dup3\n      sload\n      tag_111\n      swap2\n      swap1\n      tag_105\n      jump\t// in\n    tag_111:\n      swap3\n      pop\n      pop\n      dup2\n      swap1\n      sstore\n      pop\n        /* \"contracts/level02/2.WETH \\xe5\\x90\\x88\\xe7\\xba\\xa6/WETH.sol\":1856:1866  msg.sender */\n      caller\n        /* \"contracts/level02/2.WETH \\xe5\\x90\\x88\\xe7\\xba\\xa6/WETH.sol\":1847:1875  Withdraw(msg.sender, amount) */\n      0xffffffffffffffffffffffffffffffffffffffff\n      and\n      0x884edad9ce6fa2440d8a54cc123490eb96d2768479d49ff9c7366125a9424364\n        /* \"contracts/level02/2.WETH \\xe5\\x90\\x88\\xe7\\xba\\xa6/WETH.sol\":1868:1874  amount */\n      dup3\n        /* \"contracts/level02/2.WETH \\xe5\\x90\\x88\\xe7\\xba\\xa6/WETH.sol\":1847:1875  Withdraw(msg.sender, amount) */\n      mload(0x40)\n      tag_112\n      swap2\n      swap1\n      tag_39\n      jump\t// in\n    tag_112:\n      mload(0x40)\n      dup1\n      swap2\n      sub\n      swap1\n      log2\n        /* \"contracts/level02/2.WETH \\xe5\\x90\\x88\\xe7\\xba\\xa6/WETH.sol\":1651:1882  function withdraw(uint256 amount) public {... */\n      pop\n      jump\t// out\n        /* \"contracts/level02/2.WETH \\xe5\\x90\\x88\\xe7\\xba\\xa6/WETH.sol\":896:922  uint8 public decimals = 18 */\n    tag_57:\n      0x02\n      0x00\n      swap1\n      sload\n      swap1\n      0x0100\n      exp\n      swap1\n      div\n      0xff\n      and\n      dup2\n      jump\t// out\n        /* \"contracts/level02/2.WETH \\xe5\\x90\\x88\\xe7\\xba\\xa6/WETH.sol\":1301:1345  mapping(address => uint256) public balanceOf */\n    tag_64:\n      mstore(0x20, 0x04)\n      dup1\n      0x00\n      mstore\n      keccak256(0x00, 0x40)\n      0x00\n      swap2\n      pop\n      swap1\n      pop\n      sload\n      dup2\n      jump\t// out\n        /* \"contracts/level02/2.WETH \\xe5\\x90\\x88\\xe7\\xba\\xa6/WETH.sol\":861:890  string public symbol = \"WETH\" */\n    tag_68:\n      0x01\n      dup1\n      sload\n      tag_113\n      swap1\n      tag_91\n      jump\t// in\n    tag_113:\n      dup1\n      0x1f\n      add\n      0x20\n      dup1\n      swap2\n      div\n      mul\n      0x20\n      add\n      mload(0x40)\n      swap1\n      dup2\n      add\n      0x40\n      mstore\n      dup1\n      swap3\n      swap2\n      swap1\n      dup2\n      dup2\n      mstore\n      0x20\n      add\n      dup3\n      dup1\n      sload\n      tag_114\n      swap1\n      tag_91\n      jump\t// in\n    tag_114:\n      dup1\n      iszero\n      tag_115\n      jumpi\n      dup1\n      0x1f\n      lt\n      tag_116\n      jumpi\n      0x0100\n      dup1\n      dup4\n      sload\n      div\n      mul\n      dup4\n      mstore\n      swap2\n      0x20\n      add\n      swap2\n      jump(tag_115)\n    tag_116:\n      dup3\n      add\n      swap2\n      swap1\n      0x00\n      mstore\n      keccak256(0x00, 0x20)\n      swap1\n    tag_117:\n      dup2\n      sload\n      dup2\n      mstore\n      swap1\n      0x01\n      add\n      swap1\n      0x20\n      add\n      dup1\n      dup4\n      gt\n      tag_117\n      jumpi\n      dup3\n      swap1\n      sub\n      0x1f\n      and\n      dup3\n      add\n      swap2\n    tag_115:\n      pop\n      pop\n      pop\n      pop\n      pop\n      dup2\n      jump\t// out\n        /* \"contracts/level02/2.WETH \\xe5\\x90\\x88\\xe7\\xba\\xa6/WETH.sol\":2245:2379  function transfer(address toAds, uint256 amount) public returns (bool) {... */\n    tag_73:\n        /* \"contracts/level02/2.WETH \\xe5\\x90\\x88\\xe7\\xba\\xa6/WETH.sol\":2310:2314  bool */\n      0x00\n        /* \"contracts/level02/2.WETH \\xe5\\x90\\x88\\xe7\\xba\\xa6/WETH.sol\":2333:2372  transferFrom(msg.sender, toAds, amount) */\n      tag_119\n        /* \"contracts/level02/2.WETH \\xe5\\x90\\x88\\xe7\\xba\\xa6/WETH.sol\":2346:2356  msg.sender */\n      caller\n        /* \"contracts/level02/2.WETH \\xe5\\x90\\x88\\xe7\\xba\\xa6/WETH.sol\":2358:2363  toAds */\n      dup5\n        /* \"contracts/level02/2.WETH \\xe5\\x90\\x88\\xe7\\xba\\xa6/WETH.sol\":2365:2371  amount */\n      dup5\n        /* \"contracts/level02/2.WETH \\xe5\\x90\\x88\\xe7\\xba\\xa6/WETH.sol\":2333:2345  transferFrom */\n      tag_48\n        /* \"contracts/level02/2.WETH \\xe5\\x90\\x88\\xe7\\xba\\xa6/WETH.sol\":2333:2372  transferFrom(msg.sender, toAds, amount) */\n      jump\t// in\n    tag_119:\n        /* \"contracts/level02/2.WETH \\xe5\\x90\\x88\\xe7\\xba\\xa6/WETH.sol\":2326:2372  return transferFrom(msg.sender, toAds, amount) */\n      swap1\n      pop\n        /* \"contracts/level02/2.WETH \\xe5\\x90\\x88\\xe7\\xba\\xa6/WETH.sol\":2245:2379  function transfer(address toAds, uint256 amount) public returns (bool) {... */\n      swap3\n      swap2\n      pop\n      pop\n      jump\t// out\n        /* \"contracts/level02/2.WETH \\xe5\\x90\\x88\\xe7\\xba\\xa6/WETH.sol\":1351:1415  mapping(address => mapping(address => uint256)) public allowance */\n    tag_80:\n      mstore(0x20, 0x05)\n      dup2\n      0x00\n      mstore\n      mstore(0x20, keccak256(0x00, 0x40))\n      dup1\n      0x00\n      mstore\n      keccak256(0x00, 0x40)\n      0x00\n      swap2\n      pop\n      swap2\n      pop\n      pop\n      sload\n      dup2\n      jump\t// out\n        /* \"#utility.yul\":7:106   */\n    tag_120:\n        /* \"#utility.yul\":59:65   */\n      0x00\n        /* \"#utility.yul\":93:98   */\n      dup2\n        /* \"#utility.yul\":87:99   */\n      mload\n        /* \"#utility.yul\":77:99   */\n      swap1\n      pop\n        /* \"#utility.yul\":7:106   */\n      swap2\n      swap1\n      pop\n      jump\t// out\n        /* \"#utility.yul\":112:281   */\n    tag_121:\n        /* \"#utility.yul\":196:207   */\n      0x00\n        /* \"#utility.yul\":230:236   */\n      dup3\n        /* \"#utility.yul\":225:228   */\n      dup3\n        /* \"#utility.yul\":218:237   */\n      mstore\n        /* \"#utility.yul\":270:274   */\n      0x20\n        /* \"#utility.yul\":265:268   */\n      dup3\n        /* \"#utility.yul\":261:275   */\n      add\n        /* \"#utility.yul\":246:275   */\n      swap1\n      pop\n        /* \"#utility.yul\":112:281   */\n      swap3\n      swap2\n      pop\n      pop\n      jump\t// out\n        /* \"#utility.yul\":287:426   */\n    tag_122:\n        /* \"#utility.yul\":376:382   */\n      dup3\n        /* \"#utility.yul\":371:374   */\n      dup2\n        /* \"#utility.yul\":366:369   */\n      dup4\n        /* \"#utility.yul\":360:383   */\n      mcopy\n        /* \"#utility.yul\":417:418   */\n      0x00\n        /* \"#utility.yul\":408:414   */\n      dup4\n        /* \"#utility.yul\":403:406   */\n      dup4\n        /* \"#utility.yul\":399:415   */\n      add\n        /* \"#utility.yul\":392:419   */\n      mstore\n        /* \"#utility.yul\":287:426   */\n      pop\n      pop\n      pop\n      jump\t// out\n        /* \"#utility.yul\":432:534   */\n    tag_123:\n        /* \"#utility.yul\":473:479   */\n      0x00\n        /* \"#utility.yul\":524:526   */\n      0x1f\n        /* \"#utility.yul\":520:527   */\n      not\n        /* \"#utility.yul\":515:517   */\n      0x1f\n        /* \"#utility.yul\":508:513   */\n      dup4\n        /* \"#utility.yul\":504:518   */\n      add\n        /* \"#utility.yul\":500:528   */\n      and\n        /* \"#utility.yul\":490:528   */\n      swap1\n      pop\n        /* \"#utility.yul\":432:534   */\n      swap2\n      swap1\n      pop\n      jump\t// out\n        /* \"#utility.yul\":540:917   */\n    tag_124:\n        /* \"#utility.yul\":628:631   */\n      0x00\n        /* \"#utility.yul\":656:695   */\n      tag_148\n        /* \"#utility.yul\":689:694   */\n      dup3\n        /* \"#utility.yul\":656:695   */\n      tag_120\n      jump\t// in\n    tag_148:\n        /* \"#utility.yul\":711:782   */\n      tag_149\n        /* \"#utility.yul\":775:781   */\n      dup2\n        /* \"#utility.yul\":770:773   */\n      dup6\n        /* \"#utility.yul\":711:782   */\n      tag_121\n      jump\t// in\n    tag_149:\n        /* \"#utility.yul\":704:782   */\n      swap4\n      pop\n        /* \"#utility.yul\":791:856   */\n      tag_150\n        /* \"#utility.yul\":849:855   */\n      dup2\n        /* \"#utility.yul\":844:847   */\n      dup6\n        /* \"#utility.yul\":837:841   */\n      0x20\n        /* \"#utility.yul\":830:835   */\n      dup7\n        /* \"#utility.yul\":826:842   */\n      add\n        /* \"#utility.yul\":791:856   */\n      tag_122\n      jump\t// in\n    tag_150:\n        /* \"#utility.yul\":881:910   */\n      tag_151\n        /* \"#utility.yul\":903:909   */\n      dup2\n        /* \"#utility.yul\":881:910   */\n      tag_123\n      jump\t// in\n    tag_151:\n        /* \"#utility.yul\":876:879   */\n      dup5\n        /* \"#utility.yul\":872:911   */\n      add\n        /* \"#utility.yul\":865:911   */\n      swap2\n      pop\n        /* \"#utility.yul\":632:917   */\n      pop\n        /* \"#utility.yul\":540:917   */\n      swap3\n      swap2\n      pop\n      pop\n      jump\t// out\n        /* \"#utility.yul\":923:1236   */\n    tag_27:\n        /* \"#utility.yul\":1036:1040   */\n      0x00\n        /* \"#utility.yul\":1074:1076   */\n      0x20\n        /* \"#utility.yul\":1063:1072   */\n      dup3\n        /* \"#utility.yul\":1059:1077   */\n      add\n        /* \"#utility.yul\":1051:1077   */\n      swap1\n      pop\n        /* \"#utility.yul\":1123:1132   */\n      dup2\n        /* \"#utility.yul\":1117:1121   */\n      dup2\n        /* \"#utility.yul\":1113:1133   */\n      sub\n        /* \"#utility.yul\":1109:1110   */\n      0x00\n        /* \"#utility.yul\":1098:1107   */\n      dup4\n        /* \"#utility.yul\":1094:1111   */\n      add\n        /* \"#utility.yul\":1087:1134   */\n      mstore\n        /* \"#utility.yul\":1151:1229   */\n      tag_153\n        /* \"#utility.yul\":1224:1228   */\n      dup2\n        /* \"#utility.yul\":1215:1221   */\n      dup5\n        /* \"#utility.yul\":1151:1229   */\n      tag_124\n      jump\t// in\n    tag_153:\n        /* \"#utility.yul\":1143:1229   */\n      swap1\n      pop\n        /* \"#utility.yul\":923:1236   */\n      swap3\n      swap2\n      pop\n      pop\n      jump\t// out\n        /* \"#utility.yul\":1323:1440   */\n    tag_126:\n        /* \"#utility.yul\":1432:1433   */\n      0x00\n        /* \"#utility.yul\":1429:1430   */\n      dup1\n        /* \"#utility.yul\":1422:1434   */\n      revert\n        /* \"#utility.yul\":1569:1695   */\n    tag_128:\n        /* \"#utility.yul\":1606:1613   */\n      0x00\n        /* \"#utility.yul\":1646:1688   */\n      0xffffffffffffffffffffffffffffffffffffffff\n        /* \"#utility.yul\":1639:1644   */\n      dup3\n        /* \"#utility.yul\":1635:1689   */\n      and\n        /* \"#utility.yul\":1624:1689   */\n      swap1\n      pop\n        /* \"#utility.yul\":1569:1695   */\n      swap2\n      swap1\n      pop\n      jump\t// out\n        /* \"#utility.yul\":1701:1797   */\n    tag_129:\n        /* \"#utility.yul\":1738:1745   */\n      0x00\n        /* \"#utility.yul\":1767:1791   */\n      tag_159\n        /* \"#utility.yul\":1785:1790   */\n      dup3\n        /* \"#utility.yul\":1767:1791   */\n      tag_128\n      jump\t// in\n    tag_159:\n        /* \"#utility.yul\":1756:1791   */\n      swap1\n      pop\n        /* \"#utility.yul\":1701:1797   */\n      swap2\n      swap1\n      pop\n      jump\t// out\n        /* \"#utility.yul\":1803:1925   */\n    tag_130:\n        /* \"#utility.yul\":1876:1900   */\n      tag_161\n        /* \"#utility.yul\":1894:1899   */\n      dup2\n        /* \"#utility.yul\":1876:1900   */\n      tag_129\n      jump\t// in\n    tag_161:\n        /* \"#utility.yul\":1869:1874   */\n      dup2\n        /* \"#utility.yul\":1866:1901   */\n      eq\n        /* \"#utility.yul\":1856:1919   */\n      tag_162\n      jumpi\n        /* \"#utility.yul\":1915:1916   */\n      0x00\n        /* \"#utility.yul\":1912:1913   */\n      dup1\n        /* \"#utility.yul\":1905:1917   */\n      revert\n        /* \"#utility.yul\":1856:1919   */\n    tag_162:\n        /* \"#utility.yul\":1803:1925   */\n      pop\n      jump\t// out\n        /* \"#utility.yul\":1931:2070   */\n    tag_131:\n        /* \"#utility.yul\":1977:1982   */\n      0x00\n        /* \"#utility.yul\":2015:2021   */\n      dup2\n        /* \"#utility.yul\":2002:2022   */\n      calldataload\n        /* \"#utility.yul\":1993:2022   */\n      swap1\n      pop\n        /* \"#utility.yul\":2031:2064   */\n      tag_164\n        /* \"#utility.yul\":2058:2063   */\n      dup2\n        /* \"#utility.yul\":2031:2064   */\n      tag_130\n      jump\t// in\n    tag_164:\n        /* \"#utility.yul\":1931:2070   */\n      swap3\n      swap2\n      pop\n      pop\n      jump\t// out\n        /* \"#utility.yul\":2076:2153   */\n    tag_132:\n        /* \"#utility.yul\":2113:2120   */\n      0x00\n        /* \"#utility.yul\":2142:2147   */\n      dup2\n        /* \"#utility.yul\":2131:2147   */\n      swap1\n      pop\n        /* \"#utility.yul\":2076:2153   */\n      swap2\n      swap1\n      pop\n      jump\t// out\n        /* \"#utility.yul\":2159:2281   */\n    tag_133:\n        /* \"#utility.yul\":2232:2256   */\n      tag_167\n        /* \"#utility.yul\":2250:2255   */\n      dup2\n        /* \"#utility.yul\":2232:2256   */\n      tag_132\n      jump\t// in\n    tag_167:\n        /* \"#utility.yul\":2225:2230   */\n      dup2\n        /* \"#utility.yul\":2222:2257   */\n      eq\n        /* \"#utility.yul\":2212:2275   */\n      tag_168\n      jumpi\n        /* \"#utility.yul\":2271:2272   */\n      0x00\n        /* \"#utility.yul\":2268:2269   */\n      dup1\n        /* \"#utility.yul\":2261:2273   */\n      revert\n        /* \"#utility.yul\":2212:2275   */\n    tag_168:\n        /* \"#utility.yul\":2159:2281   */\n      pop\n      jump\t// out\n        /* \"#utility.yul\":2287:2426   */\n    tag_134:\n        /* \"#utility.yul\":2333:2338   */\n      0x00\n        /* \"#utility.yul\":2371:2377   */\n      dup2\n        /* \"#utility.yul\":2358:2378   */\n      calldataload\n        /* \"#utility.yul\":2349:2378   */\n      swap1\n      pop\n        /* \"#utility.yul\":2387:2420   */\n      tag_170\n        /* \"#utility.yul\":2414:2419   */\n      dup2\n        /* \"#utility.yul\":2387:2420   */\n      tag_133\n      jump\t// in\n    tag_170:\n        /* \"#utility.yul\":2287:2426   */\n      swap3\n      swap2\n      pop\n      pop\n      jump\t// out\n        /* \"#utility.yul\":2432:2906   */\n    tag_31:\n        /* \"#utility.yul\":2500:2506   */\n      0x00\n        /* \"#utility.yul\":2508:2514   */\n      dup1\n        /* \"#utility.yul\":2557:2559   */\n      0x40\n        /* \"#utility.yul\":2545:2554   */\n      dup4\n        /* \"#utility.yul\":2536:2543   */\n      dup6\n        /* \"#utility.yul\":2532:2555   */\n      sub\n        /* \"#utility.yul\":2528:2560   */\n      slt\n        /* \"#utility.yul\":2525:2644   */\n      iszero\n      tag_172\n      jumpi\n        /* \"#utility.yul\":2563:2642   */\n      tag_173\n      tag_126\n      jump\t// in\n    tag_173:\n        /* \"#utility.yul\":2525:2644   */\n    tag_172:\n        /* \"#utility.yul\":2683:2684   */\n      0x00\n        /* \"#utility.yul\":2708:2761   */\n      tag_174\n        /* \"#utility.yul\":2753:2760   */\n      dup6\n        /* \"#utility.yul\":2744:2750   */\n      dup3\n        /* \"#utility.yul\":2733:2742   */\n      dup7\n        /* \"#utility.yul\":2729:2751   */\n      add\n        /* \"#utility.yul\":2708:2761   */\n      tag_131\n      jump\t// in\n    tag_174:\n        /* \"#utility.yul\":2698:2761   */\n      swap3\n      pop\n        /* \"#utility.yul\":2654:2771   */\n      pop\n        /* \"#utility.yul\":2810:2812   */\n      0x20\n        /* \"#utility.yul\":2836:2889   */\n      tag_175\n        /* \"#utility.yul\":2881:2888   */\n      dup6\n        /* \"#utility.yul\":2872:2878   */\n      dup3\n        /* \"#utility.yul\":2861:2870   */\n      dup7\n        /* \"#utility.yul\":2857:2879   */\n      add\n        /* \"#utility.yul\":2836:2889   */\n      tag_134\n      jump\t// in\n    tag_175:\n        /* \"#utility.yul\":2826:2889   */\n      swap2\n      pop\n        /* \"#utility.yul\":2781:2899   */\n      pop\n        /* \"#utility.yul\":2432:2906   */\n      swap3\n      pop\n      swap3\n      swap1\n      pop\n      jump\t// out\n        /* \"#utility.yul\":2912:3002   */\n    tag_135:\n        /* \"#utility.yul\":2946:2953   */\n      0x00\n        /* \"#utility.yul\":2989:2994   */\n      dup2\n        /* \"#utility.yul\":2982:2995   */\n      iszero\n        /* \"#utility.yul\":2975:2996   */\n      iszero\n        /* \"#utility.yul\":2964:2996   */\n      swap1\n      pop\n        /* \"#utility.yul\":2912:3002   */\n      swap2\n      swap1\n      pop\n      jump\t// out\n        /* \"#utility.yul\":3008:3117   */\n    tag_136:\n        /* \"#utility.yul\":3089:3110   */\n      tag_178\n        /* \"#utility.yul\":3104:3109   */\n      dup2\n        /* \"#utility.yul\":3089:3110   */\n      tag_135\n      jump\t// in\n    tag_178:\n        /* \"#utility.yul\":3084:3087   */\n      dup3\n        /* \"#utility.yul\":3077:3111   */\n      mstore\n        /* \"#utility.yul\":3008:3117   */\n      pop\n      pop\n      jump\t// out\n        /* \"#utility.yul\":3123:3333   */\n    tag_34:\n        /* \"#utility.yul\":3210:3214   */\n      0x00\n        /* \"#utility.yul\":3248:3250   */\n      0x20\n        /* \"#utility.yul\":3237:3246   */\n      dup3\n        /* \"#utility.yul\":3233:3251   */\n      add\n        /* \"#utility.yul\":3225:3251   */\n      swap1\n      pop\n        /* \"#utility.yul\":3261:3326   */\n      tag_180\n        /* \"#utility.yul\":3323:3324   */\n      0x00\n        /* \"#utility.yul\":3312:3321   */\n      dup4\n        /* \"#utility.yul\":3308:3325   */\n      add\n        /* \"#utility.yul\":3299:3305   */\n      dup5\n        /* \"#utility.yul\":3261:3326   */\n      tag_136\n      jump\t// in\n    tag_180:\n        /* \"#utility.yul\":3123:3333   */\n      swap3\n      swap2\n      pop\n      pop\n      jump\t// out\n        /* \"#utility.yul\":3339:3457   */\n    tag_137:\n        /* \"#utility.yul\":3426:3450   */\n      tag_182\n        /* \"#utility.yul\":3444:3449   */\n      dup2\n        /* \"#utility.yul\":3426:3450   */\n      tag_132\n      jump\t// in\n    tag_182:\n        /* \"#utility.yul\":3421:3424   */\n      dup3\n        /* \"#utility.yul\":3414:3451   */\n      mstore\n        /* \"#utility.yul\":3339:3457   */\n      pop\n      pop\n      jump\t// out\n        /* \"#utility.yul\":3463:3685   */\n    tag_39:\n        /* \"#utility.yul\":3556:3560   */\n      0x00\n        /* \"#utility.yul\":3594:3596   */\n      0x20\n        /* \"#utility.yul\":3583:3592   */\n      dup3\n        /* \"#utility.yul\":3579:3597   */\n      add\n        /* \"#utility.yul\":3571:3597   */\n      swap1\n      pop\n        /* \"#utility.yul\":3607:3678   */\n      tag_184\n        /* \"#utility.yul\":3675:3676   */\n      0x00\n        /* \"#utility.yul\":3664:3673   */\n      dup4\n        /* \"#utility.yul\":3660:3677   */\n      add\n        /* \"#utility.yul\":3651:3657   */\n      dup5\n        /* \"#utility.yul\":3607:3678   */\n      tag_137\n      jump\t// in\n    tag_184:\n        /* \"#utility.yul\":3463:3685   */\n      swap3\n      swap2\n      pop\n      pop\n      jump\t// out\n        /* \"#utility.yul\":3691:4310   */\n    tag_47:\n        /* \"#utility.yul\":3768:3774   */\n      0x00\n        /* \"#utility.yul\":3776:3782   */\n      dup1\n        /* \"#utility.yul\":3784:3790   */\n      0x00\n        /* \"#utility.yul\":3833:3835   */\n      0x60\n        /* \"#utility.yul\":3821:3830   */\n      dup5\n        /* \"#utility.yul\":3812:3819   */\n      dup7\n        /* \"#utility.yul\":3808:3831   */\n      sub\n        /* \"#utility.yul\":3804:3836   */\n      slt\n        /* \"#utility.yul\":3801:3920   */\n      iszero\n      tag_186\n      jumpi\n        /* \"#utility.yul\":3839:3918   */\n      tag_187\n      tag_126\n      jump\t// in\n    tag_187:\n        /* \"#utility.yul\":3801:3920   */\n    tag_186:\n        /* \"#utility.yul\":3959:3960   */\n      0x00\n        /* \"#utility.yul\":3984:4037   */\n      tag_188\n        /* \"#utility.yul\":4029:4036   */\n      dup7\n        /* \"#utility.yul\":4020:4026   */\n      dup3\n        /* \"#utility.yul\":4009:4018   */\n      dup8\n        /* \"#utility.yul\":4005:4027   */\n      add\n        /* \"#utility.yul\":3984:4037   */\n      tag_131\n      jump\t// in\n    tag_188:\n        /* \"#utility.yul\":3974:4037   */\n      swap4\n      pop\n        /* \"#utility.yul\":3930:4047   */\n      pop\n        /* \"#utility.yul\":4086:4088   */\n      0x20\n        /* \"#utility.yul\":4112:4165   */\n      tag_189\n        /* \"#utility.yul\":4157:4164   */\n      dup7\n        /* \"#utility.yul\":4148:4154   */\n      dup3\n        /* \"#utility.yul\":4137:4146   */\n      dup8\n        /* \"#utility.yul\":4133:4155   */\n      add\n        /* \"#utility.yul\":4112:4165   */\n      tag_131\n      jump\t// in\n    tag_189:\n        /* \"#utility.yul\":4102:4165   */\n      swap3\n      pop\n        /* \"#utility.yul\":4057:4175   */\n      pop\n        /* \"#utility.yul\":4214:4216   */\n      0x40\n        /* \"#utility.yul\":4240:4293   */\n      tag_190\n        /* \"#utility.yul\":4285:4292   */\n      dup7\n        /* \"#utility.yul\":4276:4282   */\n      dup3\n        /* \"#utility.yul\":4265:4274   */\n      dup8\n        /* \"#utility.yul\":4261:4283   */\n      add\n        /* \"#utility.yul\":4240:4293   */\n      tag_134\n      jump\t// in\n    tag_190:\n        /* \"#utility.yul\":4230:4293   */\n      swap2\n      pop\n        /* \"#utility.yul\":4185:4303   */\n      pop\n        /* \"#utility.yul\":3691:4310   */\n      swap3\n      pop\n      swap3\n      pop\n      swap3\n      jump\t// out\n        /* \"#utility.yul\":4316:4645   */\n    tag_53:\n        /* \"#utility.yul\":4375:4381   */\n      0x00\n        /* \"#utility.yul\":4424:4426   */\n      0x20\n        /* \"#utility.yul\":4412:4421   */\n      dup3\n        /* \"#utility.yul\":4403:4410   */\n      dup5\n        /* \"#utility.yul\":4399:4422   */\n      sub\n        /* \"#utility.yul\":4395:4427   */\n      slt\n        /* \"#utility.yul\":4392:4511   */\n      iszero\n      tag_192\n      jumpi\n        /* \"#utility.yul\":4430:4509   */\n      tag_193\n      tag_126\n      jump\t// in\n    tag_193:\n        /* \"#utility.yul\":4392:4511   */\n    tag_192:\n        /* \"#utility.yul\":4550:4551   */\n      0x00\n        /* \"#utility.yul\":4575:4628   */\n      tag_194\n        /* \"#utility.yul\":4620:4627   */\n      dup5\n        /* \"#utility.yul\":4611:4617   */\n      dup3\n        /* \"#utility.yul\":4600:4609   */\n      dup6\n        /* \"#utility.yul\":4596:4618   */\n      add\n        /* \"#utility.yul\":4575:4628   */\n      tag_134\n      jump\t// in\n    tag_194:\n        /* \"#utility.yul\":4565:4628   */\n      swap2\n      pop\n        /* \"#utility.yul\":4521:4638   */\n      pop\n        /* \"#utility.yul\":4316:4645   */\n      swap3\n      swap2\n      pop\n      pop\n      jump\t// out\n        /* \"#utility.yul\":4651:4737   */\n    tag_138:\n        /* \"#utility.yul\":4686:4693   */\n      0x00\n        /* \"#utility.yul\":4726:4730   */\n      0xff\n        /* \"#utility.yul\":4719:4724   */\n      dup3\n        /* \"#utility.yul\":4715:4731   */\n      and\n        /* \"#utility.yul\":4704:4731   */\n      swap1\n      pop\n        /* \"#utility.yul\":4651:4737   */\n      swap2\n      swap1\n      pop\n      jump\t// out\n        /* \"#utility.yul\":4743:4855   */\n    tag_139:\n        /* \"#utility.yul\":4826:4848   */\n      tag_197\n        /* \"#utility.yul\":4842:4847   */\n      dup2\n        /* \"#utility.yul\":4826:4848   */\n      tag_138\n      jump\t// in\n    tag_197:\n        /* \"#utility.yul\":4821:4824   */\n      dup3\n        /* \"#utility.yul\":4814:4849   */\n      mstore\n        /* \"#utility.yul\":4743:4855   */\n      pop\n      pop\n      jump\t// out\n        /* \"#utility.yul\":4861:5075   */\n    tag_59:\n        /* \"#utility.yul\":4950:4954   */\n      0x00\n        /* \"#utility.yul\":4988:4990   */\n      0x20\n        /* \"#utility.yul\":4977:4986   */\n      dup3\n        /* \"#utility.yul\":4973:4991   */\n      add\n        /* \"#utility.yul\":4965:4991   */\n      swap1\n      pop\n        /* \"#utility.yul\":5001:5068   */\n      tag_199\n        /* \"#utility.yul\":5065:5066   */\n      0x00\n        /* \"#utility.yul\":5054:5063   */\n      dup4\n        /* \"#utility.yul\":5050:5067   */\n      add\n        /* \"#utility.yul\":5041:5047   */\n      dup5\n        /* \"#utility.yul\":5001:5068   */\n      tag_139\n      jump\t// in\n    tag_199:\n        /* \"#utility.yul\":4861:5075   */\n      swap3\n      swap2\n      pop\n      pop\n      jump\t// out\n        /* \"#utility.yul\":5081:5410   */\n    tag_63:\n        /* \"#utility.yul\":5140:5146   */\n      0x00\n        /* \"#utility.yul\":5189:5191   */\n      0x20\n        /* \"#utility.yul\":5177:5186   */\n      dup3\n        /* \"#utility.yul\":5168:5175   */\n      dup5\n        /* \"#utility.yul\":5164:5187   */\n      sub\n        /* \"#utility.yul\":5160:5192   */\n      slt\n        /* \"#utility.yul\":5157:5276   */\n      iszero\n      tag_201\n      jumpi\n        /* \"#utility.yul\":5195:5274   */\n      tag_202\n      tag_126\n      jump\t// in\n    tag_202:\n        /* \"#utility.yul\":5157:5276   */\n    tag_201:\n        /* \"#utility.yul\":5315:5316   */\n      0x00\n        /* \"#utility.yul\":5340:5393   */\n      tag_203\n        /* \"#utility.yul\":5385:5392   */\n      dup5\n        /* \"#utility.yul\":5376:5382   */\n      dup3\n        /* \"#utility.yul\":5365:5374   */\n      dup6\n        /* \"#utility.yul\":5361:5383   */\n      add\n        /* \"#utility.yul\":5340:5393   */\n      tag_131\n      jump\t// in\n    tag_203:\n        /* \"#utility.yul\":5330:5393   */\n      swap2\n      pop\n        /* \"#utility.yul\":5286:5403   */\n      pop\n        /* \"#utility.yul\":5081:5410   */\n      swap3\n      swap2\n      pop\n      pop\n      jump\t// out\n        /* \"#utility.yul\":5416:5890   */\n    tag_79:\n        /* \"#utility.yul\":5484:5490   */\n      0x00\n        /* \"#utility.yul\":5492:5498   */\n      dup1\n        /* \"#utility.yul\":5541:5543   */\n      0x40\n        /* \"#utility.yul\":5529:5538   */\n      dup4\n        /* \"#utility.yul\":5520:5527   */\n      dup6\n        /* \"#utility.yul\":5516:5539   */\n      sub\n        /* \"#utility.yul\":5512:5544   */\n      slt\n        /* \"#utility.yul\":5509:5628   */\n      iszero\n      tag_205\n      jumpi\n        /* \"#utility.yul\":5547:5626   */\n      tag_206\n      tag_126\n      jump\t// in\n    tag_206:\n        /* \"#utility.yul\":5509:5628   */\n    tag_205:\n        /* \"#utility.yul\":5667:5668   */\n      0x00\n        /* \"#utility.yul\":5692:5745   */\n      tag_207\n        /* \"#utility.yul\":5737:5744   */\n      dup6\n        /* \"#utility.yul\":5728:5734   */\n      dup3\n        /* \"#utility.yul\":5717:5726   */\n      dup7\n        /* \"#utility.yul\":5713:5735   */\n      add\n        /* \"#utility.yul\":5692:5745   */\n      tag_131\n      jump\t// in\n    tag_207:\n        /* \"#utility.yul\":5682:5745   */\n      swap3\n      pop\n        /* \"#utility.yul\":5638:5755   */\n      pop\n        /* \"#utility.yul\":5794:5796   */\n      0x20\n        /* \"#utility.yul\":5820:5873   */\n      tag_208\n        /* \"#utility.yul\":5865:5872   */\n      dup6\n        /* \"#utility.yul\":5856:5862   */\n      dup3\n        /* \"#utility.yul\":5845:5854   */\n      dup7\n        /* \"#utility.yul\":5841:5863   */\n      add\n        /* \"#utility.yul\":5820:5873   */\n      tag_131\n      jump\t// in\n    tag_208:\n        /* \"#utility.yul\":5810:5873   */\n      swap2\n      pop\n        /* \"#utility.yul\":5765:5883   */\n      pop\n        /* \"#utility.yul\":5416:5890   */\n      swap3\n      pop\n      swap3\n      swap1\n      pop\n      jump\t// out\n        /* \"#utility.yul\":5896:6076   */\n    tag_140:\n        /* \"#utility.yul\":5944:6021   */\n      0x4e487b7100000000000000000000000000000000000000000000000000000000\n        /* \"#utility.yul\":5941:5942   */\n      0x00\n        /* \"#utility.yul\":5934:6022   */\n      mstore\n        /* \"#utility.yul\":6041:6045   */\n      0x11\n        /* \"#utility.yul\":6038:6039   */\n      0x04\n        /* \"#utility.yul\":6031:6046   */\n      mstore\n        /* \"#utility.yul\":6065:6069   */\n      0x24\n        /* \"#utility.yul\":6062:6063   */\n      0x00\n        /* \"#utility.yul\":6055:6070   */\n      revert\n        /* \"#utility.yul\":6082:6273   */\n    tag_86:\n        /* \"#utility.yul\":6122:6125   */\n      0x00\n        /* \"#utility.yul\":6141:6161   */\n      tag_211\n        /* \"#utility.yul\":6159:6160   */\n      dup3\n        /* \"#utility.yul\":6141:6161   */\n      tag_132\n      jump\t// in\n    tag_211:\n        /* \"#utility.yul\":6136:6161   */\n      swap2\n      pop\n        /* \"#utility.yul\":6175:6195   */\n      tag_212\n        /* \"#utility.yul\":6193:6194   */\n      dup4\n        /* \"#utility.yul\":6175:6195   */\n      tag_132\n      jump\t// in\n    tag_212:\n        /* \"#utility.yul\":6170:6195   */\n      swap3\n      pop\n        /* \"#utility.yul\":6218:6219   */\n      dup3\n        /* \"#utility.yul\":6215:6216   */\n      dup3\n        /* \"#utility.yul\":6211:6220   */\n      add\n        /* \"#utility.yul\":6204:6220   */\n      swap1\n      pop\n        /* \"#utility.yul\":6239:6242   */\n      dup1\n        /* \"#utility.yul\":6236:6237   */\n      dup3\n        /* \"#utility.yul\":6233:6243   */\n      gt\n        /* \"#utility.yul\":6230:6266   */\n      iszero\n      tag_213\n      jumpi\n        /* \"#utility.yul\":6246:6264   */\n      tag_214\n      tag_140\n      jump\t// in\n    tag_214:\n        /* \"#utility.yul\":6230:6266   */\n    tag_213:\n        /* \"#utility.yul\":6082:6273   */\n      swap3\n      swap2\n      pop\n      pop\n      jump\t// out\n        /* \"#utility.yul\":6279:6459   */\n    tag_141:\n        /* \"#utility.yul\":6327:6404   */\n      0x4e487b7100000000000000000000000000000000000000000000000000000000\n        /* \"#utility.yul\":6324:6325   */\n      0x00\n        /* \"#utility.yul\":6317:6405   */\n      mstore\n        /* \"#utility.yul\":6424:6428   */\n      0x22\n        /* \"#utility.yul\":6421:6422   */\n      0x04\n        /* \"#utility.yul\":6414:6429   */\n      mstore\n        /* \"#utility.yul\":6448:6452   */\n      0x24\n        /* \"#utility.yul\":6445:6446   */\n      0x00\n        /* \"#utility.yul\":6438:6453   */\n      revert\n        /* \"#utility.yul\":6465:6785   */\n    tag_91:\n        /* \"#utility.yul\":6509:6515   */\n      0x00\n        /* \"#utility.yul\":6546:6547   */\n      0x02\n        /* \"#utility.yul\":6540:6544   */\n      dup3\n        /* \"#utility.yul\":6536:6548   */\n      div\n        /* \"#utility.yul\":6526:6548   */\n      swap1\n      pop\n        /* \"#utility.yul\":6593:6594   */\n      0x01\n        /* \"#utility.yul\":6587:6591   */\n      dup3\n        /* \"#utility.yul\":6583:6595   */\n      and\n        /* \"#utility.yul\":6614:6632   */\n      dup1\n        /* \"#utility.yul\":6604:6685   */\n      tag_217\n      jumpi\n        /* \"#utility.yul\":6670:6674   */\n      0x7f\n        /* \"#utility.yul\":6662:6668   */\n      dup3\n        /* \"#utility.yul\":6658:6675   */\n      and\n        /* \"#utility.yul\":6648:6675   */\n      swap2\n      pop\n        /* \"#utility.yul\":6604:6685   */\n    tag_217:\n        /* \"#utility.yul\":6732:6734   */\n      0x20\n        /* \"#utility.yul\":6724:6730   */\n      dup3\n        /* \"#utility.yul\":6721:6735   */\n      lt\n        /* \"#utility.yul\":6701:6719   */\n      dup2\n        /* \"#utility.yul\":6698:6736   */\n      sub\n        /* \"#utility.yul\":6695:6779   */\n      tag_218\n      jumpi\n        /* \"#utility.yul\":6751:6769   */\n      tag_219\n      tag_141\n      jump\t// in\n    tag_219:\n        /* \"#utility.yul\":6695:6779   */\n    tag_218:\n        /* \"#utility.yul\":6516:6785   */\n      pop\n        /* \"#utility.yul\":6465:6785   */\n      swap2\n      swap1\n      pop\n      jump\t// out\n        /* \"#utility.yul\":6791:6985   */\n    tag_105:\n        /* \"#utility.yul\":6831:6835   */\n      0x00\n        /* \"#utility.yul\":6851:6871   */\n      tag_221\n        /* \"#utility.yul\":6869:6870   */\n      dup3\n        /* \"#utility.yul\":6851:6871   */\n      tag_132\n      jump\t// in\n    tag_221:\n        /* \"#utility.yul\":6846:6871   */\n      swap2\n      pop\n        /* \"#utility.yul\":6885:6905   */\n      tag_222\n        /* \"#utility.yul\":6903:6904   */\n      dup4\n        /* \"#utility.yul\":6885:6905   */\n      tag_132\n      jump\t// in\n    tag_222:\n        /* \"#utility.yul\":6880:6905   */\n      swap3\n      pop\n        /* \"#utility.yul\":6929:6930   */\n      dup3\n        /* \"#utility.yul\":6926:6927   */\n      dup3\n        /* \"#utility.yul\":6922:6931   */\n      sub\n        /* \"#utility.yul\":6914:6931   */\n      swap1\n      pop\n        /* \"#utility.yul\":6953:6954   */\n      dup2\n        /* \"#utility.yul\":6947:6951   */\n      dup2\n        /* \"#utility.yul\":6944:6955   */\n      gt\n        /* \"#utility.yul\":6941:6978   */\n      iszero\n      tag_223\n      jumpi\n        /* \"#utility.yul\":6958:6976   */\n      tag_224\n      tag_140\n      jump\t// in\n    tag_224:\n        /* \"#utility.yul\":6941:6978   */\n    tag_223:\n        /* \"#utility.yul\":6791:6985   */\n      swap3\n      swap2\n      pop\n      pop\n      jump\t// out\n\n    auxdata: 0xa26469706673582212208cfa0374d3424a8816caa1227ec42ee80e174feb7018b4d42298b82c553626b064736f6c634300081a0033\n}\n",
				"bytecode": {
					"linkReferences": {},
					"object": "60806040526040518060400160405280600d81526020017f57726170706564204574686572000000000000000000000000000000000000008152505f908161004791906102f3565b506040518060400160405280600481526020017f57455448000000000000000000000000000000000000000000000000000000008152506001908161008c91906102f3565b50601260025f6101000a81548160ff021916908360ff1602179055503480156100b3575f80fd5b506103c2565b5f81519050919050565b7f4e487b71000000000000000000000000000000000000000000000000000000005f52604160045260245ffd5b7f4e487b71000000000000000000000000000000000000000000000000000000005f52602260045260245ffd5b5f600282049050600182168061013457607f821691505b602082108103610147576101466100f0565b5b50919050565b5f819050815f5260205f209050919050565b5f6020601f8301049050919050565b5f82821b905092915050565b5f600883026101a97fffffffffffffffffffffffffffffffffffffffffffffffffffffffffffffffff8261016e565b6101b3868361016e565b95508019841693508086168417925050509392505050565b5f819050919050565b5f819050919050565b5f6101f76101f26101ed846101cb565b6101d4565b6101cb565b9050919050565b5f819050919050565b610210836101dd565b61022461021c826101fe565b84845461017a565b825550505050565b5f90565b61023861022c565b610243818484610207565b505050565b5b818110156102665761025b5f82610230565b600181019050610249565b5050565b601f8211156102ab5761027c8161014d565b6102858461015f565b81016020851015610294578190505b6102a86102a08561015f565b830182610248565b50505b505050565b5f82821c905092915050565b5f6102cb5f19846008026102b0565b1980831691505092915050565b5f6102e383836102bc565b9150826002028217905092915050565b6102fc826100b9565b67ffffffffffffffff811115610315576103146100c3565b5b61031f825461011d565b61032a82828561026a565b5f60209050601f83116001811461035b575f8415610349578287015190505b61035385826102d8565b8655506103ba565b601f1984166103698661014d565b5f5b828110156103905784890151825560018201915060208501945060208101905061036b565b868310156103ad57848901516103a9601f8916826102bc565b8355505b6001600288020188555050505b505050505050565b610e41806103cf5f395ff3fe6080604052600436106100aa575f3560e01c8063313ce56711610063578063313ce567146101e157806370a082311461020b57806395d89b4114610247578063a9059cbb14610271578063d0e30db0146102ad578063dd62ed3e146102b7576100b9565b806306fdde03146100c3578063095ea7b3146100ed57806318160ddd146101295780631a39d8ef1461015357806323b872dd1461017d5780632e1a7d4d146101b9576100b9565b366100b9576100b76102f3565b005b6100c16102f3565b005b3480156100ce575f80fd5b506100d76103f8565b6040516100e49190610ab9565b60405180910390f35b3480156100f8575f80fd5b50610113600480360381019061010e9190610b6a565b610483565b6040516101209190610bc2565b60405180910390f35b348015610134575f80fd5b5061013d610570565b60405161014a9190610bea565b60405180910390f35b34801561015e575f80fd5b506101676105c9565b6040516101749190610bea565b60405180910390f35b348015610188575f80fd5b506101a3600480360381019061019e9190610c03565b6105cf565b6040516101b09190610bc2565b60405180910390f35b3480156101c4575f80fd5b506101df60048036038101906101da9190610c53565b610875565b005b3480156101ec575f80fd5b506101f5610962565b6040516102029190610c99565b60405180910390f35b348015610216575f80fd5b50610231600480360381019061022c9190610cb2565b610974565b60405161023e9190610bea565b60405180910390f35b348015610252575f80fd5b5061025b610989565b6040516102689190610ab9565b60405180910390f35b34801561027c575f80fd5b5061029760048036038101906102929190610b6a565b610a15565b6040516102a49190610bc2565b60405180910390f35b6102b56102f3565b005b3480156102c2575f80fd5b506102dd60048036038101906102d89190610cdd565b610a29565b6040516102ea9190610bea565b60405180910390f35b5f34146103005734610303565b60015b60045f3373ffffffffffffffffffffffffffffffffffffffff1673ffffffffffffffffffffffffffffffffffffffff1681526020019081526020015f205f82825461034e9190610d48565b9250508190555060045f3373ffffffffffffffffffffffffffffffffffffffff1673ffffffffffffffffffffffffffffffffffffffff1681526020019081526020015f20546003819055503373ffffffffffffffffffffffffffffffffffffffff167fe1fffcc4923d04b559f4d29a8bfc6cda04eb5b0d3c460751c2402c5c5cc9109c5f34146103de57346103e1565b60015b6040516103ee9190610bea565b60405180910390a2565b5f805461040490610da8565b80601f016020809104026020016040519081016040528092919081815260200182805461043090610da8565b801561047b5780601f106104525761010080835404028352916020019161047b565b820191905f5260205f20905b81548152906001019060200180831161045e57829003601f168201915b505050505081565b5f8160055f3373ffffffffffffffffffffffffffffffffffffffff1673ffffffffffffffffffffffffffffffffffffffff1681526020019081526020015f205f8573ffffffffffffffffffffffffffffffffffffffff1673ffffffffffffffffffffffffffffffffffffffff1681526020019081526020015f20819055508273ffffffffffffffffffffffffffffffffffffffff163373ffffffffffffffffffffffffffffffffffffffff167f8c5be1e5ebec7d5bd14f71427d1e84f3dd0314c0f7b2291e5b200ac8c7c3b9258460405161055e9190610bea565b60405180910390a36001905092915050565b5f3373ffffffffffffffffffffffffffffffffffffffff167f7249fd4c03cce09b30a13d77804b198e2647c0ccd59eadf4de4e7c16099badc56003546040516105b99190610bea565b60405180910390a2600354905090565b60035481565b5f8160045f8673ffffffffffffffffffffffffffffffffffffffff1673ffffffffffffffffffffffffffffffffffffffff1681526020019081526020015f20541015610619575f80fd5b3373ffffffffffffffffffffffffffffffffffffffff168473ffffffffffffffffffffffffffffffffffffffff161461075f578160055f8673ffffffffffffffffffffffffffffffffffffffff1673ffffffffffffffffffffffffffffffffffffffff1681526020019081526020015f205f3373ffffffffffffffffffffffffffffffffffffffff1673ffffffffffffffffffffffffffffffffffffffff1681526020019081526020015f205410156106d0575f80fd5b8160055f8673ffffffffffffffffffffffffffffffffffffffff1673ffffffffffffffffffffffffffffffffffffffff1681526020019081526020015f205f3373ffffffffffffffffffffffffffffffffffffffff1673ffffffffffffffffffffffffffffffffffffffff1681526020019081526020015f205f8282546107579190610dd8565b925050819055505b8160045f8673ffffffffffffffffffffffffffffffffffffffff1673ffffffffffffffffffffffffffffffffffffffff1681526020019081526020015f205f8282546107ab9190610dd8565b925050819055508160045f8573ffffffffffffffffffffffffffffffffffffffff1673ffffffffffffffffffffffffffffffffffffffff1681526020019081526020015f205f8282546107fe9190610d48565b925050819055508273ffffffffffffffffffffffffffffffffffffffff168473ffffffffffffffffffffffffffffffffffffffff167fddf252ad1be2c89b69c2b068fc378daa952ba7f163c4a11628f55a4df523b3ef846040516108629190610bea565b60405180910390a3600190509392505050565b8060045f3373ffffffffffffffffffffffffffffffffffffffff1673ffffffffffffffffffffffffffffffffffffffff1681526020019081526020015f205410156108be575f80fd5b8060045f3373ffffffffffffffffffffffffffffffffffffffff1673ffffffffffffffffffffffffffffffffffffffff1681526020019081526020015f205f82825461090a9190610dd8565b925050819055503373ffffffffffffffffffffffffffffffffffffffff167f884edad9ce6fa2440d8a54cc123490eb96d2768479d49ff9c7366125a9424364826040516109579190610bea565b60405180910390a250565b60025f9054906101000a900460ff1681565b6004602052805f5260405f205f915090505481565b6001805461099690610da8565b80601f01602080910402602001604051908101604052809291908181526020018280546109c290610da8565b8015610a0d5780601f106109e457610100808354040283529160200191610a0d565b820191905f5260205f20905b8154815290600101906020018083116109f057829003601f168201915b505050505081565b5f610a213384846105cf565b905092915050565b6005602052815f5260405f20602052805f5260405f205f91509150505481565b5f81519050919050565b5f82825260208201905092915050565b8281835e5f83830152505050565b5f601f19601f8301169050919050565b5f610a8b82610a49565b610a958185610a53565b9350610aa5818560208601610a63565b610aae81610a71565b840191505092915050565b5f6020820190508181035f830152610ad18184610a81565b905092915050565b5f80fd5b5f73ffffffffffffffffffffffffffffffffffffffff82169050919050565b5f610b0682610add565b9050919050565b610b1681610afc565b8114610b20575f80fd5b50565b5f81359050610b3181610b0d565b92915050565b5f819050919050565b610b4981610b37565b8114610b53575f80fd5b50565b5f81359050610b6481610b40565b92915050565b5f8060408385031215610b8057610b7f610ad9565b5b5f610b8d85828601610b23565b9250506020610b9e85828601610b56565b9150509250929050565b5f8115159050919050565b610bbc81610ba8565b82525050565b5f602082019050610bd55f830184610bb3565b92915050565b610be481610b37565b82525050565b5f602082019050610bfd5f830184610bdb565b92915050565b5f805f60608486031215610c1a57610c19610ad9565b5b5f610c2786828701610b23565b9350506020610c3886828701610b23565b9250506040610c4986828701610b56565b9150509250925092565b5f60208284031215610c6857610c67610ad9565b5b5f610c7584828501610b56565b91505092915050565b5f60ff82169050919050565b610c9381610c7e565b82525050565b5f602082019050610cac5f830184610c8a565b92915050565b5f60208284031215610cc757610cc6610ad9565b5b5f610cd484828501610b23565b91505092915050565b5f8060408385031215610cf357610cf2610ad9565b5b5f610d0085828601610b23565b9250506020610d1185828601610b23565b9150509250929050565b7f4e487b71000000000000000000000000000000000000000000000000000000005f52601160045260245ffd5b5f610d5282610b37565b9150610d5d83610b37565b9250828201905080821115610d7557610d74610d1b565b5b92915050565b7f4e487b71000000000000000000000000000000000000000000000000000000005f52602260045260245ffd5b5f6002820490506001821680610dbf57607f821691505b602082108103610dd257610dd1610d7b565b5b50919050565b5f610de282610b37565b9150610ded83610b37565b9250828203905081811115610e0557610e04610d1b565b5b9291505056fea26469706673582212208cfa0374d3424a8816caa1227ec42ee80e174feb7018b4d42298b82c553626b064736f6c634300081a0033",
					"opcodes": "PUSH1 0x80 PUSH1 0x40 MSTORE PUSH1 0x40 MLOAD DUP1 PUSH1 0x40 ADD PUSH1 0x40 MSTORE DUP1 PUSH1 0xD DUP2 MSTORE PUSH1 0x20 ADD PUSH32 0x5772617070656420457468657200000000000000000000000000000000000000 DUP2 MSTORE POP PUSH0 SWAP1 DUP2 PUSH2 0x47 SWAP2 SWAP1 PUSH2 0x2F3 JUMP JUMPDEST POP PUSH1 0x40 MLOAD DUP1 PUSH1 0x40 ADD PUSH1 0x40 MSTORE DUP1 PUSH1 0x4 DUP2 MSTORE PUSH1 0x20 ADD PUSH32 0x5745544800000000000000000000000000000000000000000000000000000000 DUP2 MSTORE POP PUSH1 0x1 SWAP1 DUP2 PUSH2 0x8C SWAP2 SWAP1 PUSH2 0x2F3 JUMP JUMPDEST POP PUSH1 0x12 PUSH1 0x2 PUSH0 PUSH2 0x100 EXP DUP2 SLOAD DUP2 PUSH1 0xFF MUL NOT AND SWAP1 DUP4 PUSH1 0xFF AND MUL OR SWAP1 SSTORE POP CALLVALUE DUP1 ISZERO PUSH2 0xB3 JUMPI PUSH0 DUP1 REVERT JUMPDEST POP PUSH2 0x3C2 JUMP JUMPDEST PUSH0 DUP2 MLOAD SWAP1 POP SWAP2 SWAP1 POP JUMP JUMPDEST PUSH32 0x4E487B7100000000000000000000000000000000000000000000000000000000 PUSH0 MSTORE PUSH1 0x41 PUSH1 0x4 MSTORE PUSH1 0x24 PUSH0 REVERT JUMPDEST PUSH32 0x4E487B7100000000000000000000000000000000000000000000000000000000 PUSH0 MSTORE PUSH1 0x22 PUSH1 0x4 MSTORE PUSH1 0x24 PUSH0 REVERT JUMPDEST PUSH0 PUSH1 0x2 DUP3 DIV SWAP1 POP PUSH1 0x1 DUP3 AND DUP1 PUSH2 0x134 JUMPI PUSH1 0x7F DUP3 AND SWAP2 POP JUMPDEST PUSH1 0x20 DUP3 LT DUP2 SUB PUSH2 0x147 JUMPI PUSH2 0x146 PUSH2 0xF0 JUMP JUMPDEST JUMPDEST POP SWAP2 SWAP1 POP JUMP JUMPDEST PUSH0 DUP2 SWAP1 POP DUP2 PUSH0 MSTORE PUSH1 0x20 PUSH0 KECCAK256 SWAP1 POP SWAP2 SWAP1 POP JUMP JUMPDEST PUSH0 PUSH1 0x20 PUSH1 0x1F DUP4 ADD DIV SWAP1 POP SWAP2 SWAP1 POP JUMP JUMPDEST PUSH0 DUP3 DUP3 SHL SWAP1 POP SWAP3 SWAP2 POP POP JUMP JUMPDEST PUSH0 PUSH1 0x8 DUP4 MUL PUSH2 0x1A9 PUSH32 0xFFFFFFFFFFFFFFFFFFFFFFFFFFFFFFFFFFFFFFFFFFFFFFFFFFFFFFFFFFFFFFFF DUP3 PUSH2 0x16E JUMP JUMPDEST PUSH2 0x1B3 DUP7 DUP4 PUSH2 0x16E JUMP JUMPDEST SWAP6 POP DUP1 NOT DUP5 AND SWAP4 POP DUP1 DUP7 AND DUP5 OR SWAP3 POP POP POP SWAP4 SWAP3 POP POP POP JUMP JUMPDEST PUSH0 DUP2 SWAP1 POP SWAP2 SWAP1 POP JUMP JUMPDEST PUSH0 DUP2 SWAP1 POP SWAP2 SWAP1 POP JUMP JUMPDEST PUSH0 PUSH2 0x1F7 PUSH2 0x1F2 PUSH2 0x1ED DUP5 PUSH2 0x1CB JUMP JUMPDEST PUSH2 0x1D4 JUMP JUMPDEST PUSH2 0x1CB JUMP JUMPDEST SWAP1 POP SWAP2 SWAP1 POP JUMP JUMPDEST PUSH0 DUP2 SWAP1 POP SWAP2 SWAP1 POP JUMP JUMPDEST PUSH2 0x210 DUP4 PUSH2 0x1DD JUMP JUMPDEST PUSH2 0x224 PUSH2 0x21C DUP3 PUSH2 0x1FE JUMP JUMPDEST DUP5 DUP5 SLOAD PUSH2 0x17A JUMP JUMPDEST DUP3 SSTORE POP POP POP POP JUMP JUMPDEST PUSH0 SWAP1 JUMP JUMPDEST PUSH2 0x238 PUSH2 0x22C JUMP JUMPDEST PUSH2 0x243 DUP2 DUP5 DUP5 PUSH2 0x207 JUMP JUMPDEST POP POP POP JUMP JUMPDEST JUMPDEST DUP2 DUP2 LT ISZERO PUSH2 0x266 JUMPI PUSH2 0x25B PUSH0 DUP3 PUSH2 0x230 JUMP JUMPDEST PUSH1 0x1 DUP2 ADD SWAP1 POP PUSH2 0x249 JUMP JUMPDEST POP POP JUMP JUMPDEST PUSH1 0x1F DUP3 GT ISZERO PUSH2 0x2AB JUMPI PUSH2 0x27C DUP2 PUSH2 0x14D JUMP JUMPDEST PUSH2 0x285 DUP5 PUSH2 0x15F JUMP JUMPDEST DUP2 ADD PUSH1 0x20 DUP6 LT ISZERO PUSH2 0x294 JUMPI DUP2 SWAP1 POP JUMPDEST PUSH2 0x2A8 PUSH2 0x2A0 DUP6 PUSH2 0x15F JUMP JUMPDEST DUP4 ADD DUP3 PUSH2 0x248 JUMP JUMPDEST POP POP JUMPDEST POP POP POP JUMP JUMPDEST PUSH0 DUP3 DUP3 SHR SWAP1 POP SWAP3 SWAP2 POP POP JUMP JUMPDEST PUSH0 PUSH2 0x2CB PUSH0 NOT DUP5 PUSH1 0x8 MUL PUSH2 0x2B0 JUMP JUMPDEST NOT DUP1 DUP4 AND SWAP2 POP POP SWAP3 SWAP2 POP POP JUMP JUMPDEST PUSH0 PUSH2 0x2E3 DUP4 DUP4 PUSH2 0x2BC JUMP JUMPDEST SWAP2 POP DUP3 PUSH1 0x2 MUL DUP3 OR SWAP1 POP SWAP3 SWAP2 POP POP JUMP JUMPDEST PUSH2 0x2FC DUP3 PUSH2 0xB9 JUMP JUMPDEST PUSH8 0xFFFFFFFFFFFFFFFF DUP2 GT ISZERO PUSH2 0x315 JUMPI PUSH2 0x314 PUSH2 0xC3 JUMP JUMPDEST JUMPDEST PUSH2 0x31F DUP3 SLOAD PUSH2 0x11D JUMP JUMPDEST PUSH2 0x32A DUP3 DUP3 DUP6 PUSH2 0x26A JUMP JUMPDEST PUSH0 PUSH1 0x20 SWAP1 POP PUSH1 0x1F DUP4 GT PUSH1 0x1 DUP2 EQ PUSH2 0x35B JUMPI PUSH0 DUP5 ISZERO PUSH2 0x349 JUMPI DUP3 DUP8 ADD MLOAD SWAP1 POP JUMPDEST PUSH2 0x353 DUP6 DUP3 PUSH2 0x2D8 JUMP JUMPDEST DUP7 SSTORE POP PUSH2 0x3BA JUMP JUMPDEST PUSH1 0x1F NOT DUP5 AND PUSH2 0x369 DUP7 PUSH2 0x14D JUMP JUMPDEST PUSH0 JUMPDEST DUP3 DUP2 LT ISZERO PUSH2 0x390 JUMPI DUP5 DUP10 ADD MLOAD DUP3 SSTORE PUSH1 0x1 DUP3 ADD SWAP2 POP PUSH1 0x20 DUP6 ADD SWAP5 POP PUSH1 0x20 DUP2 ADD SWAP1 POP PUSH2 0x36B JUMP JUMPDEST DUP7 DUP4 LT ISZERO PUSH2 0x3AD JUMPI DUP5 DUP10 ADD MLOAD PUSH2 0x3A9 PUSH1 0x1F DUP10 AND DUP3 PUSH2 0x2BC JUMP JUMPDEST DUP4 SSTORE POP JUMPDEST PUSH1 0x1 PUSH1 0x2 DUP9 MUL ADD DUP9 SSTORE POP POP POP JUMPDEST POP POP POP POP POP POP JUMP JUMPDEST PUSH2 0xE41 DUP1 PUSH2 0x3CF PUSH0 CODECOPY PUSH0 RETURN INVALID PUSH1 0x80 PUSH1 0x40 MSTORE PUSH1 0x4 CALLDATASIZE LT PUSH2 0xAA JUMPI PUSH0 CALLDATALOAD PUSH1 0xE0 SHR DUP1 PUSH4 0x313CE567 GT PUSH2 0x63 JUMPI DUP1 PUSH4 0x313CE567 EQ PUSH2 0x1E1 JUMPI DUP1 PUSH4 0x70A08231 EQ PUSH2 0x20B JUMPI DUP1 PUSH4 0x95D89B41 EQ PUSH2 0x247 JUMPI DUP1 PUSH4 0xA9059CBB EQ PUSH2 0x271 JUMPI DUP1 PUSH4 0xD0E30DB0 EQ PUSH2 0x2AD JUMPI DUP1 PUSH4 0xDD62ED3E EQ PUSH2 0x2B7 JUMPI PUSH2 0xB9 JUMP JUMPDEST DUP1 PUSH4 0x6FDDE03 EQ PUSH2 0xC3 JUMPI DUP1 PUSH4 0x95EA7B3 EQ PUSH2 0xED JUMPI DUP1 PUSH4 0x18160DDD EQ PUSH2 0x129 JUMPI DUP1 PUSH4 0x1A39D8EF EQ PUSH2 0x153 JUMPI DUP1 PUSH4 0x23B872DD EQ PUSH2 0x17D JUMPI DUP1 PUSH4 0x2E1A7D4D EQ PUSH2 0x1B9 JUMPI PUSH2 0xB9 JUMP JUMPDEST CALLDATASIZE PUSH2 0xB9 JUMPI PUSH2 0xB7 PUSH2 0x2F3 JUMP JUMPDEST STOP JUMPDEST PUSH2 0xC1 PUSH2 0x2F3 JUMP JUMPDEST STOP JUMPDEST CALLVALUE DUP1 ISZERO PUSH2 0xCE JUMPI PUSH0 DUP1 REVERT JUMPDEST POP PUSH2 0xD7 PUSH2 0x3F8 JUMP JUMPDEST PUSH1 0x40 MLOAD PUSH2 0xE4 SWAP2 SWAP1 PUSH2 0xAB9 JUMP JUMPDEST PUSH1 0x40 MLOAD DUP1 SWAP2 SUB SWAP1 RETURN JUMPDEST CALLVALUE DUP1 ISZERO PUSH2 0xF8 JUMPI PUSH0 DUP1 REVERT JUMPDEST POP PUSH2 0x113 PUSH1 0x4 DUP1 CALLDATASIZE SUB DUP2 ADD SWAP1 PUSH2 0x10E SWAP2 SWAP1 PUSH2 0xB6A JUMP JUMPDEST PUSH2 0x483 JUMP JUMPDEST PUSH1 0x40 MLOAD PUSH2 0x120 SWAP2 SWAP1 PUSH2 0xBC2 JUMP JUMPDEST PUSH1 0x40 MLOAD DUP1 SWAP2 SUB SWAP1 RETURN JUMPDEST CALLVALUE DUP1 ISZERO PUSH2 0x134 JUMPI PUSH0 DUP1 REVERT JUMPDEST POP PUSH2 0x13D PUSH2 0x570 JUMP JUMPDEST PUSH1 0x40 MLOAD PUSH2 0x14A SWAP2 SWAP1 PUSH2 0xBEA JUMP JUMPDEST PUSH1 0x40 MLOAD DUP1 SWAP2 SUB SWAP1 RETURN JUMPDEST CALLVALUE DUP1 ISZERO PUSH2 0x15E JUMPI PUSH0 DUP1 REVERT JUMPDEST POP PUSH2 0x167 PUSH2 0x5C9 JUMP JUMPDEST PUSH1 0x40 MLOAD PUSH2 0x174 SWAP2 SWAP1 PUSH2 0xBEA JUMP JUMPDEST PUSH1 0x40 MLOAD DUP1 SWAP2 SUB SWAP1 RETURN JUMPDEST CALLVALUE DUP1 ISZERO PUSH2 0x188 JUMPI PUSH0 DUP1 REVERT JUMPDEST POP PUSH2 0x1A3 PUSH1 0x4 DUP1 CALLDATASIZE SUB DUP2 ADD SWAP1 PUSH2 0x19E SWAP2 SWAP1 PUSH2 0xC03 JUMP JUMPDEST PUSH2 0x5CF JUMP JUMPDEST PUSH1 0x40 MLOAD PUSH2 0x1B0 SWAP2 SWAP1 PUSH2 0xBC2 JUMP JUMPDEST PUSH1 0x40 MLOAD DUP1 SWAP2 SUB SWAP1 RETURN JUMPDEST CALLVALUE DUP1 ISZERO PUSH2 0x1C4 JUMPI PUSH0 DUP1 REVERT JUMPDEST POP PUSH2 0x1DF PUSH1 0x4 DUP1 CALLDATASIZE SUB DUP2 ADD SWAP1 PUSH2 0x1DA SWAP2 SWAP1 PUSH2 0xC53 JUMP JUMPDEST PUSH2 0x875 JUMP JUMPDEST STOP JUMPDEST CALLVALUE DUP1 ISZERO PUSH2 0x1EC JUMPI PUSH0 DUP1 REVERT JUMPDEST POP PUSH2 0x1F5 PUSH2 0x962 JUMP JUMPDEST PUSH1 0x40 MLOAD PUSH2 0x202 SWAP2 SWAP1 PUSH2 0xC99 JUMP JUMPDEST PUSH1 0x40 MLOAD DUP1 SWAP2 SUB SWAP1 RETURN JUMPDEST CALLVALUE DUP1 ISZERO PUSH2 0x216 JUMPI PUSH0 DUP1 REVERT JUMPDEST POP PUSH2 0x231 PUSH1 0x4 DUP1 CALLDATASIZE SUB DUP2 ADD SWAP1 PUSH2 0x22C SWAP2 SWAP1 PUSH2 0xCB2 JUMP JUMPDEST PUSH2 0x974 JUMP JUMPDEST PUSH1 0x40 MLOAD PUSH2 0x23E SWAP2 SWAP1 PUSH2 0xBEA JUMP JUMPDEST PUSH1 0x40 MLOAD DUP1 SWAP2 SUB SWAP1 RETURN JUMPDEST CALLVALUE DUP1 ISZERO PUSH2 0x252 JUMPI PUSH0 DUP1 REVERT JUMPDEST POP PUSH2 0x25B PUSH2 0x989 JUMP JUMPDEST PUSH1 0x40 MLOAD PUSH2 0x268 SWAP2 SWAP1 PUSH2 0xAB9 JUMP JUMPDEST PUSH1 0x40 MLOAD DUP1 SWAP2 SUB SWAP1 RETURN JUMPDEST CALLVALUE DUP1 ISZERO PUSH2 0x27C JUMPI PUSH0 DUP1 REVERT JUMPDEST POP PUSH2 0x297 PUSH1 0x4 DUP1 CALLDATASIZE SUB DUP2 ADD SWAP1 PUSH2 0x292 SWAP2 SWAP1 PUSH2 0xB6A JUMP JUMPDEST PUSH2 0xA15 JUMP JUMPDEST PUSH1 0x40 MLOAD PUSH2 0x2A4 SWAP2 SWAP1 PUSH2 0xBC2 JUMP JUMPDEST PUSH1 0x40 MLOAD DUP1 SWAP2 SUB SWAP1 RETURN JUMPDEST PUSH2 0x2B5 PUSH2 0x2F3 JUMP JUMPDEST STOP JUMPDEST CALLVALUE DUP1 ISZERO PUSH2 0x2C2 JUMPI PUSH0 DUP1 REVERT JUMPDEST POP PUSH2 0x2DD PUSH1 0x4 DUP1 CALLDATASIZE SUB DUP2 ADD SWAP1 PUSH2 0x2D8 SWAP2 SWAP1 PUSH2 0xCDD JUMP JUMPDEST PUSH2 0xA29 JUMP JUMPDEST PUSH1 0x40 MLOAD PUSH2 0x2EA SWAP2 SWAP1 PUSH2 0xBEA JUMP JUMPDEST PUSH1 0x40 MLOAD DUP1 SWAP2 SUB SWAP1 RETURN JUMPDEST PUSH0 CALLVALUE EQ PUSH2 0x300 JUMPI CALLVALUE PUSH2 0x303 JUMP JUMPDEST PUSH1 0x1 JUMPDEST PUSH1 0x4 PUSH0 CALLER PUSH20 0xFFFFFFFFFFFFFFFFFFFFFFFFFFFFFFFFFFFFFFFF AND PUSH20 0xFFFFFFFFFFFFFFFFFFFFFFFFFFFFFFFFFFFFFFFF AND DUP2 MSTORE PUSH1 0x20 ADD SWAP1 DUP2 MSTORE PUSH1 0x20 ADD PUSH0 KECCAK256 PUSH0 DUP3 DUP3 SLOAD PUSH2 0x34E SWAP2 SWAP1 PUSH2 0xD48 JUMP JUMPDEST SWAP3 POP POP DUP2 SWAP1 SSTORE POP PUSH1 0x4 PUSH0 CALLER PUSH20 0xFFFFFFFFFFFFFFFFFFFFFFFFFFFFFFFFFFFFFFFF AND PUSH20 0xFFFFFFFFFFFFFFFFFFFFFFFFFFFFFFFFFFFFFFFF AND DUP2 MSTORE PUSH1 0x20 ADD SWAP1 DUP2 MSTORE PUSH1 0x20 ADD PUSH0 KECCAK256 SLOAD PUSH1 0x3 DUP2 SWAP1 SSTORE POP CALLER PUSH20 0xFFFFFFFFFFFFFFFFFFFFFFFFFFFFFFFFFFFFFFFF AND PUSH32 0xE1FFFCC4923D04B559F4D29A8BFC6CDA04EB5B0D3C460751C2402C5C5CC9109C PUSH0 CALLVALUE EQ PUSH2 0x3DE JUMPI CALLVALUE PUSH2 0x3E1 JUMP JUMPDEST PUSH1 0x1 JUMPDEST PUSH1 0x40 MLOAD PUSH2 0x3EE SWAP2 SWAP1 PUSH2 0xBEA JUMP JUMPDEST PUSH1 0x40 MLOAD DUP1 SWAP2 SUB SWAP1 LOG2 JUMP JUMPDEST PUSH0 DUP1 SLOAD PUSH2 0x404 SWAP1 PUSH2 0xDA8 JUMP JUMPDEST DUP1 PUSH1 0x1F ADD PUSH1 0x20 DUP1 SWAP2 DIV MUL PUSH1 0x20 ADD PUSH1 0x40 MLOAD SWAP1 DUP2 ADD PUSH1 0x40 MSTORE DUP1 SWAP3 SWAP2 SWAP1 DUP2 DUP2 MSTORE PUSH1 0x20 ADD DUP3 DUP1 SLOAD PUSH2 0x430 SWAP1 PUSH2 0xDA8 JUMP JUMPDEST DUP1 ISZERO PUSH2 0x47B JUMPI DUP1 PUSH1 0x1F LT PUSH2 0x452 JUMPI PUSH2 0x100 DUP1 DUP4 SLOAD DIV MUL DUP4 MSTORE SWAP2 PUSH1 0x20 ADD SWAP2 PUSH2 0x47B JUMP JUMPDEST DUP3 ADD SWAP2 SWAP1 PUSH0 MSTORE PUSH1 0x20 PUSH0 KECCAK256 SWAP1 JUMPDEST DUP2 SLOAD DUP2 MSTORE SWAP1 PUSH1 0x1 ADD SWAP1 PUSH1 0x20 ADD DUP1 DUP4 GT PUSH2 0x45E JUMPI DUP3 SWAP1 SUB PUSH1 0x1F AND DUP3 ADD SWAP2 JUMPDEST POP POP POP POP POP DUP2 JUMP JUMPDEST PUSH0 DUP2 PUSH1 0x5 PUSH0 CALLER PUSH20 0xFFFFFFFFFFFFFFFFFFFFFFFFFFFFFFFFFFFFFFFF AND PUSH20 0xFFFFFFFFFFFFFFFFFFFFFFFFFFFFFFFFFFFFFFFF AND DUP2 MSTORE PUSH1 0x20 ADD SWAP1 DUP2 MSTORE PUSH1 0x20 ADD PUSH0 KECCAK256 PUSH0 DUP6 PUSH20 0xFFFFFFFFFFFFFFFFFFFFFFFFFFFFFFFFFFFFFFFF AND PUSH20 0xFFFFFFFFFFFFFFFFFFFFFFFFFFFFFFFFFFFFFFFF AND DUP2 MSTORE PUSH1 0x20 ADD SWAP1 DUP2 MSTORE PUSH1 0x20 ADD PUSH0 KECCAK256 DUP2 SWAP1 SSTORE POP DUP3 PUSH20 0xFFFFFFFFFFFFFFFFFFFFFFFFFFFFFFFFFFFFFFFF AND CALLER PUSH20 0xFFFFFFFFFFFFFFFFFFFFFFFFFFFFFFFFFFFFFFFF AND PUSH32 0x8C5BE1E5EBEC7D5BD14F71427D1E84F3DD0314C0F7B2291E5B200AC8C7C3B925 DUP5 PUSH1 0x40 MLOAD PUSH2 0x55E SWAP2 SWAP1 PUSH2 0xBEA JUMP JUMPDEST PUSH1 0x40 MLOAD DUP1 SWAP2 SUB SWAP1 LOG3 PUSH1 0x1 SWAP1 POP SWAP3 SWAP2 POP POP JUMP JUMPDEST PUSH0 CALLER PUSH20 0xFFFFFFFFFFFFFFFFFFFFFFFFFFFFFFFFFFFFFFFF AND PUSH32 0x7249FD4C03CCE09B30A13D77804B198E2647C0CCD59EADF4DE4E7C16099BADC5 PUSH1 0x3 SLOAD PUSH1 0x40 MLOAD PUSH2 0x5B9 SWAP2 SWAP1 PUSH2 0xBEA JUMP JUMPDEST PUSH1 0x40 MLOAD DUP1 SWAP2 SUB SWAP1 LOG2 PUSH1 0x3 SLOAD SWAP1 POP SWAP1 JUMP JUMPDEST PUSH1 0x3 SLOAD DUP2 JUMP JUMPDEST PUSH0 DUP2 PUSH1 0x4 PUSH0 DUP7 PUSH20 0xFFFFFFFFFFFFFFFFFFFFFFFFFFFFFFFFFFFFFFFF AND PUSH20 0xFFFFFFFFFFFFFFFFFFFFFFFFFFFFFFFFFFFFFFFF AND DUP2 MSTORE PUSH1 0x20 ADD SWAP1 DUP2 MSTORE PUSH1 0x20 ADD PUSH0 KECCAK256 SLOAD LT ISZERO PUSH2 0x619 JUMPI PUSH0 DUP1 REVERT JUMPDEST CALLER PUSH20 0xFFFFFFFFFFFFFFFFFFFFFFFFFFFFFFFFFFFFFFFF AND DUP5 PUSH20 0xFFFFFFFFFFFFFFFFFFFFFFFFFFFFFFFFFFFFFFFF AND EQ PUSH2 0x75F JUMPI DUP2 PUSH1 0x5 PUSH0 DUP7 PUSH20 0xFFFFFFFFFFFFFFFFFFFFFFFFFFFFFFFFFFFFFFFF AND PUSH20 0xFFFFFFFFFFFFFFFFFFFFFFFFFFFFFFFFFFFFFFFF AND DUP2 MSTORE PUSH1 0x20 ADD SWAP1 DUP2 MSTORE PUSH1 0x20 ADD PUSH0 KECCAK256 PUSH0 CALLER PUSH20 0xFFFFFFFFFFFFFFFFFFFFFFFFFFFFFFFFFFFFFFFF AND PUSH20 0xFFFFFFFFFFFFFFFFFFFFFFFFFFFFFFFFFFFFFFFF AND DUP2 MSTORE PUSH1 0x20 ADD SWAP1 DUP2 MSTORE PUSH1 0x20 ADD PUSH0 KECCAK256 SLOAD LT ISZERO PUSH2 0x6D0 JUMPI PUSH0 DUP1 REVERT JUMPDEST DUP2 PUSH1 0x5 PUSH0 DUP7 PUSH20 0xFFFFFFFFFFFFFFFFFFFFFFFFFFFFFFFFFFFFFFFF AND PUSH20 0xFFFFFFFFFFFFFFFFFFFFFFFFFFFFFFFFFFFFFFFF AND DUP2 MSTORE PUSH1 0x20 ADD SWAP1 DUP2 MSTORE PUSH1 0x20 ADD PUSH0 KECCAK256 PUSH0 CALLER PUSH20 0xFFFFFFFFFFFFFFFFFFFFFFFFFFFFFFFFFFFFFFFF AND PUSH20 0xFFFFFFFFFFFFFFFFFFFFFFFFFFFFFFFFFFFFFFFF AND DUP2 MSTORE PUSH1 0x20 ADD SWAP1 DUP2 MSTORE PUSH1 0x20 ADD PUSH0 KECCAK256 PUSH0 DUP3 DUP3 SLOAD PUSH2 0x757 SWAP2 SWAP1 PUSH2 0xDD8 JUMP JUMPDEST SWAP3 POP POP DUP2 SWAP1 SSTORE POP JUMPDEST DUP2 PUSH1 0x4 PUSH0 DUP7 PUSH20 0xFFFFFFFFFFFFFFFFFFFFFFFFFFFFFFFFFFFFFFFF AND PUSH20 0xFFFFFFFFFFFFFFFFFFFFFFFFFFFFFFFFFFFFFFFF AND DUP2 MSTORE PUSH1 0x20 ADD SWAP1 DUP2 MSTORE PUSH1 0x20 ADD PUSH0 KECCAK256 PUSH0 DUP3 DUP3 SLOAD PUSH2 0x7AB SWAP2 SWAP1 PUSH2 0xDD8 JUMP JUMPDEST SWAP3 POP POP DUP2 SWAP1 SSTORE POP DUP2 PUSH1 0x4 PUSH0 DUP6 PUSH20 0xFFFFFFFFFFFFFFFFFFFFFFFFFFFFFFFFFFFFFFFF AND PUSH20 0xFFFFFFFFFFFFFFFFFFFFFFFFFFFFFFFFFFFFFFFF AND DUP2 MSTORE PUSH1 0x20 ADD SWAP1 DUP2 MSTORE PUSH1 0x20 ADD PUSH0 KECCAK256 PUSH0 DUP3 DUP3 SLOAD PUSH2 0x7FE SWAP2 SWAP1 PUSH2 0xD48 JUMP JUMPDEST SWAP3 POP POP DUP2 SWAP1 SSTORE POP DUP3 PUSH20 0xFFFFFFFFFFFFFFFFFFFFFFFFFFFFFFFFFFFFFFFF AND DUP5 PUSH20 0xFFFFFFFFFFFFFFFFFFFFFFFFFFFFFFFFFFFFFFFF AND PUSH32 0xDDF252AD1BE2C89B69C2B068FC378DAA952BA7F163C4A11628F55A4DF523B3EF DUP5 PUSH1 0x40 MLOAD PUSH2 0x862 SWAP2 SWAP1 PUSH2 0xBEA JUMP JUMPDEST PUSH1 0x40 MLOAD DUP1 SWAP2 SUB SWAP1 LOG3 PUSH1 0x1 SWAP1 POP SWAP4 SWAP3 POP POP POP JUMP JUMPDEST DUP1 PUSH1 0x4 PUSH0 CALLER PUSH20 0xFFFFFFFFFFFFFFFFFFFFFFFFFFFFFFFFFFFFFFFF AND PUSH20 0xFFFFFFFFFFFFFFFFFFFFFFFFFFFFFFFFFFFFFFFF AND DUP2 MSTORE PUSH1 0x20 ADD SWAP1 DUP2 MSTORE PUSH1 0x20 ADD PUSH0 KECCAK256 SLOAD LT ISZERO PUSH2 0x8BE JUMPI PUSH0 DUP1 REVERT JUMPDEST DUP1 PUSH1 0x4 PUSH0 CALLER PUSH20 0xFFFFFFFFFFFFFFFFFFFFFFFFFFFFFFFFFFFFFFFF AND PUSH20 0xFFFFFFFFFFFFFFFFFFFFFFFFFFFFFFFFFFFFFFFF AND DUP2 MSTORE PUSH1 0x20 ADD SWAP1 DUP2 MSTORE PUSH1 0x20 ADD PUSH0 KECCAK256 PUSH0 DUP3 DUP3 SLOAD PUSH2 0x90A SWAP2 SWAP1 PUSH2 0xDD8 JUMP JUMPDEST SWAP3 POP POP DUP2 SWAP1 SSTORE POP CALLER PUSH20 0xFFFFFFFFFFFFFFFFFFFFFFFFFFFFFFFFFFFFFFFF AND PUSH32 0x884EDAD9CE6FA2440D8A54CC123490EB96D2768479D49FF9C7366125A9424364 DUP3 PUSH1 0x40 MLOAD PUSH2 0x957 SWAP2 SWAP1 PUSH2 0xBEA JUMP JUMPDEST PUSH1 0x40 MLOAD DUP1 SWAP2 SUB SWAP1 LOG2 POP JUMP JUMPDEST PUSH1 0x2 PUSH0 SWAP1 SLOAD SWAP1 PUSH2 0x100 EXP SWAP1 DIV PUSH1 0xFF AND DUP2 JUMP JUMPDEST PUSH1 0x4 PUSH1 0x20 MSTORE DUP1 PUSH0 MSTORE PUSH1 0x40 PUSH0 KECCAK256 PUSH0 SWAP2 POP SWAP1 POP SLOAD DUP2 JUMP JUMPDEST PUSH1 0x1 DUP1 SLOAD PUSH2 0x996 SWAP1 PUSH2 0xDA8 JUMP JUMPDEST DUP1 PUSH1 0x1F ADD PUSH1 0x20 DUP1 SWAP2 DIV MUL PUSH1 0x20 ADD PUSH1 0x40 MLOAD SWAP1 DUP2 ADD PUSH1 0x40 MSTORE DUP1 SWAP3 SWAP2 SWAP1 DUP2 DUP2 MSTORE PUSH1 0x20 ADD DUP3 DUP1 SLOAD PUSH2 0x9C2 SWAP1 PUSH2 0xDA8 JUMP JUMPDEST DUP1 ISZERO PUSH2 0xA0D JUMPI DUP1 PUSH1 0x1F LT PUSH2 0x9E4 JUMPI PUSH2 0x100 DUP1 DUP4 SLOAD DIV MUL DUP4 MSTORE SWAP2 PUSH1 0x20 ADD SWAP2 PUSH2 0xA0D JUMP JUMPDEST DUP3 ADD SWAP2 SWAP1 PUSH0 MSTORE PUSH1 0x20 PUSH0 KECCAK256 SWAP1 JUMPDEST DUP2 SLOAD DUP2 MSTORE SWAP1 PUSH1 0x1 ADD SWAP1 PUSH1 0x20 ADD DUP1 DUP4 GT PUSH2 0x9F0 JUMPI DUP3 SWAP1 SUB PUSH1 0x1F AND DUP3 ADD SWAP2 JUMPDEST POP POP POP POP POP DUP2 JUMP JUMPDEST PUSH0 PUSH2 0xA21 CALLER DUP5 DUP5 PUSH2 0x5CF JUMP JUMPDEST SWAP1 POP SWAP3 SWAP2 POP POP JUMP JUMPDEST PUSH1 0x5 PUSH1 0x20 MSTORE DUP2 PUSH0 MSTORE PUSH1 0x40 PUSH0 KECCAK256 PUSH1 0x20 MSTORE DUP1 PUSH0 MSTORE PUSH1 0x40 PUSH0 KECCAK256 PUSH0 SWAP2 POP SWAP2 POP POP SLOAD DUP2 JUMP JUMPDEST PUSH0 DUP2 MLOAD SWAP1 POP SWAP2 SWAP1 POP JUMP JUMPDEST PUSH0 DUP3 DUP3 MSTORE PUSH1 0x20 DUP3 ADD SWAP1 POP SWAP3 SWAP2 POP POP JUMP JUMPDEST DUP3 DUP2 DUP4 MCOPY PUSH0 DUP4 DUP4 ADD MSTORE POP POP POP JUMP JUMPDEST PUSH0 PUSH1 0x1F NOT PUSH1 0x1F DUP4 ADD AND SWAP1 POP SWAP2 SWAP1 POP JUMP JUMPDEST PUSH0 PUSH2 0xA8B DUP3 PUSH2 0xA49 JUMP JUMPDEST PUSH2 0xA95 DUP2 DUP6 PUSH2 0xA53 JUMP JUMPDEST SWAP4 POP PUSH2 0xAA5 DUP2 DUP6 PUSH1 0x20 DUP7 ADD PUSH2 0xA63 JUMP JUMPDEST PUSH2 0xAAE DUP2 PUSH2 0xA71 JUMP JUMPDEST DUP5 ADD SWAP2 POP POP SWAP3 SWAP2 POP POP JUMP JUMPDEST PUSH0 PUSH1 0x20 DUP3 ADD SWAP1 POP DUP2 DUP2 SUB PUSH0 DUP4 ADD MSTORE PUSH2 0xAD1 DUP2 DUP5 PUSH2 0xA81 JUMP JUMPDEST SWAP1 POP SWAP3 SWAP2 POP POP JUMP JUMPDEST PUSH0 DUP1 REVERT JUMPDEST PUSH0 PUSH20 0xFFFFFFFFFFFFFFFFFFFFFFFFFFFFFFFFFFFFFFFF DUP3 AND SWAP1 POP SWAP2 SWAP1 POP JUMP JUMPDEST PUSH0 PUSH2 0xB06 DUP3 PUSH2 0xADD JUMP JUMPDEST SWAP1 POP SWAP2 SWAP1 POP JUMP JUMPDEST PUSH2 0xB16 DUP2 PUSH2 0xAFC JUMP JUMPDEST DUP2 EQ PUSH2 0xB20 JUMPI PUSH0 DUP1 REVERT JUMPDEST POP JUMP JUMPDEST PUSH0 DUP2 CALLDATALOAD SWAP1 POP PUSH2 0xB31 DUP2 PUSH2 0xB0D JUMP JUMPDEST SWAP3 SWAP2 POP POP JUMP JUMPDEST PUSH0 DUP2 SWAP1 POP SWAP2 SWAP1 POP JUMP JUMPDEST PUSH2 0xB49 DUP2 PUSH2 0xB37 JUMP JUMPDEST DUP2 EQ PUSH2 0xB53 JUMPI PUSH0 DUP1 REVERT JUMPDEST POP JUMP JUMPDEST PUSH0 DUP2 CALLDATALOAD SWAP1 POP PUSH2 0xB64 DUP2 PUSH2 0xB40 JUMP JUMPDEST SWAP3 SWAP2 POP POP JUMP JUMPDEST PUSH0 DUP1 PUSH1 0x40 DUP4 DUP6 SUB SLT ISZERO PUSH2 0xB80 JUMPI PUSH2 0xB7F PUSH2 0xAD9 JUMP JUMPDEST JUMPDEST PUSH0 PUSH2 0xB8D DUP6 DUP3 DUP7 ADD PUSH2 0xB23 JUMP JUMPDEST SWAP3 POP POP PUSH1 0x20 PUSH2 0xB9E DUP6 DUP3 DUP7 ADD PUSH2 0xB56 JUMP JUMPDEST SWAP2 POP POP SWAP3 POP SWAP3 SWAP1 POP JUMP JUMPDEST PUSH0 DUP2 ISZERO ISZERO SWAP1 POP SWAP2 SWAP1 POP JUMP JUMPDEST PUSH2 0xBBC DUP2 PUSH2 0xBA8 JUMP JUMPDEST DUP3 MSTORE POP POP JUMP JUMPDEST PUSH0 PUSH1 0x20 DUP3 ADD SWAP1 POP PUSH2 0xBD5 PUSH0 DUP4 ADD DUP5 PUSH2 0xBB3 JUMP JUMPDEST SWAP3 SWAP2 POP POP JUMP JUMPDEST PUSH2 0xBE4 DUP2 PUSH2 0xB37 JUMP JUMPDEST DUP3 MSTORE POP POP JUMP JUMPDEST PUSH0 PUSH1 0x20 DUP3 ADD SWAP1 POP PUSH2 0xBFD PUSH0 DUP4 ADD DUP5 PUSH2 0xBDB JUMP JUMPDEST SWAP3 SWAP2 POP POP JUMP JUMPDEST PUSH0 DUP1 PUSH0 PUSH1 0x60 DUP5 DUP7 SUB SLT ISZERO PUSH2 0xC1A JUMPI PUSH2 0xC19 PUSH2 0xAD9 JUMP JUMPDEST JUMPDEST PUSH0 PUSH2 0xC27 DUP7 DUP3 DUP8 ADD PUSH2 0xB23 JUMP JUMPDEST SWAP4 POP POP PUSH1 0x20 PUSH2 0xC38 DUP7 DUP3 DUP8 ADD PUSH2 0xB23 JUMP JUMPDEST SWAP3 POP POP PUSH1 0x40 PUSH2 0xC49 DUP7 DUP3 DUP8 ADD PUSH2 0xB56 JUMP JUMPDEST SWAP2 POP POP SWAP3 POP SWAP3 POP SWAP3 JUMP JUMPDEST PUSH0 PUSH1 0x20 DUP3 DUP5 SUB SLT ISZERO PUSH2 0xC68 JUMPI PUSH2 0xC67 PUSH2 0xAD9 JUMP JUMPDEST JUMPDEST PUSH0 PUSH2 0xC75 DUP5 DUP3 DUP6 ADD PUSH2 0xB56 JUMP JUMPDEST SWAP2 POP POP SWAP3 SWAP2 POP POP JUMP JUMPDEST PUSH0 PUSH1 0xFF DUP3 AND SWAP1 POP SWAP2 SWAP1 POP JUMP JUMPDEST PUSH2 0xC93 DUP2 PUSH2 0xC7E JUMP JUMPDEST DUP3 MSTORE POP POP JUMP JUMPDEST PUSH0 PUSH1 0x20 DUP3 ADD SWAP1 POP PUSH2 0xCAC PUSH0 DUP4 ADD DUP5 PUSH2 0xC8A JUMP JUMPDEST SWAP3 SWAP2 POP POP JUMP JUMPDEST PUSH0 PUSH1 0x20 DUP3 DUP5 SUB SLT ISZERO PUSH2 0xCC7 JUMPI PUSH2 0xCC6 PUSH2 0xAD9 JUMP JUMPDEST JUMPDEST PUSH0 PUSH2 0xCD4 DUP5 DUP3 DUP6 ADD PUSH2 0xB23 JUMP JUMPDEST SWAP2 POP POP SWAP3 SWAP2 POP POP JUMP JUMPDEST PUSH0 DUP1 PUSH1 0x40 DUP4 DUP6 SUB SLT ISZERO PUSH2 0xCF3 JUMPI PUSH2 0xCF2 PUSH2 0xAD9 JUMP JUMPDEST JUMPDEST PUSH0 PUSH2 0xD00 DUP6 DUP3 DUP7 ADD PUSH2 0xB23 JUMP JUMPDEST SWAP3 POP POP PUSH1 0x20 PUSH2 0xD11 DUP6 DUP3 DUP7 ADD PUSH2 0xB23 JUMP JUMPDEST SWAP2 POP POP SWAP3 POP SWAP3 SWAP1 POP JUMP JUMPDEST PUSH32 0x4E487B7100000000000000000000000000000000000000000000000000000000 PUSH0 MSTORE PUSH1 0x11 PUSH1 0x4 MSTORE PUSH1 0x24 PUSH0 REVERT JUMPDEST PUSH0 PUSH2 0xD52 DUP3 PUSH2 0xB37 JUMP JUMPDEST SWAP2 POP PUSH2 0xD5D DUP4 PUSH2 0xB37 JUMP JUMPDEST SWAP3 POP DUP3 DUP3 ADD SWAP1 POP DUP1 DUP3 GT ISZERO PUSH2 0xD75 JUMPI PUSH2 0xD74 PUSH2 0xD1B JUMP JUMPDEST JUMPDEST SWAP3 SWAP2 POP POP JUMP JUMPDEST PUSH32 0x4E487B7100000000000000000000000000000000000000000000000000000000 PUSH0 MSTORE PUSH1 0x22 PUSH1 0x4 MSTORE PUSH1 0x24 PUSH0 REVERT JUMPDEST PUSH0 PUSH1 0x2 DUP3 DIV SWAP1 POP PUSH1 0x1 DUP3 AND DUP1 PUSH2 0xDBF JUMPI PUSH1 0x7F DUP3 AND SWAP2 POP JUMPDEST PUSH1 0x20 DUP3 LT DUP2 SUB PUSH2 0xDD2 JUMPI PUSH2 0xDD1 PUSH2 0xD7B JUMP JUMPDEST JUMPDEST POP SWAP2 SWAP1 POP JUMP JUMPDEST PUSH0 PUSH2 0xDE2 DUP3 PUSH2 0xB37 JUMP JUMPDEST SWAP2 POP PUSH2 0xDED DUP4 PUSH2 0xB37 JUMP JUMPDEST SWAP3 POP DUP3 DUP3 SUB SWAP1 POP DUP2 DUP2 GT ISZERO PUSH2 0xE05 JUMPI PUSH2 0xE04 PUSH2 0xD1B JUMP JUMPDEST JUMPDEST SWAP3 SWAP2 POP POP JUMP INVALID LOG2 PUSH5 0x6970667358 0x22 SLT KECCAK256 DUP13 STATICCALL SUB PUSH21 0xD3424A8816CAA1227EC42EE80E174FEB7018B4D422 SWAP9 0xB8 0x2C SSTORE CALLDATASIZE 0x26 0xB0 PUSH5 0x736F6C6343 STOP ADDMOD BYTE STOP CALLER "
				},
				"gasEstimates": {
					"creation": {
						"codeDepositCost": "729800",
						"executionCost": "infinite",
						"totalCost": "infinite"
					},
					"external": {
						"": "infinite",
						"allowance(address,address)": "infinite",
						"approve(address,uint256)": "infinite",
						"balanceOf(address)": "2824",
						"decimals()": "2466",
						"deposit()": "infinite",
						"name()": "infinite",
						"symbol()": "infinite",
						"totalAmount()": "2492",
						"totalSupply()": "infinite",
						"transfer(address,uint256)": "infinite",
						"transferFrom(address,address,uint256)": "infinite",
						"withdraw(uint256)": "infinite"
					}
				},
				"methodIdentifiers": {
					"allowance(address,address)": "dd62ed3e",
					"approve(address,uint256)": "095ea7b3",
					"balanceOf(address)": "70a08231",
					"decimals()": "313ce567",
					"deposit()": "d0e30db0",
					"name()": "06fdde03",
					"symbol()": "95d89b41",
					"totalAmount()": "1a39d8ef",
					"totalSupply()": "18160ddd",
					"transfer(address,uint256)": "a9059cbb",
					"transferFrom(address,address,uint256)": "23b872dd",
					"withdraw(uint256)": "2e1a7d4d"
				}
			},
			"storageLayout": {
				"storage": [
					{
						"astId": 4,
						"contract": "contracts/level02/2.WETH 合约/WETH.sol:WETH",
						"label": "name",
						"offset": 0,
						"slot": "0",
						"type": "t_string_storage"
					},
					{
						"astId": 7,
						"contract": "contracts/level02/2.WETH 合约/WETH.sol:WETH",
						"label": "symbol",
						"offset": 0,
						"slot": "1",
						"type": "t_string_storage"
					},
					{
						"astId": 10,
						"contract": "contracts/level02/2.WETH 合约/WETH.sol:WETH",
						"label": "decimals",
						"offset": 0,
						"slot": "2",
						"type": "t_uint8"
					},
					{
						"astId": 12,
						"contract": "contracts/level02/2.WETH 合约/WETH.sol:WETH",
						"label": "totalAmount",
						"offset": 0,
						"slot": "3",
						"type": "t_uint256"
					},
					{
						"astId": 50,
						"contract": "contracts/level02/2.WETH 合约/WETH.sol:WETH",
						"label": "balanceOf",
						"offset": 0,
						"slot": "4",
						"type": "t_mapping(t_address,t_uint256)"
					},
					{
						"astId": 56,
						"contract": "contracts/level02/2.WETH 合约/WETH.sol:WETH",
						"label": "allowance",
						"offset": 0,
						"slot": "5",
						"type": "t_mapping(t_address,t_mapping(t_address,t_uint256))"
					}
				],
				"types": {
					"t_address": {
						"encoding": "inplace",
						"label": "address",
						"numberOfBytes": "20"
					},
					"t_mapping(t_address,t_mapping(t_address,t_uint256))": {
						"encoding": "mapping",
						"key": "t_address",
						"label": "mapping(address => mapping(address => uint256))",
						"numberOfBytes": "32",
						"value": "t_mapping(t_address,t_uint256)"
					},
					"t_mapping(t_address,t_uint256)": {
						"encoding": "mapping",
						"key": "t_address",
						"label": "mapping(address => uint256)",
						"numberOfBytes": "32",
						"value": "t_uint256"
					},
					"t_string_storage": {
						"encoding": "bytes",
						"label": "string",
						"numberOfBytes": "32"
					},
					"t_uint256": {
						"encoding": "inplace",
						"label": "uint256",
						"numberOfBytes": "32"
					},
					"t_uint8": {
						"encoding": "inplace",
						"label": "uint8",
						"numberOfBytes": "1"
					}
				}
			},
			"userdoc": {
				"kind": "user",
				"methods": {},
				"version": 1
			}
		}
	}
}