{
	"data": {
		"bytecode": {
			"linkReferences": {},
			"object": "6080604052348015600e575f80fd5b506101928061001c5f395ff3fe608060405234801561000f575f80fd5b506004361061004a575f3560e01c806327cbd5291461004e57806329092d0e1461007f5780633825d828146100a8578063c2bc2efc146100d1575b5f80fd5b61006d61005c366004610114565b5f6020819052908152604090205481565b60405190815260200160405180910390f35b6100a661008d366004610114565b6001600160a01b03165f90815260208190526040812055565b005b6100a66100b6366004610134565b6001600160a01b039091165f90815260208190526040902055565b61006d6100df366004610114565b6001600160a01b03165f9081526020819052604090205490565b80356001600160a01b038116811461010f575f80fd5b919050565b5f60208284031215610124575f80fd5b61012d826100f9565b9392505050565b5f8060408385031215610145575f80fd5b61014e836100f9565b94602093909301359350505056fea264697066735822122010806c3943a9d17cba87787e7806847e1e0524cc08a11bfe2aa2bfba8c5788e864736f6c634300081a0033",
			"opcodes": "PUSH1 0x80 PUSH1 0x40 MSTORE CALLVALUE DUP1 ISZERO PUSH1 0xE JUMPI PUSH0 DUP1 REVERT JUMPDEST POP PUSH2 0x192 DUP1 PUSH2 0x1C PUSH0 CODECOPY PUSH0 RETURN INVALID PUSH1 0x80 PUSH1 0x40 MSTORE CALLVALUE DUP1 ISZERO PUSH2 0xF JUMPI PUSH0 DUP1 REVERT JUMPDEST POP PUSH1 0x4 CALLDATASIZE LT PUSH2 0x4A JUMPI PUSH0 CALLDATALOAD PUSH1 0xE0 SHR DUP1 PUSH4 0x27CBD529 EQ PUSH2 0x4E JUMPI DUP1 PUSH4 0x29092D0E EQ PUSH2 0x7F JUMPI DUP1 PUSH4 0x3825D828 EQ PUSH2 0xA8 JUMPI DUP1 PUSH4 0xC2BC2EFC EQ PUSH2 0xD1 JUMPI JUMPDEST PUSH0 DUP1 REVERT JUMPDEST PUSH2 0x6D PUSH2 0x5C CALLDATASIZE PUSH1 0x4 PUSH2 0x114 JUMP JUMPDEST PUSH0 PUSH1 0x20 DUP2 SWAP1 MSTORE SWAP1 DUP2 MSTORE PUSH1 0x40 SWAP1 KECCAK256 SLOAD DUP2 JUMP JUMPDEST PUSH1 0x40 MLOAD SWAP1 DUP2 MSTORE PUSH1 0x20 ADD PUSH1 0x40 MLOAD DUP1 SWAP2 SUB SWAP1 RETURN JUMPDEST PUSH2 0xA6 PUSH2 0x8D CALLDATASIZE PUSH1 0x4 PUSH2 0x114 JUMP JUMPDEST PUSH1 0x1 PUSH1 0x1 PUSH1 0xA0 SHL SUB AND PUSH0 SWAP1 DUP2 MSTORE PUSH1 0x20 DUP2 SWAP1 MSTORE PUSH1 0x40 DUP2 KECCAK256 SSTORE JUMP JUMPDEST STOP JUMPDEST PUSH2 0xA6 PUSH2 0xB6 CALLDATASIZE PUSH1 0x4 PUSH2 0x134 JUMP JUMPDEST PUSH1 0x1 PUSH1 0x1 PUSH1 0xA0 SHL SUB SWAP1 SWAP2 AND PUSH0 SWAP1 DUP2 MSTORE PUSH1 0x20 DUP2 SWAP1 MSTORE PUSH1 0x40 SWAP1 KECCAK256 SSTORE JUMP JUMPDEST PUSH2 0x6D PUSH2 0xDF CALLDATASIZE PUSH1 0x4 PUSH2 0x114 JUMP JUMPDEST PUSH1 0x1 PUSH1 0x1 PUSH1 0xA0 SHL SUB AND PUSH0 SWAP1 DUP2 MSTORE PUSH1 0x20 DUP2 SWAP1 MSTORE PUSH1 0x40 SWAP1 KECCAK256 SLOAD SWAP1 JUMP JUMPDEST DUP1 CALLDATALOAD PUSH1 0x1 PUSH1 0x1 PUSH1 0xA0 SHL SUB DUP2 AND DUP2 EQ PUSH2 0x10F JUMPI PUSH0 DUP1 REVERT JUMPDEST SWAP2 SWAP1 POP JUMP JUMPDEST PUSH0 PUSH1 0x20 DUP3 DUP5 SUB SLT ISZERO PUSH2 0x124 JUMPI PUSH0 DUP1 REVERT JUMPDEST PUSH2 0x12D DUP3 PUSH2 0xF9 JUMP JUMPDEST SWAP4 SWAP3 POP POP POP JUMP JUMPDEST PUSH0 DUP1 PUSH1 0x40 DUP4 DUP6 SUB SLT ISZERO PUSH2 0x145 JUMPI PUSH0 DUP1 REVERT JUMPDEST PUSH2 0x14E DUP4 PUSH2 0xF9 JUMP JUMPDEST SWAP5 PUSH1 0x20 SWAP4 SWAP1 SWAP4 ADD CALLDATALOAD SWAP4 POP POP POP JUMP INVALID LOG2 PUSH5 0x6970667358 0x22 SLT KECCAK256 LT DUP1 PUSH13 0x3943A9D17CBA87787E7806847E 0x1E SDIV 0x24 0xCC ADDMOD LOG1 SHL INVALID 0x2A LOG2 0xBF 0xBA DUP13 JUMPI DUP9 0xE8 PUSH5 0x736F6C6343 STOP ADDMOD BYTE STOP CALLER "
		},
		"gasEstimates": {
			"creation": {
				"codeDepositCost": "80400",
				"executionCost": "127",
				"totalCost": "80527"
			},
			"external": {
				"get(address)": "2569",
				"myMap(address)": "2485",
				"remove(address)": "5377",
				"set(address,uint256)": "22526"
			}
		},
		"methodIdentifiers": {
			"get(address)": "c2bc2efc",
			"myMap(address)": "27cbd529",
			"remove(address)": "29092d0e",
			"set(address,uint256)": "3825d828"
		}
	},
	"abi": [
		{
			"inputs": [
				{
					"internalType": "address",
					"name": "_addr",
					"type": "address"
				}
			],
			"name": "get",
			"outputs": [
				{
					"internalType": "uint256",
					"name": "",
					"type": "uint256"
				}
			],
			"stateMutability": "view",
			"type": "function"
		},
		{
			"inputs": [
				{
					"internalType": "address",
					"name": "",
					"type": "address"
				}
			],
			"name": "myMap",
			"outputs": [
				{
					"internalType": "uint256",
					"name": "",
					"type": "uint256"
				}
			],
			"stateMutability": "view",
			"type": "function"
		},
		{
			"inputs": [
				{
					"internalType": "address",
					"name": "_addr",
					"type": "address"
				}
			],
			"name": "remove",
			"outputs": [],
			"stateMutability": "nonpayable",
			"type": "function"
		},
		{
			"inputs": [
				{
					"internalType": "address",
					"name": "_addr",
					"type": "address"
				},
				{
					"internalType": "uint256",
					"name": "_i",
					"type": "uint256"
				}
			],
			"name": "set",
			"outputs": [],
			"stateMutability": "nonpayable",
			"type": "function"
		}
	]
}