{
	"data": {
		"bytecode": {
			"linkReferences": {},
			"object": "6080604052348015600e575f80fd5b506101f68061001c5f395ff3fe608060405234801561000f575f80fd5b506004361061004a575f3560e01c80630b1391941461004e57806314bd0a7b14610090578063abe7f1ab146100ce578063b464631b14610106575b5f80fd5b61008e61005c366004610157565b6001600160a01b03929092165f9081526020818152604080832093835292905220805460ff1916911515919091179055565b005b6100ba61009e366004610198565b5f60208181529281526040808220909352908152205460ff1681565b604051901515815260200160405180910390f35b61008e6100dc366004610198565b6001600160a01b039091165f9081526020818152604080832093835292905220805460ff19169055565b6100ba610114366004610198565b6001600160a01b03919091165f90815260208181526040808320938352929052205460ff1690565b80356001600160a01b0381168114610152575f80fd5b919050565b5f805f60608486031215610169575f80fd5b6101728461013c565b9250602084013591506040840135801515811461018d575f80fd5b809150509250925092565b5f80604083850312156101a9575f80fd5b6101b28361013c565b94602093909301359350505056fea26469706673582212208f17089699fdc2aa8d4e52f65be3edd48f81bf4af872ed3890637f9d4db960c664736f6c634300081a0033",
			"opcodes": "PUSH1 0x80 PUSH1 0x40 MSTORE CALLVALUE DUP1 ISZERO PUSH1 0xE JUMPI PUSH0 DUP1 REVERT JUMPDEST POP PUSH2 0x1F6 DUP1 PUSH2 0x1C PUSH0 CODECOPY PUSH0 RETURN INVALID PUSH1 0x80 PUSH1 0x40 MSTORE CALLVALUE DUP1 ISZERO PUSH2 0xF JUMPI PUSH0 DUP1 REVERT JUMPDEST POP PUSH1 0x4 CALLDATASIZE LT PUSH2 0x4A JUMPI PUSH0 CALLDATALOAD PUSH1 0xE0 SHR DUP1 PUSH4 0xB139194 EQ PUSH2 0x4E JUMPI DUP1 PUSH4 0x14BD0A7B EQ PUSH2 0x90 JUMPI DUP1 PUSH4 0xABE7F1AB EQ PUSH2 0xCE JUMPI DUP1 PUSH4 0xB464631B EQ PUSH2 0x106 JUMPI JUMPDEST PUSH0 DUP1 REVERT JUMPDEST PUSH2 0x8E PUSH2 0x5C CALLDATASIZE PUSH1 0x4 PUSH2 0x157 JUMP JUMPDEST PUSH1 0x1 PUSH1 0x1 PUSH1 0xA0 SHL SUB SWAP3 SWAP1 SWAP3 AND PUSH0 SWAP1 DUP2 MSTORE PUSH1 0x20 DUP2 DUP2 MSTORE PUSH1 0x40 DUP1 DUP4 KECCAK256 SWAP4 DUP4 MSTORE SWAP3 SWAP1 MSTORE KECCAK256 DUP1 SLOAD PUSH1 0xFF NOT AND SWAP2 ISZERO ISZERO SWAP2 SWAP1 SWAP2 OR SWAP1 SSTORE JUMP JUMPDEST STOP JUMPDEST PUSH2 0xBA PUSH2 0x9E CALLDATASIZE PUSH1 0x4 PUSH2 0x198 JUMP JUMPDEST PUSH0 PUSH1 0x20 DUP2 DUP2 MSTORE SWAP3 DUP2 MSTORE PUSH1 0x40 DUP1 DUP3 KECCAK256 SWAP1 SWAP4 MSTORE SWAP1 DUP2 MSTORE KECCAK256 SLOAD PUSH1 0xFF AND DUP2 JUMP JUMPDEST PUSH1 0x40 MLOAD SWAP1 ISZERO ISZERO DUP2 MSTORE PUSH1 0x20 ADD PUSH1 0x40 MLOAD DUP1 SWAP2 SUB SWAP1 RETURN JUMPDEST PUSH2 0x8E PUSH2 0xDC CALLDATASIZE PUSH1 0x4 PUSH2 0x198 JUMP JUMPDEST PUSH1 0x1 PUSH1 0x1 PUSH1 0xA0 SHL SUB SWAP1 SWAP2 AND PUSH0 SWAP1 DUP2 MSTORE PUSH1 0x20 DUP2 DUP2 MSTORE PUSH1 0x40 DUP1 DUP4 KECCAK256 SWAP4 DUP4 MSTORE SWAP3 SWAP1 MSTORE KECCAK256 DUP1 SLOAD PUSH1 0xFF NOT AND SWAP1 SSTORE JUMP JUMPDEST PUSH2 0xBA PUSH2 0x114 CALLDATASIZE PUSH1 0x4 PUSH2 0x198 JUMP JUMPDEST PUSH1 0x1 PUSH1 0x1 PUSH1 0xA0 SHL SUB SWAP2 SWAP1 SWAP2 AND PUSH0 SWAP1 DUP2 MSTORE PUSH1 0x20 DUP2 DUP2 MSTORE PUSH1 0x40 DUP1 DUP4 KECCAK256 SWAP4 DUP4 MSTORE SWAP3 SWAP1 MSTORE KECCAK256 SLOAD PUSH1 0xFF AND SWAP1 JUMP JUMPDEST DUP1 CALLDATALOAD PUSH1 0x1 PUSH1 0x1 PUSH1 0xA0 SHL SUB DUP2 AND DUP2 EQ PUSH2 0x152 JUMPI PUSH0 DUP1 REVERT JUMPDEST SWAP2 SWAP1 POP JUMP JUMPDEST PUSH0 DUP1 PUSH0 PUSH1 0x60 DUP5 DUP7 SUB SLT ISZERO PUSH2 0x169 JUMPI PUSH0 DUP1 REVERT JUMPDEST PUSH2 0x172 DUP5 PUSH2 0x13C JUMP JUMPDEST SWAP3 POP PUSH1 0x20 DUP5 ADD CALLDATALOAD SWAP2 POP PUSH1 0x40 DUP5 ADD CALLDATALOAD DUP1 ISZERO ISZERO DUP2 EQ PUSH2 0x18D JUMPI PUSH0 DUP1 REVERT JUMPDEST DUP1 SWAP2 POP POP SWAP3 POP SWAP3 POP SWAP3 JUMP JUMPDEST PUSH0 DUP1 PUSH1 0x40 DUP4 DUP6 SUB SLT ISZERO PUSH2 0x1A9 JUMPI PUSH0 DUP1 REVERT JUMPDEST PUSH2 0x1B2 DUP4 PUSH2 0x13C JUMP JUMPDEST SWAP5 PUSH1 0x20 SWAP4 SWAP1 SWAP4 ADD CALLDATALOAD SWAP4 POP POP POP JUMP INVALID LOG2 PUSH5 0x6970667358 0x22 SLT KECCAK256 DUP16 OR ADDMOD SWAP7 SWAP10 REVERT 0xC2 0xAA DUP14 0x4E MSTORE 0xF6 JUMPDEST 0xE3 0xED 0xD4 DUP16 DUP2 0xBF BLOBBASEFEE 0xF8 PUSH19 0xED3890637F9D4DB960C664736F6C634300081A STOP CALLER "
		},
		"gasEstimates": {
			"creation": {
				"codeDepositCost": "100400",
				"executionCost": "145",
				"totalCost": "100545"
			},
			"external": {
				"get(address,uint256)": "2674",
				"nested(address,uint256)": "2603",
				"remove(address,uint256)": "24704",
				"set(address,uint256,bool)": "24742"
			}
		},
		"methodIdentifiers": {
			"get(address,uint256)": "b464631b",
			"nested(address,uint256)": "14bd0a7b",
			"remove(address,uint256)": "abe7f1ab",
			"set(address,uint256,bool)": "0b139194"
		}
	},
	"abi": [
		{
			"inputs": [
				{
					"internalType": "address",
					"name": "_addr1",
					"type": "address"
				},
				{
					"internalType": "uint256",
					"name": "_i",
					"type": "uint256"
				}
			],
			"name": "get",
			"outputs": [
				{
					"internalType": "bool",
					"name": "",
					"type": "bool"
				}
			],
			"stateMutability": "view",
			"type": "function"
		},
		{
			"inputs": [
				{
					"internalType": "address",
					"name": "",
					"type": "address"
				},
				{
					"internalType": "uint256",
					"name": "",
					"type": "uint256"
				}
			],
			"name": "nested",
			"outputs": [
				{
					"internalType": "bool",
					"name": "",
					"type": "bool"
				}
			],
			"stateMutability": "view",
			"type": "function"
		},
		{
			"inputs": [
				{
					"internalType": "address",
					"name": "_addr1",
					"type": "address"
				},
				{
					"internalType": "uint256",
					"name": "_i",
					"type": "uint256"
				}
			],
			"name": "remove",
			"outputs": [],
			"stateMutability": "nonpayable",
			"type": "function"
		},
		{
			"inputs": [
				{
					"internalType": "address",
					"name": "_addr1",
					"type": "address"
				},
				{
					"internalType": "uint256",
					"name": "_i",
					"type": "uint256"
				},
				{
					"internalType": "bool",
					"name": "_boo",
					"type": "bool"
				}
			],
			"name": "set",
			"outputs": [],
			"stateMutability": "nonpayable",
			"type": "function"
		}
	]
}